{
  "contractName": "Stock",
  "abi": [
    {
      "inputs": [
        {
          "internalType": "string",
          "name": "_companyName",
          "type": "string"
        },
        {
          "internalType": "uint256",
          "name": "_amount",
          "type": "uint256"
        },
        {
          "internalType": "uint256",
          "name": "_initialPrice",
          "type": "uint256"
        }
      ],
      "stateMutability": "nonpayable",
      "type": "constructor"
    },
    {
      "anonymous": false,
      "inputs": [
        {
          "indexed": false,
          "internalType": "bool",
          "name": "val",
          "type": "bool"
        }
      ],
      "name": "printBool",
      "type": "event"
    },
    {
      "anonymous": false,
      "inputs": [
        {
          "indexed": false,
          "internalType": "uint256",
          "name": "val",
          "type": "uint256"
        }
      ],
      "name": "printInt",
      "type": "event"
    },
    {
      "anonymous": false,
      "inputs": [
        {
          "indexed": false,
          "internalType": "string",
          "name": "val",
          "type": "string"
        }
      ],
      "name": "printString",
      "type": "event"
    },
    {
      "inputs": [],
      "name": "amountInPublic",
      "outputs": [
        {
          "internalType": "uint256",
          "name": "",
          "type": "uint256"
        }
      ],
      "stateMutability": "view",
      "type": "function"
    },
    {
      "inputs": [],
      "name": "companyName",
      "outputs": [
        {
          "internalType": "string",
          "name": "",
          "type": "string"
        }
      ],
      "stateMutability": "view",
      "type": "function"
    },
    {
      "inputs": [],
      "name": "contractAddress",
      "outputs": [
        {
          "internalType": "address",
          "name": "",
          "type": "address"
        }
      ],
      "stateMutability": "view",
      "type": "function"
    },
    {
      "inputs": [],
      "name": "currentPrice",
      "outputs": [
        {
          "internalType": "uint256",
          "name": "",
          "type": "uint256"
        }
      ],
      "stateMutability": "view",
      "type": "function"
    },
    {
      "inputs": [
        {
          "internalType": "address",
          "name": "",
          "type": "address"
        }
      ],
      "name": "holderIndex",
      "outputs": [
        {
          "internalType": "uint256",
          "name": "",
          "type": "uint256"
        }
      ],
      "stateMutability": "view",
      "type": "function"
    },
    {
      "inputs": [
        {
          "internalType": "uint256",
          "name": "",
          "type": "uint256"
        }
      ],
      "name": "holders",
      "outputs": [
        {
          "internalType": "address",
          "name": "trader_address",
          "type": "address"
        },
        {
          "internalType": "uint256",
          "name": "amount",
          "type": "uint256"
        }
      ],
      "stateMutability": "view",
      "type": "function"
    },
    {
      "inputs": [],
      "name": "unsold_amount",
      "outputs": [
        {
          "internalType": "uint256",
          "name": "",
          "type": "uint256"
        }
      ],
      "stateMutability": "view",
      "type": "function"
    },
    {
      "stateMutability": "payable",
      "type": "receive"
    },
    {
      "inputs": [],
      "name": "buyOrder",
      "outputs": [],
      "stateMutability": "payable",
      "type": "function"
    },
    {
      "inputs": [],
      "name": "sellOrder",
      "outputs": [],
      "stateMutability": "payable",
      "type": "function"
    }
  ],
  "bytecode": "0x6080604052730b44cac31591f42123b25eec8f8ae6b161b5610c6000806101000a81548173ffffffffffffffffffffffffffffffffffffffff021916908373ffffffffffffffffffffffffffffffffffffffff1602179055503480156200006557600080fd5b50604051620017343803806200173483398181016040528101906200008b91906200040d565b60008054906101000a900473ffffffffffffffffffffffffffffffffffffffff1673ffffffffffffffffffffffffffffffffffffffff163373ffffffffffffffffffffffffffffffffffffffff16146200011c576040517f08c379a000000000000000000000000000000000000000000000000000000000815260040162000113906200050f565b60405180910390fd5b82600490816200012d919062000772565b50816002819055508060058190555030600160006101000a81548173ffffffffffffffffffffffffffffffffffffffff021916908373ffffffffffffffffffffffffffffffffffffffff160217905550600060038190555060006040518060400160405280600073ffffffffffffffffffffffffffffffffffffffff16815260200160008152509050600881908060018154018082558091505060019003906000526020600020906002020160009091909190915060008201518160000160006101000a81548173ffffffffffffffffffffffffffffffffffffffff021916908373ffffffffffffffffffffffffffffffffffffffff1602179055506020820151816001015550505050505062000859565b6000604051905090565b600080fd5b600080fd5b600080fd5b600080fd5b6000601f19601f8301169050919050565b7f4e487b7100000000000000000000000000000000000000000000000000000000600052604160045260246000fd5b620002a8826200025d565b810181811067ffffffffffffffff82111715620002ca57620002c96200026e565b5b80604052505050565b6000620002df6200023f565b9050620002ed82826200029d565b919050565b600067ffffffffffffffff82111562000310576200030f6200026e565b5b6200031b826200025d565b9050602081019050919050565b60005b83811015620003485780820151818401526020810190506200032b565b60008484015250505050565b60006200036b6200036584620002f2565b620002d3565b9050828152602081018484840111156200038a576200038962000258565b5b6200039784828562000328565b509392505050565b600082601f830112620003b757620003b662000253565b5b8151620003c984826020860162000354565b91505092915050565b6000819050919050565b620003e781620003d2565b8114620003f357600080fd5b50565b6000815190506200040781620003dc565b92915050565b60008060006060848603121562000429576200042862000249565b5b600084015167ffffffffffffffff8111156200044a57620004496200024e565b5b62000458868287016200039f565b93505060206200046b86828701620003f6565b92505060406200047e86828701620003f6565b9150509250925092565b600082825260208201905092915050565b7f4f6e6c7920676f7665726e6d656e74206163636f756e742063616e206265207560008201527f73656420746f206465706c6f792073746f636b732e0000000000000000000000602082015250565b6000620004f760358362000488565b9150620005048262000499565b604082019050919050565b600060208201905081810360008301526200052a81620004e8565b9050919050565b600081519050919050565b7f4e487b7100000000000000000000000000000000000000000000000000000000600052602260045260246000fd5b600060028204905060018216806200058457607f821691505b6020821081036200059a57620005996200053c565b5b50919050565b60008190508160005260206000209050919050565b60006020601f8301049050919050565b600082821b905092915050565b600060088302620006047fffffffffffffffffffffffffffffffffffffffffffffffffffffffffffffffff82620005c5565b620006108683620005c5565b95508019841693508086168417925050509392505050565b6000819050919050565b6000620006536200064d6200064784620003d2565b62000628565b620003d2565b9050919050565b6000819050919050565b6200066f8362000632565b620006876200067e826200065a565b848454620005d2565b825550505050565b600090565b6200069e6200068f565b620006ab81848462000664565b505050565b5b81811015620006d357620006c760008262000694565b600181019050620006b1565b5050565b601f8211156200072257620006ec81620005a0565b620006f784620005b5565b8101602085101562000707578190505b6200071f6200071685620005b5565b830182620006b0565b50505b505050565b600082821c905092915050565b6000620007476000198460080262000727565b1980831691505092915050565b600062000762838362000734565b9150826002028217905092915050565b6200077d8262000531565b67ffffffffffffffff8111156200079957620007986200026e565b5b620007a582546200056b565b620007b2828285620006d7565b600060209050601f831160018114620007ea5760008415620007d5578287015190505b620007e1858262000754565b86555062000851565b601f198416620007fa86620005a0565b60005b828110156200082457848901518255600182019150602085019450602081019050620007fd565b8683101562000844578489015162000840601f89168262000734565b8355505b6001600288020188555050505b505050505050565b610ecb80620008696000396000f3fe60806040526004361061008a5760003560e01c80639d1b464a116100595780639d1b464a14610148578063e9bbb04014610173578063f5ec2eed146101b0578063f6b4dfb4146101db578063facb4f6114610206576100c6565b80630a4bcbb1146100cb57806314468bf6146100d55780632a11ced0146100df57806339bb02381461011d576100c6565b366100c6577f0f3ef8bc414cf2a5097f8cf34b5aaf397684f18f72ef7909239bf3081cf907976040516100bc90610875565b60405180910390a1005b600080fd5b6100d3610231565b005b6100dd61056b565b005b3480156100eb57600080fd5b50610106600480360381019061010191906108d0565b6106e6565b60405161011492919061094d565b60405180910390f35b34801561012957600080fd5b5061013261073a565b60405161013f9190610976565b60405180910390f35b34801561015457600080fd5b5061015d610740565b60405161016a9190610976565b60405180910390f35b34801561017f57600080fd5b5061019a600480360381019061019591906109bd565b610746565b6040516101a79190610976565b60405180910390f35b3480156101bc57600080fd5b506101c561075e565b6040516101d29190610a69565b60405180910390f35b3480156101e757600080fd5b506101f06107ec565b6040516101fd9190610a8b565b60405180910390f35b34801561021257600080fd5b5061021b610812565b6040516102289190610976565b60405180910390f35b60003490507fcd2fc4fe6ad68a03e34321ac634adbcf0bf89c4c912045784bff113e2717d1bc816040516102659190610976565b60405180910390a160055481146102b1576040517f08c379a00000000000000000000000000000000000000000000000000000000081526004016102a890610af2565b60405180910390fd5b60003073ffffffffffffffffffffffffffffffffffffffff166108fc6005549081150290604051600060405180830381858888f1935050505090508061032c576040517f08c379a000000000000000000000000000000000000000000000000000000000815260040161032390610b84565b60405180910390fd5b7fb83141d06b456f990d9f9acc2507ff1475ecff2869b88a9fbfb059ed7d8bb6328160405161035b9190610bbf565b60405180910390a16000339050600060025411156103a4576002600081548092919061038690610c09565b91905055506003600081548092919061039e90610c32565b91905055505b6000600760008373ffffffffffffffffffffffffffffffffffffffff1673ffffffffffffffffffffffffffffffffffffffff16815260200190815260200160002054036104e957600060405180604001604052808373ffffffffffffffffffffffffffffffffffffffff16815260200160018152509050600880549050600760008473ffffffffffffffffffffffffffffffffffffffff1673ffffffffffffffffffffffffffffffffffffffff16815260200190815260200160002081905550600881908060018154018082558091505060019003906000526020600020906002020160009091909190915060008201518160000160006101000a81548173ffffffffffffffffffffffffffffffffffffffff021916908373ffffffffffffffffffffffffffffffffffffffff16021790555060208201518160010155505050610566565b60016008600760008473ffffffffffffffffffffffffffffffffffffffff1673ffffffffffffffffffffffffffffffffffffffff168152602001908152602001600020548154811061053e5761053d610c7a565b5b9060005260206000209060020201600101600082825461055e9190610ca9565b925050819055505b505050565b60003390506000600760008373ffffffffffffffffffffffffffffffffffffffff1673ffffffffffffffffffffffffffffffffffffffff168152602001908152602001600020549050600081141580156105ea57506000600882815481106105d6576105d5610c7a565b5b906000526020600020906002020160010154115b610629576040517f08c379a000000000000000000000000000000000000000000000000000000000815260040161062090610d4f565b60405180910390fd5b60008273ffffffffffffffffffffffffffffffffffffffff166108fc6005549081150290604051600060405180830381858888f193505050509050806106a4576040517f08c379a000000000000000000000000000000000000000000000000000000000815260040161069b90610de1565b60405180910390fd5b6001600883815481106106ba576106b9610c7a565b5b906000526020600020906002020160010160008282546106da9190610e01565b92505081905550505050565b600881815481106106f657600080fd5b90600052602060002090600202016000915090508060000160009054906101000a900473ffffffffffffffffffffffffffffffffffffffff16908060010154905082565b60035481565b60055481565b60076020528060005260406000206000915090505481565b6004805461076b90610e64565b80601f016020809104026020016040519081016040528092919081815260200182805461079790610e64565b80156107e45780601f106107b9576101008083540402835291602001916107e4565b820191906000526020600020905b8154815290600101906020018083116107c757829003601f168201915b505050505081565b600160009054906101000a900473ffffffffffffffffffffffffffffffffffffffff1681565b60025481565b600082825260208201905092915050565b7f52656365697665642074686520616d6f756e7400000000000000000000000000600082015250565b600061085f601383610818565b915061086a82610829565b602082019050919050565b6000602082019050818103600083015261088e81610852565b9050919050565b600080fd5b6000819050919050565b6108ad8161089a565b81146108b857600080fd5b50565b6000813590506108ca816108a4565b92915050565b6000602082840312156108e6576108e5610895565b5b60006108f4848285016108bb565b91505092915050565b600073ffffffffffffffffffffffffffffffffffffffff82169050919050565b6000610928826108fd565b9050919050565b6109388161091d565b82525050565b6109478161089a565b82525050565b6000604082019050610962600083018561092f565b61096f602083018461093e565b9392505050565b600060208201905061098b600083018461093e565b92915050565b61099a8161091d565b81146109a557600080fd5b50565b6000813590506109b781610991565b92915050565b6000602082840312156109d3576109d2610895565b5b60006109e1848285016109a8565b91505092915050565b600081519050919050565b60005b83811015610a135780820151818401526020810190506109f8565b60008484015250505050565b6000601f19601f8301169050919050565b6000610a3b826109ea565b610a458185610818565b9350610a558185602086016109f5565b610a5e81610a1f565b840191505092915050565b60006020820190508181036000830152610a838184610a30565b905092915050565b6000602082019050610aa0600083018461092f565b92915050565b7f57726f6e6720616d6f756e74206f662065746865722073656e742e0000000000600082015250565b6000610adc601b83610818565b9150610ae782610aa6565b602082019050919050565b60006020820190508181036000830152610b0b81610acf565b9050919050565b7f4e6f742061626c6520746f2072656365697665207061796d656e74206574686560008201527f7273000000000000000000000000000000000000000000000000000000000000602082015250565b6000610b6e602283610818565b9150610b7982610b12565b604082019050919050565b60006020820190508181036000830152610b9d81610b61565b9050919050565b60008115159050919050565b610bb981610ba4565b82525050565b6000602082019050610bd46000830184610bb0565b92915050565b7f4e487b7100000000000000000000000000000000000000000000000000000000600052601160045260246000fd5b6000610c148261089a565b915060008203610c2757610c26610bda565b5b600182039050919050565b6000610c3d8261089a565b91507fffffffffffffffffffffffffffffffffffffffffffffffffffffffffffffffff8203610c6f57610c6e610bda565b5b600182019050919050565b7f4e487b7100000000000000000000000000000000000000000000000000000000600052603260045260246000fd5b6000610cb48261089a565b9150610cbf8361089a565b9250828201905080821115610cd757610cd6610bda565b5b92915050565b7f5468697320747261646572206973206e6f7420666f756e6420696e206375727260008201527f656e742073746f636b20686f6c646572732e0000000000000000000000000000602082015250565b6000610d39603283610818565b9150610d4482610cdd565b604082019050919050565b60006020820190508181036000830152610d6881610d2c565b9050919050565b7f576173206e6f742061626c6520746f2073656e6420746865206574686572732c60008201527f2072657665727465640000000000000000000000000000000000000000000000602082015250565b6000610dcb602983610818565b9150610dd682610d6f565b604082019050919050565b60006020820190508181036000830152610dfa81610dbe565b9050919050565b6000610e0c8261089a565b9150610e178361089a565b9250828203905081811115610e2f57610e2e610bda565b5b92915050565b7f4e487b7100000000000000000000000000000000000000000000000000000000600052602260045260246000fd5b60006002820490506001821680610e7c57607f821691505b602082108103610e8f57610e8e610e35565b5b5091905056fea2646970667358221220521aaf134b46ad91642b71066f945089aa7d1e80523b40353d48aa447b8761b364736f6c63430008120033",
  "immutableReferences": {},
  "source": "// SPDX-License-Identifier: GPL-3.0\r\n\r\npragma solidity >=0.8.2 <0.9.0;\r\n\r\nstruct Holder {\r\n    address trader_address;\r\n    uint amount;\r\n}\r\n\r\ncontract Stock {\r\n    \r\n    address private government = 0x0B44caC31591F42123b25eec8f8AE6B161b5610C;\r\n    address public contractAddress;\r\n    uint public unsold_amount;\r\n    uint public amountInPublic;\r\n    string public companyName;\r\n    uint public currentPrice;\r\n    address[] transactions;\r\n    mapping(address => uint) public holderIndex;\r\n    Holder[] public holders;\r\n\r\n\r\n    event printInt(uint val);\r\n    event printBool(bool val);\r\n    event printString(string val);\r\n\r\n    constructor(string memory _companyName, uint _amount, uint _initialPrice) {\r\n        require(msg.sender == government, \"Only government account can be used to deploy stocks.\");\r\n        companyName = _companyName;\r\n        unsold_amount = _amount;\r\n        currentPrice = _initialPrice;\r\n        contractAddress = address(this);\r\n        amountInPublic = 0;\r\n        Holder memory emptyHolder = Holder({\r\n            trader_address: 0x0000000000000000000000000000000000000000,\r\n            amount: 0\r\n        });\r\n        holders.push(emptyHolder);\r\n    }\r\n\r\n    receive() external payable {\r\n        emit printString(\"Received the amount\");\r\n    }\r\n\r\n    function buyOrder() external payable {\r\n        uint valueSent = msg.value;\r\n        emit printInt(valueSent);\r\n        require(valueSent == currentPrice, \"Wrong amount of ether sent.\");\r\n        bool sent = payable(address(this)).send(currentPrice);\r\n        require(sent, \"Not able to receive payment ethers\");\r\n        emit printBool(sent);\r\n        address _address = msg.sender;\r\n\r\n        if (unsold_amount > 0) {\r\n            unsold_amount--;\r\n            amountInPublic++;\r\n        }\r\n\r\n        if (holderIndex[_address] == 0) {\r\n            Holder memory updatedHolder = Holder({\r\n                trader_address: _address,\r\n                amount: 1\r\n            });\r\n            holderIndex[_address] = holders.length;\r\n            holders.push(updatedHolder);\r\n        } else {\r\n            holders[holderIndex[_address]].amount += 1;\r\n        }\r\n    }\r\n\r\n    function sellOrder() external payable {\r\n        address payable _address = payable(msg.sender);\r\n        uint index = holderIndex[_address];\r\n        require(index != 0 && holders[index].amount > 0, \"This trader is not found in current stock holders.\");\r\n        bool sent = _address.send(currentPrice);\r\n        require(sent, \"Was not able to send the ethers, reverted\");\r\n        holders[index].amount -= 1;\r\n    }\r\n}\r\n",
  "sourcePath": "E:\\Coding\\Blockchain\\reactStarter\\truffle\\contracts\\Stock.sol",
  "compiler": {
    "name": "solc",
    "version": "0.8.18+commit.87f61d96.Emscripten.clang"
  },
  "schemaVersion": "3.4.13",
  "updatedAt": "2023-04-14T13:40:04.163Z",
  "devdoc": {
    "kind": "dev",
    "methods": {},
    "version": 1
  },
  "userdoc": {
    "kind": "user",
    "methods": {},
    "version": 1
  }
}