{
  "contractName": "Stock",
  "abi": [
    {
      "inputs": [
        {
          "internalType": "string",
          "name": "_companyName",
          "type": "string"
        },
        {
          "internalType": "uint256",
          "name": "_amount",
          "type": "uint256"
        },
        {
          "internalType": "uint256",
          "name": "_initialPrice",
          "type": "uint256"
        }
      ],
      "stateMutability": "nonpayable",
      "type": "constructor"
    },
    {
      "anonymous": false,
      "inputs": [
        {
          "indexed": false,
          "internalType": "bool",
          "name": "val",
          "type": "bool"
        }
      ],
      "name": "printBool",
      "type": "event"
    },
    {
      "anonymous": false,
      "inputs": [
        {
          "indexed": false,
          "internalType": "uint256",
          "name": "val",
          "type": "uint256"
        }
      ],
      "name": "printInt",
      "type": "event"
    },
    {
      "anonymous": false,
      "inputs": [
        {
          "indexed": false,
          "internalType": "string",
          "name": "val",
          "type": "string"
        }
      ],
      "name": "printString",
      "type": "event"
    },
    {
      "inputs": [],
      "name": "amountInPublic",
      "outputs": [
        {
          "internalType": "uint256",
          "name": "",
          "type": "uint256"
        }
      ],
      "stateMutability": "view",
      "type": "function"
    },
    {
      "inputs": [],
      "name": "companyName",
      "outputs": [
        {
          "internalType": "string",
          "name": "",
          "type": "string"
        }
      ],
      "stateMutability": "view",
      "type": "function"
    },
    {
      "inputs": [],
      "name": "contractAddress",
      "outputs": [
        {
          "internalType": "address",
          "name": "",
          "type": "address"
        }
      ],
      "stateMutability": "view",
      "type": "function"
    },
    {
      "inputs": [],
      "name": "currentPrice",
      "outputs": [
        {
          "internalType": "uint256",
          "name": "",
          "type": "uint256"
        }
      ],
      "stateMutability": "view",
      "type": "function"
    },
    {
      "inputs": [
        {
          "internalType": "address",
          "name": "",
          "type": "address"
        }
      ],
      "name": "holderIndex",
      "outputs": [
        {
          "internalType": "uint256",
          "name": "",
          "type": "uint256"
        }
      ],
      "stateMutability": "view",
      "type": "function"
    },
    {
      "inputs": [
        {
          "internalType": "uint256",
          "name": "",
          "type": "uint256"
        }
      ],
      "name": "holders",
      "outputs": [
        {
          "internalType": "address",
          "name": "trader_address",
          "type": "address"
        },
        {
          "internalType": "uint256",
          "name": "amount",
          "type": "uint256"
        }
      ],
      "stateMutability": "view",
      "type": "function"
    },
    {
      "inputs": [],
      "name": "unsold_amount",
      "outputs": [
        {
          "internalType": "uint256",
          "name": "",
          "type": "uint256"
        }
      ],
      "stateMutability": "view",
      "type": "function"
    },
    {
      "stateMutability": "payable",
      "type": "receive"
    },
    {
      "inputs": [],
      "name": "buyOrder",
      "outputs": [],
      "stateMutability": "payable",
      "type": "function"
    },
    {
      "inputs": [],
      "name": "sellOrder",
      "outputs": [],
      "stateMutability": "payable",
      "type": "function"
    }
  ],
  "bytecode": "0x608060405260016005553480156200001657600080fd5b50604051620015093803806200150983398181016040528101906200003c91906200032d565b82600490816200004d9190620005e9565b50816002819055508060058190555030600160006101000a81548173ffffffffffffffffffffffffffffffffffffffff021916908373ffffffffffffffffffffffffffffffffffffffff160217905550600060038190555060006040518060400160405280600073ffffffffffffffffffffffffffffffffffffffff16815260200160008152509050600881908060018154018082558091505060019003906000526020600020906002020160009091909190915060008201518160000160006101000a81548173ffffffffffffffffffffffffffffffffffffffff021916908373ffffffffffffffffffffffffffffffffffffffff16021790555060208201518160010155505050505050620006d0565b6000604051905090565b600080fd5b600080fd5b600080fd5b600080fd5b6000601f19601f8301169050919050565b7f4e487b7100000000000000000000000000000000000000000000000000000000600052604160045260246000fd5b620001c8826200017d565b810181811067ffffffffffffffff82111715620001ea57620001e96200018e565b5b80604052505050565b6000620001ff6200015f565b90506200020d8282620001bd565b919050565b600067ffffffffffffffff82111562000230576200022f6200018e565b5b6200023b826200017d565b9050602081019050919050565b60005b83811015620002685780820151818401526020810190506200024b565b60008484015250505050565b60006200028b620002858462000212565b620001f3565b905082815260208101848484011115620002aa57620002a962000178565b5b620002b784828562000248565b509392505050565b600082601f830112620002d757620002d662000173565b5b8151620002e984826020860162000274565b91505092915050565b6000819050919050565b6200030781620002f2565b81146200031357600080fd5b50565b6000815190506200032781620002fc565b92915050565b60008060006060848603121562000349576200034862000169565b5b600084015167ffffffffffffffff8111156200036a57620003696200016e565b5b6200037886828701620002bf565b93505060206200038b8682870162000316565b92505060406200039e8682870162000316565b9150509250925092565b600081519050919050565b7f4e487b7100000000000000000000000000000000000000000000000000000000600052602260045260246000fd5b60006002820490506001821680620003fb57607f821691505b602082108103620004115762000410620003b3565b5b50919050565b60008190508160005260206000209050919050565b60006020601f8301049050919050565b600082821b905092915050565b6000600883026200047b7fffffffffffffffffffffffffffffffffffffffffffffffffffffffffffffffff826200043c565b6200048786836200043c565b95508019841693508086168417925050509392505050565b6000819050919050565b6000620004ca620004c4620004be84620002f2565b6200049f565b620002f2565b9050919050565b6000819050919050565b620004e683620004a9565b620004fe620004f582620004d1565b84845462000449565b825550505050565b600090565b6200051562000506565b62000522818484620004db565b505050565b5b818110156200054a576200053e6000826200050b565b60018101905062000528565b5050565b601f8211156200059957620005638162000417565b6200056e846200042c565b810160208510156200057e578190505b620005966200058d856200042c565b83018262000527565b50505b505050565b600082821c905092915050565b6000620005be600019846008026200059e565b1980831691505092915050565b6000620005d98383620005ab565b9150826002028217905092915050565b620005f482620003a8565b67ffffffffffffffff81111562000610576200060f6200018e565b5b6200061c8254620003e2565b620006298282856200054e565b600060209050601f8311600181146200066157600084156200064c578287015190505b620006588582620005cb565b865550620006c8565b601f198416620006718662000417565b60005b828110156200069b5784890151825560018201915060208501945060208101905062000674565b86831015620006bb5784890151620006b7601f891682620005ab565b8355505b6001600288020188555050505b505050505050565b610e2980620006e06000396000f3fe60806040526004361061008a5760003560e01c80639d1b464a116100595780639d1b464a14610148578063e9bbb04014610173578063f5ec2eed146101b0578063f6b4dfb4146101db578063facb4f6114610206576100c6565b80630a4bcbb1146100cb57806314468bf6146100d55780632a11ced0146100df57806339bb02381461011d576100c6565b366100c6577f0f3ef8bc414cf2a5097f8cf34b5aaf397684f18f72ef7909239bf3081cf907976040516100bc9061082f565b60405180910390a1005b600080fd5b6100d3610231565b005b6100dd610548565b005b3480156100eb57600080fd5b506101066004803603810190610101919061088a565b6106a0565b604051610114929190610907565b60405180910390f35b34801561012957600080fd5b506101326106f4565b60405161013f9190610930565b60405180910390f35b34801561015457600080fd5b5061015d6106fa565b60405161016a9190610930565b60405180910390f35b34801561017f57600080fd5b5061019a60048036038101906101959190610977565b610700565b6040516101a79190610930565b60405180910390f35b3480156101bc57600080fd5b506101c5610718565b6040516101d29190610a23565b60405180910390f35b3480156101e757600080fd5b506101f06107a6565b6040516101fd9190610a45565b60405180910390f35b34801561021257600080fd5b5061021b6107cc565b6040516102289190610930565b60405180910390f35b6000670de0b6b3a7640000346102479190610abe565b90507fcd2fc4fe6ad68a03e34321ac634adbcf0bf89c4c912045784bff113e2717d1bc816040516102789190610930565b60405180910390a1600554811461028e57600080fd5b60003073ffffffffffffffffffffffffffffffffffffffff166108fc6005549081150290604051600060405180830381858888f19350505050905080610309576040517f08c379a000000000000000000000000000000000000000000000000000000000815260040161030090610b61565b60405180910390fd5b7fb83141d06b456f990d9f9acc2507ff1475ecff2869b88a9fbfb059ed7d8bb632816040516103389190610b9c565b60405180910390a1600033905060006002541115610381576002600081548092919061036390610bb7565b91905055506003600081548092919061037b90610be0565b91905055505b6000600760008373ffffffffffffffffffffffffffffffffffffffff1673ffffffffffffffffffffffffffffffffffffffff16815260200190815260200160002054036104c657600060405180604001604052808373ffffffffffffffffffffffffffffffffffffffff16815260200160018152509050600880549050600760008473ffffffffffffffffffffffffffffffffffffffff1673ffffffffffffffffffffffffffffffffffffffff16815260200190815260200160002081905550600881908060018154018082558091505060019003906000526020600020906002020160009091909190915060008201518160000160006101000a81548173ffffffffffffffffffffffffffffffffffffffff021916908373ffffffffffffffffffffffffffffffffffffffff16021790555060208201518160010155505050610543565b60016008600760008473ffffffffffffffffffffffffffffffffffffffff1673ffffffffffffffffffffffffffffffffffffffff168152602001908152602001600020548154811061051b5761051a610c28565b5b9060005260206000209060020201600101600082825461053b9190610c57565b925050819055505b505050565b60003390506000600760008373ffffffffffffffffffffffffffffffffffffffff1673ffffffffffffffffffffffffffffffffffffffff168152602001908152602001600020549050600081141580156105c757506000600882815481106105b3576105b2610c28565b5b906000526020600020906002020160010154115b6105d057600080fd5b60008273ffffffffffffffffffffffffffffffffffffffff166108fc670de0b6b3a76400006005546106029190610c8b565b9081150290604051600060405180830381858888f1935050505090508061065e576040517f08c379a000000000000000000000000000000000000000000000000000000000815260040161065590610d3f565b60405180910390fd5b60016008838154811061067457610673610c28565b5b906000526020600020906002020160010160008282546106949190610d5f565b92505081905550505050565b600881815481106106b057600080fd5b90600052602060002090600202016000915090508060000160009054906101000a900473ffffffffffffffffffffffffffffffffffffffff16908060010154905082565b60035481565b60055481565b60076020528060005260406000206000915090505481565b6004805461072590610dc2565b80601f016020809104026020016040519081016040528092919081815260200182805461075190610dc2565b801561079e5780601f106107735761010080835404028352916020019161079e565b820191906000526020600020905b81548152906001019060200180831161078157829003601f168201915b505050505081565b600160009054906101000a900473ffffffffffffffffffffffffffffffffffffffff1681565b60025481565b600082825260208201905092915050565b7f52656365697665642074686520616d6f756e7400000000000000000000000000600082015250565b60006108196013836107d2565b9150610824826107e3565b602082019050919050565b600060208201905081810360008301526108488161080c565b9050919050565b600080fd5b6000819050919050565b61086781610854565b811461087257600080fd5b50565b6000813590506108848161085e565b92915050565b6000602082840312156108a05761089f61084f565b5b60006108ae84828501610875565b91505092915050565b600073ffffffffffffffffffffffffffffffffffffffff82169050919050565b60006108e2826108b7565b9050919050565b6108f2816108d7565b82525050565b61090181610854565b82525050565b600060408201905061091c60008301856108e9565b61092960208301846108f8565b9392505050565b600060208201905061094560008301846108f8565b92915050565b610954816108d7565b811461095f57600080fd5b50565b6000813590506109718161094b565b92915050565b60006020828403121561098d5761098c61084f565b5b600061099b84828501610962565b91505092915050565b600081519050919050565b60005b838110156109cd5780820151818401526020810190506109b2565b60008484015250505050565b6000601f19601f8301169050919050565b60006109f5826109a4565b6109ff81856107d2565b9350610a0f8185602086016109af565b610a18816109d9565b840191505092915050565b60006020820190508181036000830152610a3d81846109ea565b905092915050565b6000602082019050610a5a60008301846108e9565b92915050565b7f4e487b7100000000000000000000000000000000000000000000000000000000600052601260045260246000fd5b7f4e487b7100000000000000000000000000000000000000000000000000000000600052601160045260246000fd5b6000610ac982610854565b9150610ad483610854565b925082610ae457610ae3610a60565b5b828204905092915050565b7f4e6f742061626c6520746f2072656365697665207061796d656e74206574686560008201527f7273000000000000000000000000000000000000000000000000000000000000602082015250565b6000610b4b6022836107d2565b9150610b5682610aef565b604082019050919050565b60006020820190508181036000830152610b7a81610b3e565b9050919050565b60008115159050919050565b610b9681610b81565b82525050565b6000602082019050610bb16000830184610b8d565b92915050565b6000610bc282610854565b915060008203610bd557610bd4610a8f565b5b600182039050919050565b6000610beb82610854565b91507fffffffffffffffffffffffffffffffffffffffffffffffffffffffffffffffff8203610c1d57610c1c610a8f565b5b600182019050919050565b7f4e487b7100000000000000000000000000000000000000000000000000000000600052603260045260246000fd5b6000610c6282610854565b9150610c6d83610854565b9250828201905080821115610c8557610c84610a8f565b5b92915050565b6000610c9682610854565b9150610ca183610854565b9250828202610caf81610854565b91508282048414831517610cc657610cc5610a8f565b5b5092915050565b7f576173206e6f742061626c6520746f2073656e6420746865206574686572732c60008201527f2072657665727465640000000000000000000000000000000000000000000000602082015250565b6000610d296029836107d2565b9150610d3482610ccd565b604082019050919050565b60006020820190508181036000830152610d5881610d1c565b9050919050565b6000610d6a82610854565b9150610d7583610854565b9250828203905081811115610d8d57610d8c610a8f565b5b92915050565b7f4e487b7100000000000000000000000000000000000000000000000000000000600052602260045260246000fd5b60006002820490506001821680610dda57607f821691505b602082108103610ded57610dec610d93565b5b5091905056fea264697066735822122045b4e01242ab9343ec81ef5b13d378e9fb10309f19c15b2d4f22763d53cccf7064736f6c63430008120033",
  "immutableReferences": {},
  "source": "// SPDX-License-Identifier: GPL-3.0\r\n\r\npragma solidity >=0.8.2 <0.9.0;\r\n\r\nstruct Holder {\r\n    address trader_address;\r\n    uint amount;\r\n}\r\n\r\ncontract Stock {\r\n    \r\n    address private owner;\r\n    address public contractAddress;\r\n    uint public unsold_amount;\r\n    uint public amountInPublic;\r\n    string public companyName;\r\n    uint public currentPrice = 1;\r\n    address[] transactions;\r\n    mapping(address => uint) public holderIndex;\r\n    Holder[] public holders;\r\n\r\n\r\n    event printInt(uint val);\r\n    event printBool(bool val);\r\n    event printString(string val);\r\n\r\n    constructor(string memory _companyName, uint _amount, uint _initialPrice) {\r\n        companyName = _companyName;\r\n        unsold_amount = _amount;\r\n        currentPrice = _initialPrice;\r\n        contractAddress = address(this);\r\n        amountInPublic = 0;\r\n        Holder memory emptyHolder = Holder({\r\n            trader_address: 0x0000000000000000000000000000000000000000,\r\n            amount: 0\r\n        });\r\n        holders.push(emptyHolder);\r\n    }\r\n\r\n    receive() external payable {\r\n        emit printString(\"Received the amount\");\r\n    }\r\n\r\n    function buyOrder() external payable {\r\n        uint valueSent = msg.value / 1000000000000000000;\r\n        emit printInt(valueSent);\r\n        require(valueSent == currentPrice);\r\n        bool sent = payable(address(this)).send(currentPrice);\r\n        require(sent, \"Not able to receive payment ethers\");\r\n        emit printBool(sent);\r\n        address _address = msg.sender;\r\n\r\n        if (unsold_amount > 0) {\r\n            unsold_amount--;\r\n            amountInPublic++;\r\n        }\r\n\r\n        if (holderIndex[_address] == 0) {\r\n            Holder memory updatedHolder = Holder({\r\n                trader_address: _address,\r\n                amount: 1\r\n            });\r\n            holderIndex[_address] = holders.length;\r\n            holders.push(updatedHolder);\r\n        } else {\r\n            holders[holderIndex[_address]].amount += 1;\r\n        }\r\n    }\r\n\r\n    function sellOrder() external payable {\r\n        address payable _address = payable(msg.sender);\r\n        uint index = holderIndex[_address];\r\n        require(index != 0 && holders[index].amount > 0);\r\n        bool sent = _address.send(currentPrice * 1 ether);\r\n        require(sent, \"Was not able to send the ethers, reverted\");\r\n        holders[index].amount -= 1;\r\n    }\r\n}\r\n",
  "sourcePath": "E:\\Coding\\Blockchain\\reactStarter\\truffle\\contracts\\Stock.sol",
  "compiler": {
    "name": "solc",
    "version": "0.8.18+commit.87f61d96.Emscripten.clang"
  },
  "schemaVersion": "3.4.13",
  "updatedAt": "2023-04-06T16:22:59.340Z",
  "devdoc": {
    "kind": "dev",
    "methods": {},
    "version": 1
  },
  "userdoc": {
    "kind": "user",
    "methods": {},
    "version": 1
  }
}