{
  "contractName": "Stock",
  "abi": [
    {
      "inputs": [
        {
          "internalType": "string",
          "name": "_companyName",
          "type": "string"
        },
        {
          "internalType": "uint256",
          "name": "_amount",
          "type": "uint256"
        },
        {
          "internalType": "uint256",
          "name": "_initialPrice",
          "type": "uint256"
        }
      ],
      "stateMutability": "nonpayable",
      "type": "constructor"
    },
    {
      "anonymous": false,
      "inputs": [
        {
          "indexed": false,
          "internalType": "bool",
          "name": "val",
          "type": "bool"
        }
      ],
      "name": "printBool",
      "type": "event"
    },
    {
      "anonymous": false,
      "inputs": [
        {
          "indexed": false,
          "internalType": "string",
          "name": "val",
          "type": "string"
        }
      ],
      "name": "printString",
      "type": "event"
    },
    {
      "anonymous": false,
      "inputs": [
        {
          "indexed": false,
          "internalType": "uint256",
          "name": "val",
          "type": "uint256"
        }
      ],
      "name": "something",
      "type": "event"
    },
    {
      "inputs": [],
      "name": "amountInPublic",
      "outputs": [
        {
          "internalType": "uint256",
          "name": "",
          "type": "uint256"
        }
      ],
      "stateMutability": "view",
      "type": "function"
    },
    {
      "inputs": [],
      "name": "buyOrders",
      "outputs": [
        {
          "internalType": "uint256",
          "name": "",
          "type": "uint256"
        }
      ],
      "stateMutability": "view",
      "type": "function"
    },
    {
      "inputs": [],
      "name": "companyName",
      "outputs": [
        {
          "internalType": "string",
          "name": "",
          "type": "string"
        }
      ],
      "stateMutability": "view",
      "type": "function"
    },
    {
      "inputs": [],
      "name": "contractAddress",
      "outputs": [
        {
          "internalType": "address",
          "name": "",
          "type": "address"
        }
      ],
      "stateMutability": "view",
      "type": "function"
    },
    {
      "inputs": [],
      "name": "currentPrice",
      "outputs": [
        {
          "internalType": "uint256",
          "name": "",
          "type": "uint256"
        }
      ],
      "stateMutability": "view",
      "type": "function"
    },
    {
      "inputs": [
        {
          "internalType": "address",
          "name": "",
          "type": "address"
        }
      ],
      "name": "holderIndex",
      "outputs": [
        {
          "internalType": "uint256",
          "name": "",
          "type": "uint256"
        }
      ],
      "stateMutability": "view",
      "type": "function"
    },
    {
      "inputs": [
        {
          "internalType": "uint256",
          "name": "",
          "type": "uint256"
        }
      ],
      "name": "holders",
      "outputs": [
        {
          "internalType": "address",
          "name": "trader_address",
          "type": "address"
        },
        {
          "internalType": "uint256",
          "name": "amount",
          "type": "uint256"
        }
      ],
      "stateMutability": "view",
      "type": "function"
    },
    {
      "inputs": [],
      "name": "sellOrders",
      "outputs": [
        {
          "internalType": "uint256",
          "name": "",
          "type": "uint256"
        }
      ],
      "stateMutability": "view",
      "type": "function"
    },
    {
      "inputs": [],
      "name": "unsold_amount",
      "outputs": [
        {
          "internalType": "uint256",
          "name": "",
          "type": "uint256"
        }
      ],
      "stateMutability": "view",
      "type": "function"
    },
    {
      "stateMutability": "payable",
      "type": "receive"
    },
    {
      "inputs": [],
      "name": "getBalance",
      "outputs": [
        {
          "internalType": "uint256",
          "name": "",
          "type": "uint256"
        }
      ],
      "stateMutability": "view",
      "type": "function"
    },
    {
      "inputs": [],
      "name": "buyOrder",
      "outputs": [],
      "stateMutability": "payable",
      "type": "function"
    },
    {
      "inputs": [],
      "name": "sellOrder",
      "outputs": [],
      "stateMutability": "payable",
      "type": "function"
    }
  ],
  "bytecode": "0x60806040526000600455600060055560016007553480156200002057600080fd5b50604051620015c9380380620015c9833981810160405281019062000046919062000337565b8260069081620000579190620005f3565b50816002819055508060078190555030600160006101000a81548173ffffffffffffffffffffffffffffffffffffffff021916908373ffffffffffffffffffffffffffffffffffffffff160217905550600060038190555060006040518060400160405280600073ffffffffffffffffffffffffffffffffffffffff16815260200160008152509050600a81908060018154018082558091505060019003906000526020600020906002020160009091909190915060008201518160000160006101000a81548173ffffffffffffffffffffffffffffffffffffffff021916908373ffffffffffffffffffffffffffffffffffffffff16021790555060208201518160010155505050505050620006da565b6000604051905090565b600080fd5b600080fd5b600080fd5b600080fd5b6000601f19601f8301169050919050565b7f4e487b7100000000000000000000000000000000000000000000000000000000600052604160045260246000fd5b620001d28262000187565b810181811067ffffffffffffffff82111715620001f457620001f362000198565b5b80604052505050565b60006200020962000169565b9050620002178282620001c7565b919050565b600067ffffffffffffffff8211156200023a576200023962000198565b5b620002458262000187565b9050602081019050919050565b60005b838110156200027257808201518184015260208101905062000255565b60008484015250505050565b6000620002956200028f846200021c565b620001fd565b905082815260208101848484011115620002b457620002b362000182565b5b620002c184828562000252565b509392505050565b600082601f830112620002e157620002e06200017d565b5b8151620002f38482602086016200027e565b91505092915050565b6000819050919050565b6200031181620002fc565b81146200031d57600080fd5b50565b600081519050620003318162000306565b92915050565b60008060006060848603121562000353576200035262000173565b5b600084015167ffffffffffffffff81111562000374576200037362000178565b5b6200038286828701620002c9565b9350506020620003958682870162000320565b9250506040620003a88682870162000320565b9150509250925092565b600081519050919050565b7f4e487b7100000000000000000000000000000000000000000000000000000000600052602260045260246000fd5b600060028204905060018216806200040557607f821691505b6020821081036200041b576200041a620003bd565b5b50919050565b60008190508160005260206000209050919050565b60006020601f8301049050919050565b600082821b905092915050565b600060088302620004857fffffffffffffffffffffffffffffffffffffffffffffffffffffffffffffffff8262000446565b62000491868362000446565b95508019841693508086168417925050509392505050565b6000819050919050565b6000620004d4620004ce620004c884620002fc565b620004a9565b620002fc565b9050919050565b6000819050919050565b620004f083620004b3565b62000508620004ff82620004db565b84845462000453565b825550505050565b600090565b6200051f62000510565b6200052c818484620004e5565b505050565b5b8181101562000554576200054860008262000515565b60018101905062000532565b5050565b601f821115620005a3576200056d8162000421565b620005788462000436565b8101602085101562000588578190505b620005a0620005978562000436565b83018262000531565b50505b505050565b600082821c905092915050565b6000620005c860001984600802620005a8565b1980831691505092915050565b6000620005e38383620005b5565b9150826002028217905092915050565b620005fe82620003b2565b67ffffffffffffffff8111156200061a576200061962000198565b5b620006268254620003ec565b6200063382828562000558565b600060209050601f8311600181146200066b576000841562000656578287015190505b620006628582620005d5565b865550620006d2565b601f1984166200067b8662000421565b60005b82811015620006a5578489015182556001820191506020850194506020810190506200067e565b86831015620006c55784890151620006c1601f891682620005b5565b8355505b6001600288020188555050505b505050505050565b610edf80620006ea6000396000f3fe6080604052600436106100ab5760003560e01c8063beb4696611610064578063beb46966146101bf578063d21e3f61146101ea578063e9bbb04014610215578063f5ec2eed14610252578063f6b4dfb41461027d578063facb4f61146102a8576100e7565b80630a4bcbb1146100ec57806312065fe0146100f657806314468bf6146101215780632a11ced01461012b57806339bb0238146101695780639d1b464a14610194576100e7565b366100e7577f0f3ef8bc414cf2a5097f8cf34b5aaf397684f18f72ef7909239bf3081cf907976040516100dd906108e5565b60405180910390a1005b600080fd5b6100f46102d3565b005b34801561010257600080fd5b5061010b6105ea565b604051610118919061091e565b60405180910390f35b6101296105f2565b005b34801561013757600080fd5b50610152600480360381019061014d919061096a565b61074a565b6040516101609291906109d8565b60405180910390f35b34801561017557600080fd5b5061017e61079e565b60405161018b919061091e565b60405180910390f35b3480156101a057600080fd5b506101a96107a4565b6040516101b6919061091e565b60405180910390f35b3480156101cb57600080fd5b506101d46107aa565b6040516101e1919061091e565b60405180910390f35b3480156101f657600080fd5b506101ff6107b0565b60405161020c919061091e565b60405180910390f35b34801561022157600080fd5b5061023c60048036038101906102379190610a2d565b6107b6565b604051610249919061091e565b60405180910390f35b34801561025e57600080fd5b506102676107ce565b6040516102749190610ad9565b60405180910390f35b34801561028957600080fd5b5061029261085c565b60405161029f9190610afb565b60405180910390f35b3480156102b457600080fd5b506102bd610882565b6040516102ca919061091e565b60405180910390f35b6000670de0b6b3a7640000346102e99190610b74565b90507f0a2c783aa65ba3eedcea15bde05c3e0041e7cc377d17c5a6dc603adfce5e84008160405161031a919061091e565b60405180910390a1600754811461033057600080fd5b60003073ffffffffffffffffffffffffffffffffffffffff166108fc6007549081150290604051600060405180830381858888f193505050509050806103ab576040517f08c379a00000000000000000000000000000000000000000000000000000000081526004016103a290610c17565b60405180910390fd5b7fb83141d06b456f990d9f9acc2507ff1475ecff2869b88a9fbfb059ed7d8bb632816040516103da9190610c52565b60405180910390a1600033905060006002541115610423576002600081548092919061040590610c6d565b91905055506003600081548092919061041d90610c96565b91905055505b6000600960008373ffffffffffffffffffffffffffffffffffffffff1673ffffffffffffffffffffffffffffffffffffffff168152602001908152602001600020540361056857600060405180604001604052808373ffffffffffffffffffffffffffffffffffffffff16815260200160018152509050600a80549050600960008473ffffffffffffffffffffffffffffffffffffffff1673ffffffffffffffffffffffffffffffffffffffff16815260200190815260200160002081905550600a81908060018154018082558091505060019003906000526020600020906002020160009091909190915060008201518160000160006101000a81548173ffffffffffffffffffffffffffffffffffffffff021916908373ffffffffffffffffffffffffffffffffffffffff160217905550602082015181600101555050506105e5565b6001600a600960008473ffffffffffffffffffffffffffffffffffffffff1673ffffffffffffffffffffffffffffffffffffffff16815260200190815260200160002054815481106105bd576105bc610cde565b5b906000526020600020906002020160010160008282546105dd9190610d0d565b925050819055505b505050565b600047905090565b600033905060008173ffffffffffffffffffffffffffffffffffffffff166108fc670de0b6b3a76400006007546106299190610d41565b9081150290604051600060405180830381858888f19350505050905080610685576040517f08c379a000000000000000000000000000000000000000000000000000000000815260040161067c90610df5565b60405180910390fd5b6000600960008473ffffffffffffffffffffffffffffffffffffffff1673ffffffffffffffffffffffffffffffffffffffff168152602001908152602001600020549050600081141580156106ff57506000600a82815481106106eb576106ea610cde565b5b906000526020600020906002020160010154115b61070857600080fd5b6001600a828154811061071e5761071d610cde565b5b9060005260206000209060020201600101600082825461073e9190610e15565b92505081905550505050565b600a818154811061075a57600080fd5b90600052602060002090600202016000915090508060000160009054906101000a900473ffffffffffffffffffffffffffffffffffffffff16908060010154905082565b60035481565b60075481565b60055481565b60045481565b60096020528060005260406000206000915090505481565b600680546107db90610e78565b80601f016020809104026020016040519081016040528092919081815260200182805461080790610e78565b80156108545780601f1061082957610100808354040283529160200191610854565b820191906000526020600020905b81548152906001019060200180831161083757829003601f168201915b505050505081565b600160009054906101000a900473ffffffffffffffffffffffffffffffffffffffff1681565b60025481565b600082825260208201905092915050565b7f52656365697665642074686520616d6f756e7400000000000000000000000000600082015250565b60006108cf601383610888565b91506108da82610899565b602082019050919050565b600060208201905081810360008301526108fe816108c2565b9050919050565b6000819050919050565b61091881610905565b82525050565b6000602082019050610933600083018461090f565b92915050565b600080fd5b61094781610905565b811461095257600080fd5b50565b6000813590506109648161093e565b92915050565b6000602082840312156109805761097f610939565b5b600061098e84828501610955565b91505092915050565b600073ffffffffffffffffffffffffffffffffffffffff82169050919050565b60006109c282610997565b9050919050565b6109d2816109b7565b82525050565b60006040820190506109ed60008301856109c9565b6109fa602083018461090f565b9392505050565b610a0a816109b7565b8114610a1557600080fd5b50565b600081359050610a2781610a01565b92915050565b600060208284031215610a4357610a42610939565b5b6000610a5184828501610a18565b91505092915050565b600081519050919050565b60005b83811015610a83578082015181840152602081019050610a68565b60008484015250505050565b6000601f19601f8301169050919050565b6000610aab82610a5a565b610ab58185610888565b9350610ac5818560208601610a65565b610ace81610a8f565b840191505092915050565b60006020820190508181036000830152610af38184610aa0565b905092915050565b6000602082019050610b1060008301846109c9565b92915050565b7f4e487b7100000000000000000000000000000000000000000000000000000000600052601260045260246000fd5b7f4e487b7100000000000000000000000000000000000000000000000000000000600052601160045260246000fd5b6000610b7f82610905565b9150610b8a83610905565b925082610b9a57610b99610b16565b5b828204905092915050565b7f4e6f742061626c6520746f2072656365697665207061796d656e74206574686560008201527f7273000000000000000000000000000000000000000000000000000000000000602082015250565b6000610c01602283610888565b9150610c0c82610ba5565b604082019050919050565b60006020820190508181036000830152610c3081610bf4565b9050919050565b60008115159050919050565b610c4c81610c37565b82525050565b6000602082019050610c676000830184610c43565b92915050565b6000610c7882610905565b915060008203610c8b57610c8a610b45565b5b600182039050919050565b6000610ca182610905565b91507fffffffffffffffffffffffffffffffffffffffffffffffffffffffffffffffff8203610cd357610cd2610b45565b5b600182019050919050565b7f4e487b7100000000000000000000000000000000000000000000000000000000600052603260045260246000fd5b6000610d1882610905565b9150610d2383610905565b9250828201905080821115610d3b57610d3a610b45565b5b92915050565b6000610d4c82610905565b9150610d5783610905565b9250828202610d6581610905565b91508282048414831517610d7c57610d7b610b45565b5b5092915050565b7f576173206e6f742061626c6520746f2073656e6420746865206574686572732c60008201527f2072657665727465640000000000000000000000000000000000000000000000602082015250565b6000610ddf602983610888565b9150610dea82610d83565b604082019050919050565b60006020820190508181036000830152610e0e81610dd2565b9050919050565b6000610e2082610905565b9150610e2b83610905565b9250828203905081811115610e4357610e42610b45565b5b92915050565b7f4e487b7100000000000000000000000000000000000000000000000000000000600052602260045260246000fd5b60006002820490506001821680610e9057607f821691505b602082108103610ea357610ea2610e49565b5b5091905056fea264697066735822122074099b08a1553f64017eae89b294fa245774e48e20854c1907b3408a753bd75b64736f6c63430008120033",
  "immutableReferences": {},
  "source": "// SPDX-License-Identifier: GPL-3.0\r\n\r\npragma solidity >=0.8.2 <0.9.0;\r\n\r\nstruct Holder {\r\n    address trader_address;\r\n    uint amount;\r\n}\r\n\r\ncontract Stock {\r\n    address private owner;\r\n    address public contractAddress;\r\n    uint public unsold_amount;\r\n    uint public amountInPublic;\r\n    uint public sellOrders = 0;\r\n    uint public buyOrders = 0;\r\n    string public companyName;\r\n    uint public currentPrice = 1;\r\n    address[] transactions;\r\n    mapping(address => uint) public holderIndex;\r\n    Holder[] public holders;\r\n    event something(uint val);\r\n    event printBool(bool val);\r\n    event printString(string val);\r\n\r\n    constructor(string memory _companyName, uint _amount, uint _initialPrice) {\r\n        companyName = _companyName;\r\n        unsold_amount = _amount;\r\n        currentPrice = _initialPrice;\r\n        contractAddress = address(this);\r\n        amountInPublic = 0;\r\n        Holder memory emptyHolder = Holder({\r\n            trader_address: 0x0000000000000000000000000000000000000000,\r\n            amount: 0\r\n        });\r\n        holders.push(emptyHolder);\r\n    }\r\n\r\n    receive() external payable {\r\n        emit printString(\"Received the amount\");\r\n    }\r\n\r\n    function getBalance() public view returns (uint) {\r\n        return address(this).balance;\r\n    }\r\n\r\n    function buyOrder() external payable {\r\n        uint valueSent = msg.value / 1000000000000000000;\r\n        emit something(valueSent);\r\n        require(valueSent == currentPrice);\r\n        bool sent = payable(address(this)).send(currentPrice);\r\n        require(sent, \"Not able to receive payment ethers\");\r\n        emit printBool(sent);\r\n        address _address = msg.sender;\r\n\r\n        if (unsold_amount > 0) {\r\n            unsold_amount--;\r\n            amountInPublic++;\r\n        }\r\n\r\n        if (holderIndex[_address] == 0) {\r\n            Holder memory updatedHolder = Holder({\r\n                trader_address: _address,\r\n                amount: 1\r\n            });\r\n            holderIndex[_address] = holders.length;\r\n            holders.push(updatedHolder);\r\n        } else {\r\n            holders[holderIndex[_address]].amount += 1;\r\n        }\r\n    }\r\n\r\n    function sellOrder() external payable {\r\n        address payable _address = payable(msg.sender);\r\n        bool sent = _address.send(currentPrice * 1 ether);\r\n        require(sent, \"Was not able to send the ethers, reverted\");\r\n        uint index = holderIndex[_address];\r\n        require(index != 0 && holders[index].amount > 0);\r\n        holders[index].amount -= 1;\r\n    }\r\n}\r\n",
  "sourcePath": "E:\\Coding\\Blockchain\\reactStarter\\truffle\\contracts\\Stock.sol",
  "compiler": {
    "name": "solc",
    "version": "0.8.18+commit.87f61d96.Emscripten.clang"
  },
  "schemaVersion": "3.4.13",
  "updatedAt": "2023-04-03T17:21:15.916Z",
  "devdoc": {
    "kind": "dev",
    "methods": {},
    "version": 1
  },
  "userdoc": {
    "kind": "user",
    "methods": {},
    "version": 1
  }
}