{
  "contractName": "Trader",
  "abi": [
    {
      "inputs": [
        {
          "internalType": "string",
          "name": "_name",
          "type": "string"
        },
        {
          "internalType": "address",
          "name": "_address",
          "type": "address"
        }
      ],
      "stateMutability": "nonpayable",
      "type": "constructor"
    },
    {
      "anonymous": false,
      "inputs": [
        {
          "indexed": false,
          "internalType": "string",
          "name": "val",
          "type": "string"
        }
      ],
      "name": "printString",
      "type": "event"
    },
    {
      "anonymous": false,
      "inputs": [
        {
          "indexed": false,
          "internalType": "uint256",
          "name": "val",
          "type": "uint256"
        }
      ],
      "name": "printUint",
      "type": "event"
    },
    {
      "inputs": [],
      "name": "name",
      "outputs": [
        {
          "internalType": "string",
          "name": "",
          "type": "string"
        }
      ],
      "stateMutability": "view",
      "type": "function"
    },
    {
      "inputs": [],
      "name": "owner",
      "outputs": [
        {
          "internalType": "address",
          "name": "",
          "type": "address"
        }
      ],
      "stateMutability": "view",
      "type": "function"
    },
    {
      "inputs": [
        {
          "internalType": "address",
          "name": "",
          "type": "address"
        }
      ],
      "name": "stockIndex",
      "outputs": [
        {
          "internalType": "uint256",
          "name": "",
          "type": "uint256"
        }
      ],
      "stateMutability": "view",
      "type": "function"
    },
    {
      "stateMutability": "payable",
      "type": "receive"
    },
    {
      "inputs": [],
      "name": "getStocks",
      "outputs": [
        {
          "components": [
            {
              "internalType": "string",
              "name": "name",
              "type": "string"
            },
            {
              "internalType": "address",
              "name": "stockAddress",
              "type": "address"
            },
            {
              "internalType": "uint256",
              "name": "amount",
              "type": "uint256"
            }
          ],
          "internalType": "struct Stock[]",
          "name": "",
          "type": "tuple[]"
        }
      ],
      "stateMutability": "view",
      "type": "function"
    },
    {
      "inputs": [
        {
          "internalType": "address",
          "name": "_contractAddress",
          "type": "address"
        }
      ],
      "name": "unsold_amount",
      "outputs": [
        {
          "internalType": "uint256",
          "name": "",
          "type": "uint256"
        }
      ],
      "stateMutability": "view",
      "type": "function"
    },
    {
      "inputs": [
        {
          "internalType": "string",
          "name": "_stockName",
          "type": "string"
        },
        {
          "internalType": "address",
          "name": "_stockAddress",
          "type": "address"
        }
      ],
      "name": "buyOrder",
      "outputs": [],
      "stateMutability": "payable",
      "type": "function"
    },
    {
      "inputs": [
        {
          "internalType": "address",
          "name": "_stockAddress",
          "type": "address"
        }
      ],
      "name": "sellOrder",
      "outputs": [],
      "stateMutability": "payable",
      "type": "function"
    },
    {
      "inputs": [],
      "name": "withdraw",
      "outputs": [],
      "stateMutability": "payable",
      "type": "function"
    }
  ],
  "bytecode": "0x60806040523480156200001157600080fd5b5060405162001e2f38038062001e2f833981810160405281019062000037919062000361565b806000806101000a81548173ffffffffffffffffffffffffffffffffffffffff021916908373ffffffffffffffffffffffffffffffffffffffff160217905550816001908162000088919062000612565b5060036040518060600160405280604051806020016040528060008152508152602001600073ffffffffffffffffffffffffffffffffffffffff1681526020016000815250908060018154018082558091505060019003906000526020600020906003020160009091909190915060008201518160000190816200010d919062000612565b5060208201518160010160006101000a81548173ffffffffffffffffffffffffffffffffffffffff021916908373ffffffffffffffffffffffffffffffffffffffff1602179055506040820151816002015550505050620006f9565b6000604051905090565b600080fd5b600080fd5b600080fd5b600080fd5b6000601f19601f8301169050919050565b7f4e487b7100000000000000000000000000000000000000000000000000000000600052604160045260246000fd5b620001d28262000187565b810181811067ffffffffffffffff82111715620001f457620001f362000198565b5b80604052505050565b60006200020962000169565b9050620002178282620001c7565b919050565b600067ffffffffffffffff8211156200023a576200023962000198565b5b620002458262000187565b9050602081019050919050565b60005b838110156200027257808201518184015260208101905062000255565b60008484015250505050565b6000620002956200028f846200021c565b620001fd565b905082815260208101848484011115620002b457620002b362000182565b5b620002c184828562000252565b509392505050565b600082601f830112620002e157620002e06200017d565b5b8151620002f38482602086016200027e565b91505092915050565b600073ffffffffffffffffffffffffffffffffffffffff82169050919050565b60006200032982620002fc565b9050919050565b6200033b816200031c565b81146200034757600080fd5b50565b6000815190506200035b8162000330565b92915050565b600080604083850312156200037b576200037a62000173565b5b600083015167ffffffffffffffff8111156200039c576200039b62000178565b5b620003aa85828601620002c9565b9250506020620003bd858286016200034a565b9150509250929050565b600081519050919050565b7f4e487b7100000000000000000000000000000000000000000000000000000000600052602260045260246000fd5b600060028204905060018216806200041a57607f821691505b60208210810362000430576200042f620003d2565b5b50919050565b60008190508160005260206000209050919050565b60006020601f8301049050919050565b600082821b905092915050565b6000600883026200049a7fffffffffffffffffffffffffffffffffffffffffffffffffffffffffffffffff826200045b565b620004a686836200045b565b95508019841693508086168417925050509392505050565b6000819050919050565b6000819050919050565b6000620004f3620004ed620004e784620004be565b620004c8565b620004be565b9050919050565b6000819050919050565b6200050f83620004d2565b620005276200051e82620004fa565b84845462000468565b825550505050565b600090565b6200053e6200052f565b6200054b81848462000504565b505050565b5b8181101562000573576200056760008262000534565b60018101905062000551565b5050565b601f821115620005c2576200058c8162000436565b62000597846200044b565b81016020851015620005a7578190505b620005bf620005b6856200044b565b83018262000550565b50505b505050565b600082821c905092915050565b6000620005e760001984600802620005c7565b1980831691505092915050565b6000620006028383620005d4565b9150826002028217905092915050565b6200061d82620003c7565b67ffffffffffffffff81111562000639576200063862000198565b5b62000645825462000401565b6200065282828562000577565b600060209050601f8311600181146200068a576000841562000675578287015190505b620006818582620005f4565b865550620006f1565b601f1984166200069a8662000436565b60005b82811015620006c4578489015182556001820191506020850194506020810190506200069d565b86831015620006e45784890151620006e0601f891682620005d4565b8355505b6001600288020188555050505b505050505050565b61172680620007096000396000f3fe60806040526004361061007f5760003560e01c80638da5cb5b1161004e5780638da5cb5b1461015d578063968f786514610188578063f31ab4c2146101a4578063faf2363e146101e1576100bb565b806306fdde03146100c057806321533ab5146100eb5780633ccfd60b14610116578063499eb88314610120576100bb565b366100bb577f0f3ef8bc414cf2a5097f8cf34b5aaf397684f18f72ef7909239bf3081cf907976040516100b190610cc4565b60405180910390a1005b600080fd5b3480156100cc57600080fd5b506100d56101fd565b6040516100e29190610d63565b60405180910390f35b3480156100f757600080fd5b5061010061028b565b60405161010d9190610f3b565b60405180910390f35b61011e61046a565b005b34801561012c57600080fd5b5061014760048036038101906101429190610f9d565b610598565b6040516101549190610fd9565b60405180910390f35b34801561016957600080fd5b50610172610610565b60405161017f9190611003565b60405180910390f35b6101a2600480360381019061019d9190611153565b610634565b005b3480156101b057600080fd5b506101cb60048036038101906101c69190610f9d565b61095c565b6040516101d89190610fd9565b60405180910390f35b6101fb60048036038101906101f69190610f9d565b610974565b005b6001805461020a906111de565b80601f0160208091040260200160405190810160405280929190818152602001828054610236906111de565b80156102835780601f1061025857610100808354040283529160200191610283565b820191906000526020600020905b81548152906001019060200180831161026657829003601f168201915b505050505081565b606060008054906101000a900473ffffffffffffffffffffffffffffffffffffffff1673ffffffffffffffffffffffffffffffffffffffff163373ffffffffffffffffffffffffffffffffffffffff161461031b576040517f08c379a00000000000000000000000000000000000000000000000000000000081526004016103129061125b565b60405180910390fd5b6003805480602002602001604051908101604052809291908181526020016000905b828210156104615783829060005260206000209060030201604051806060016040529081600082018054610370906111de565b80601f016020809104026020016040519081016040528092919081815260200182805461039c906111de565b80156103e95780601f106103be576101008083540402835291602001916103e9565b820191906000526020600020905b8154815290600101906020018083116103cc57829003601f168201915b505050505081526020016001820160009054906101000a900473ffffffffffffffffffffffffffffffffffffffff1673ffffffffffffffffffffffffffffffffffffffff1673ffffffffffffffffffffffffffffffffffffffff1681526020016002820154815250508152602001906001019061033d565b50505050905090565b60008054906101000a900473ffffffffffffffffffffffffffffffffffffffff1673ffffffffffffffffffffffffffffffffffffffff163373ffffffffffffffffffffffffffffffffffffffff16146104f8576040517f08c379a00000000000000000000000000000000000000000000000000000000081526004016104ef9061125b565b60405180910390fd5b7f75f5e2815b22cabc38a2224bbde1f65300741c8bb05684f90e2e074734eb7c43476040516105279190610fd9565b60405180910390a160008054906101000a900473ffffffffffffffffffffffffffffffffffffffff1673ffffffffffffffffffffffffffffffffffffffff166108fc479081150290604051600060405180830381858888f19350505050158015610595573d6000803e3d6000fd5b50565b60008173ffffffffffffffffffffffffffffffffffffffff1663facb4f616040518163ffffffff1660e01b8152600401602060405180830381865afa1580156105e5573d6000803e3d6000fd5b505050506040513d601f19601f8201168201806040525081019061060991906112a7565b9050919050565b60008054906101000a900473ffffffffffffffffffffffffffffffffffffffff1681565b60008054906101000a900473ffffffffffffffffffffffffffffffffffffffff1673ffffffffffffffffffffffffffffffffffffffff163373ffffffffffffffffffffffffffffffffffffffff16146106c2576040517f08c379a00000000000000000000000000000000000000000000000000000000081526004016106b99061125b565b60405180910390fd5b8073ffffffffffffffffffffffffffffffffffffffff16630a4bcbb1346040518263ffffffff1660e01b81526004016000604051808303818588803b15801561070a57600080fd5b505af115801561071e573d6000803e3d6000fd5b50505050506000600260008373ffffffffffffffffffffffffffffffffffffffff1673ffffffffffffffffffffffffffffffffffffffff168152602001908152602001600020540361087e57600380549050600260008373ffffffffffffffffffffffffffffffffffffffff1673ffffffffffffffffffffffffffffffffffffffff16815260200190815260200160002081905550600360405180606001604052808481526020018373ffffffffffffffffffffffffffffffffffffffff1681526020016001815250908060018154018082558091505060019003906000526020600020906003020160009091909190915060008201518160000190816108259190611480565b5060208201518160010160006101000a81548173ffffffffffffffffffffffffffffffffffffffff021916908373ffffffffffffffffffffffffffffffffffffffff160217905550604082015181600201555050610958565b60016003600260008473ffffffffffffffffffffffffffffffffffffffff1673ffffffffffffffffffffffffffffffffffffffff16815260200190815260200160002054815481106108d3576108d2611552565b5b9060005260206000209060030201600201546108ef91906115b0565b6003600260008473ffffffffffffffffffffffffffffffffffffffff1673ffffffffffffffffffffffffffffffffffffffff168152602001908152602001600020548154811061094257610941611552565b5b9060005260206000209060030201600201819055505b5050565b60026020528060005260406000206000915090505481565b60008054906101000a900473ffffffffffffffffffffffffffffffffffffffff1673ffffffffffffffffffffffffffffffffffffffff163373ffffffffffffffffffffffffffffffffffffffff1614610a02576040517f08c379a00000000000000000000000000000000000000000000000000000000081526004016109f99061125b565b60405180910390fd5b6000600260008373ffffffffffffffffffffffffffffffffffffffff1673ffffffffffffffffffffffffffffffffffffffff1681526020019081526020016000205403610a84576040517f08c379a0000000000000000000000000000000000000000000000000000000008152600401610a7b90611630565b60405180910390fd5b60006003600260008473ffffffffffffffffffffffffffffffffffffffff1673ffffffffffffffffffffffffffffffffffffffff1681526020019081526020016000205481548110610ad957610ad8611552565b5b90600052602060002090600302016002015411610b2b576040517f08c379a0000000000000000000000000000000000000000000000000000000008152600401610b229061169c565b60405180910390fd5b8073ffffffffffffffffffffffffffffffffffffffff166314468bf66040518163ffffffff1660e01b8152600401600060405180830381600087803b158015610b7357600080fd5b505af1158015610b87573d6000803e3d6000fd5b5050505060016003600260008473ffffffffffffffffffffffffffffffffffffffff1673ffffffffffffffffffffffffffffffffffffffff1681526020019081526020016000205481548110610be057610bdf611552565b5b906000526020600020906003020160020154610bfc91906116bc565b6003600260008473ffffffffffffffffffffffffffffffffffffffff1673ffffffffffffffffffffffffffffffffffffffff1681526020019081526020016000205481548110610c4f57610c4e611552565b5b90600052602060002090600302016002018190555050565b600082825260208201905092915050565b7f52656365697665642074686520616d6f756e7400000000000000000000000000600082015250565b6000610cae601383610c67565b9150610cb982610c78565b602082019050919050565b60006020820190508181036000830152610cdd81610ca1565b9050919050565b600081519050919050565b60005b83811015610d0d578082015181840152602081019050610cf2565b60008484015250505050565b6000601f19601f8301169050919050565b6000610d3582610ce4565b610d3f8185610c67565b9350610d4f818560208601610cef565b610d5881610d19565b840191505092915050565b60006020820190508181036000830152610d7d8184610d2a565b905092915050565b600081519050919050565b600082825260208201905092915050565b6000819050602082019050919050565b600082825260208201905092915050565b6000610dcd82610ce4565b610dd78185610db1565b9350610de7818560208601610cef565b610df081610d19565b840191505092915050565b600073ffffffffffffffffffffffffffffffffffffffff82169050919050565b6000610e2682610dfb565b9050919050565b610e3681610e1b565b82525050565b6000819050919050565b610e4f81610e3c565b82525050565b60006060830160008301518482036000860152610e728282610dc2565b9150506020830151610e876020860182610e2d565b506040830151610e9a6040860182610e46565b508091505092915050565b6000610eb18383610e55565b905092915050565b6000602082019050919050565b6000610ed182610d85565b610edb8185610d90565b935083602082028501610eed85610da1565b8060005b85811015610f295784840389528151610f0a8582610ea5565b9450610f1583610eb9565b925060208a01995050600181019050610ef1565b50829750879550505050505092915050565b60006020820190508181036000830152610f558184610ec6565b905092915050565b6000604051905090565b600080fd5b600080fd5b610f7a81610e1b565b8114610f8557600080fd5b50565b600081359050610f9781610f71565b92915050565b600060208284031215610fb357610fb2610f67565b5b6000610fc184828501610f88565b91505092915050565b610fd381610e3c565b82525050565b6000602082019050610fee6000830184610fca565b92915050565b610ffd81610e1b565b82525050565b60006020820190506110186000830184610ff4565b92915050565b600080fd5b600080fd5b7f4e487b7100000000000000000000000000000000000000000000000000000000600052604160045260246000fd5b61106082610d19565b810181811067ffffffffffffffff8211171561107f5761107e611028565b5b80604052505050565b6000611092610f5d565b905061109e8282611057565b919050565b600067ffffffffffffffff8211156110be576110bd611028565b5b6110c782610d19565b9050602081019050919050565b82818337600083830152505050565b60006110f66110f1846110a3565b611088565b90508281526020810184848401111561111257611111611023565b5b61111d8482856110d4565b509392505050565b600082601f83011261113a5761113961101e565b5b813561114a8482602086016110e3565b91505092915050565b6000806040838503121561116a57611169610f67565b5b600083013567ffffffffffffffff81111561118857611187610f6c565b5b61119485828601611125565b92505060206111a585828601610f88565b9150509250929050565b7f4e487b7100000000000000000000000000000000000000000000000000000000600052602260045260246000fd5b600060028204905060018216806111f657607f821691505b602082108103611209576112086111af565b5b50919050565b7f4f776e6572204f6e6c7900000000000000000000000000000000000000000000600082015250565b6000611245600a83610c67565b91506112508261120f565b602082019050919050565b6000602082019050818103600083015261127481611238565b9050919050565b61128481610e3c565b811461128f57600080fd5b50565b6000815190506112a18161127b565b92915050565b6000602082840312156112bd576112bc610f67565b5b60006112cb84828501611292565b91505092915050565b60008190508160005260206000209050919050565b60006020601f8301049050919050565b600082821b905092915050565b6000600883026113367fffffffffffffffffffffffffffffffffffffffffffffffffffffffffffffffff826112f9565b61134086836112f9565b95508019841693508086168417925050509392505050565b6000819050919050565b600061137d61137861137384610e3c565b611358565b610e3c565b9050919050565b6000819050919050565b61139783611362565b6113ab6113a382611384565b848454611306565b825550505050565b600090565b6113c06113b3565b6113cb81848461138e565b505050565b5b818110156113ef576113e46000826113b8565b6001810190506113d1565b5050565b601f82111561143457611405816112d4565b61140e846112e9565b8101602085101561141d578190505b611431611429856112e9565b8301826113d0565b50505b505050565b600082821c905092915050565b600061145760001984600802611439565b1980831691505092915050565b60006114708383611446565b9150826002028217905092915050565b61148982610ce4565b67ffffffffffffffff8111156114a2576114a1611028565b5b6114ac82546111de565b6114b78282856113f3565b600060209050601f8311600181146114ea57600084156114d8578287015190505b6114e28582611464565b86555061154a565b601f1984166114f8866112d4565b60005b82811015611520578489015182556001820191506020850194506020810190506114fb565b8683101561153d5784890151611539601f891682611446565b8355505b6001600288020188555050505b505050505050565b7f4e487b7100000000000000000000000000000000000000000000000000000000600052603260045260246000fd5b7f4e487b7100000000000000000000000000000000000000000000000000000000600052601160045260246000fd5b60006115bb82610e3c565b91506115c683610e3c565b92508282019050808211156115de576115dd611581565b5b92915050565b7f596f7520646f6e74206861766520746869732073746f636b2e00000000000000600082015250565b600061161a601983610c67565b9150611625826115e4565b602082019050919050565b600060208201905081810360008301526116498161160d565b9050919050565b7f596f752068617665203020616d6f756e74206f6620746869732053746f636b2e600082015250565b6000611686602083610c67565b915061169182611650565b602082019050919050565b600060208201905081810360008301526116b581611679565b9050919050565b60006116c782610e3c565b91506116d283610e3c565b92508282039050818111156116ea576116e9611581565b5b9291505056fea2646970667358221220641b1b6947605670d5d12e06893d9874e6b5d64baf76a91545de96f1e6cfc71764736f6c63430008120033",
  "immutableReferences": {},
  "source": "//SPDX-License// SPDX-License-Identifier: GPL-3.0\r\n\r\npragma solidity >=0.8.2 <0.9.0;\r\n\r\ninterface StockInterface {\r\n    function buyOrder() external payable;\r\n\r\n    function sellOrder() external payable;\r\n\r\n    function unsold_amount() external view returns (uint);\r\n}\r\n\r\nstruct Stock {\r\n    string name;\r\n    address stockAddress;\r\n    uint amount;\r\n}\r\n\r\n// struct BuyTransaction {\r\n//         address stockid;\r\n//         uint256 buyprice;\r\n//         uint256 amount;\r\n//         uint256 timestamp;\r\n//         uint256 transactionid;\r\n//     }\r\n// struct SellTransaction {\r\n//         address stockid;\r\n//         uint256 sellprice;\r\n//         uint256 amount;\r\n//         uint256 timestamp;\r\n//         uint256 transactionid;\r\n//     }\r\n// struct CurrentTransaction {\r\n//         address stockid;\r\n//         uint256 amount;\r\n//     }\r\n\r\ncontract Trader {\r\n    address public owner;\r\n    string public name;\r\n    mapping(address => uint) public stockIndex;\r\n    Stock[] stocks;\r\n\r\n    event printString(string val);\r\n    event printUint(uint val);\r\n\r\n    modifier restricted() {\r\n        require(msg.sender == owner, \"Owner Only\");\r\n        _;\r\n    }\r\n\r\n    \r\n\r\n    constructor(string memory _name, address _address) {\r\n        owner = _address;\r\n        name = _name;\r\n        stocks.push(Stock({name: \"\", stockAddress: address(0), amount: 0}));\r\n    }\r\n\r\n    // SellTransaction[] public sellTransact;\r\n    // BuyTransaction[] public buyTransact;\r\n    // CurrentTransaction[] public currentTransact;\r\n\r\n    receive() external payable {\r\n        emit printString(\"Received the amount\");\r\n    }\r\n\r\n    // function pushSellDetials(address _stockid,uint256 _sellprice,uint256 _amount,uint256 _timestamp,uint256 _transactionid)public{\r\n    //     sellTransact.push(SellTransaction(_stockid,_sellprice,_amount,_timestamp,_transactionid));\r\n    // }\r\n\r\n    // function retreiveBuyDetails(address _stockid,uint256 _buyprice,uint256 _amount,uint256 _timestamp,uint256 _transactionid)public{\r\n    //     buyTransact.push(BuyTransaction(_stockid,_buyprice,_amount,_timestamp,_transactionid));\r\n    // }\r\n\r\n    // function retriveCurrentDetails(address _stockid,uint256 _amount)public{\r\n    //     currentTransact.push(CurrentTransaction(_stockid,_amount));\r\n    // }\r\n\r\n    // function getStocks(uint _index) view public returns(Stock memory){\r\n    //     return stocks[_index];\r\n    // }\r\n    function getStocks() view public restricted returns(Stock[] memory){\r\n        return stocks;\r\n    }\r\n\r\n    function unsold_amount(\r\n        address _contractAddress\r\n    ) public view returns (uint) {\r\n        return StockInterface(_contractAddress).unsold_amount();\r\n    }\r\n\r\n    function buyOrder(\r\n        string memory _stockName,\r\n        address _stockAddress\r\n    ) external payable restricted {\r\n        StockInterface(_stockAddress).buyOrder{value: msg.value}();\r\n        if (stockIndex[_stockAddress] == 0) {\r\n            stockIndex[_stockAddress] = stocks.length;\r\n            stocks.push(\r\n                Stock({\r\n                    name: _stockName,\r\n                    stockAddress: _stockAddress,\r\n                    amount: 1\r\n                })\r\n            );\r\n        } else {\r\n            stocks[stockIndex[_stockAddress]].amount =\r\n                stocks[stockIndex[_stockAddress]].amount +\r\n                1;\r\n        }\r\n    }\r\n\r\n    function sellOrder(address _stockAddress) external payable restricted {\r\n        require(stockIndex[_stockAddress] != 0, \"You dont have this stock.\");\r\n        require(stocks[stockIndex[_stockAddress]].amount > 0, \"You have 0 amount of this Stock.\");\r\n        StockInterface(_stockAddress).sellOrder();\r\n        stocks[stockIndex[_stockAddress]].amount = stocks[stockIndex[_stockAddress]].amount - 1;\r\n    }\r\n\r\n    function withdraw() external payable restricted {\r\n        emit printUint(address(this).balance);\r\n        payable(owner).transfer(address(this).balance);\r\n    }\r\n}\r\n",
  "sourcePath": "E:\\Coding\\Blockchain\\reactStarter\\truffle\\contracts\\Trader.sol",
  "compiler": {
    "name": "solc",
    "version": "0.8.18+commit.87f61d96.Emscripten.clang"
  },
  "schemaVersion": "3.4.13",
  "updatedAt": "2023-04-10T06:02:39.398Z",
  "devdoc": {
    "kind": "dev",
    "methods": {},
    "version": 1
  },
  "userdoc": {
    "kind": "user",
    "methods": {},
    "version": 1
  }
}