{
  "contractName": "Trader",
  "abi": [
    {
      "inputs": [
        {
          "internalType": "string",
          "name": "_name",
          "type": "string"
        },
        {
          "internalType": "address",
          "name": "_address",
          "type": "address"
        }
      ],
      "stateMutability": "nonpayable",
      "type": "constructor"
    },
    {
      "anonymous": false,
      "inputs": [
        {
          "indexed": false,
          "internalType": "string",
          "name": "val",
          "type": "string"
        }
      ],
      "name": "printString",
      "type": "event"
    },
    {
      "anonymous": false,
      "inputs": [
        {
          "indexed": false,
          "internalType": "uint256",
          "name": "val",
          "type": "uint256"
        }
      ],
      "name": "printUint",
      "type": "event"
    },
    {
      "inputs": [],
      "name": "buyOrders",
      "outputs": [
        {
          "internalType": "uint256",
          "name": "",
          "type": "uint256"
        }
      ],
      "stateMutability": "view",
      "type": "function"
    },
    {
      "inputs": [
        {
          "internalType": "uint256",
          "name": "",
          "type": "uint256"
        }
      ],
      "name": "buyTransact",
      "outputs": [
        {
          "internalType": "address",
          "name": "stockid",
          "type": "address"
        },
        {
          "internalType": "uint256",
          "name": "buyprice",
          "type": "uint256"
        },
        {
          "internalType": "uint256",
          "name": "amount",
          "type": "uint256"
        },
        {
          "internalType": "uint256",
          "name": "timestamp",
          "type": "uint256"
        },
        {
          "internalType": "uint256",
          "name": "transactionid",
          "type": "uint256"
        }
      ],
      "stateMutability": "view",
      "type": "function"
    },
    {
      "inputs": [
        {
          "internalType": "uint256",
          "name": "",
          "type": "uint256"
        }
      ],
      "name": "currentTransact",
      "outputs": [
        {
          "internalType": "address",
          "name": "stockid",
          "type": "address"
        },
        {
          "internalType": "uint256",
          "name": "amount",
          "type": "uint256"
        }
      ],
      "stateMutability": "view",
      "type": "function"
    },
    {
      "inputs": [],
      "name": "metamaskid",
      "outputs": [
        {
          "internalType": "address",
          "name": "",
          "type": "address"
        }
      ],
      "stateMutability": "view",
      "type": "function"
    },
    {
      "inputs": [],
      "name": "name",
      "outputs": [
        {
          "internalType": "string",
          "name": "",
          "type": "string"
        }
      ],
      "stateMutability": "view",
      "type": "function"
    },
    {
      "inputs": [],
      "name": "owner",
      "outputs": [
        {
          "internalType": "address",
          "name": "",
          "type": "address"
        }
      ],
      "stateMutability": "view",
      "type": "function"
    },
    {
      "inputs": [],
      "name": "sellOrders",
      "outputs": [
        {
          "internalType": "uint256",
          "name": "",
          "type": "uint256"
        }
      ],
      "stateMutability": "view",
      "type": "function"
    },
    {
      "inputs": [
        {
          "internalType": "uint256",
          "name": "",
          "type": "uint256"
        }
      ],
      "name": "sellTransact",
      "outputs": [
        {
          "internalType": "address",
          "name": "stockid",
          "type": "address"
        },
        {
          "internalType": "uint256",
          "name": "sellprice",
          "type": "uint256"
        },
        {
          "internalType": "uint256",
          "name": "amount",
          "type": "uint256"
        },
        {
          "internalType": "uint256",
          "name": "timestamp",
          "type": "uint256"
        },
        {
          "internalType": "uint256",
          "name": "transactionid",
          "type": "uint256"
        }
      ],
      "stateMutability": "view",
      "type": "function"
    },
    {
      "stateMutability": "payable",
      "type": "receive"
    },
    {
      "inputs": [
        {
          "internalType": "address",
          "name": "_stockid",
          "type": "address"
        },
        {
          "internalType": "uint256",
          "name": "_sellprice",
          "type": "uint256"
        },
        {
          "internalType": "uint256",
          "name": "_amount",
          "type": "uint256"
        },
        {
          "internalType": "uint256",
          "name": "_timestamp",
          "type": "uint256"
        },
        {
          "internalType": "uint256",
          "name": "_transactionid",
          "type": "uint256"
        }
      ],
      "name": "pushSellDetials",
      "outputs": [],
      "stateMutability": "nonpayable",
      "type": "function"
    },
    {
      "inputs": [
        {
          "internalType": "address",
          "name": "_stockid",
          "type": "address"
        },
        {
          "internalType": "uint256",
          "name": "_buyprice",
          "type": "uint256"
        },
        {
          "internalType": "uint256",
          "name": "_amount",
          "type": "uint256"
        },
        {
          "internalType": "uint256",
          "name": "_timestamp",
          "type": "uint256"
        },
        {
          "internalType": "uint256",
          "name": "_transactionid",
          "type": "uint256"
        }
      ],
      "name": "retreiveBuyDetails",
      "outputs": [],
      "stateMutability": "nonpayable",
      "type": "function"
    },
    {
      "inputs": [
        {
          "internalType": "address",
          "name": "_stockid",
          "type": "address"
        },
        {
          "internalType": "uint256",
          "name": "_amount",
          "type": "uint256"
        }
      ],
      "name": "retriveCurrentDetails",
      "outputs": [],
      "stateMutability": "nonpayable",
      "type": "function"
    },
    {
      "inputs": [
        {
          "internalType": "address",
          "name": "_contractAddress",
          "type": "address"
        }
      ],
      "name": "unsold_amount",
      "outputs": [
        {
          "internalType": "uint256",
          "name": "",
          "type": "uint256"
        }
      ],
      "stateMutability": "view",
      "type": "function"
    },
    {
      "inputs": [
        {
          "internalType": "address",
          "name": "_contractAddress",
          "type": "address"
        }
      ],
      "name": "buyOrder",
      "outputs": [],
      "stateMutability": "payable",
      "type": "function"
    },
    {
      "inputs": [
        {
          "internalType": "address",
          "name": "_contractAddress",
          "type": "address"
        }
      ],
      "name": "sellOrder",
      "outputs": [],
      "stateMutability": "payable",
      "type": "function"
    },
    {
      "inputs": [],
      "name": "withdraw",
      "outputs": [],
      "stateMutability": "payable",
      "type": "function"
    }
  ],
  "bytecode": "0x6080604052600060015560006002553480156200001b57600080fd5b506040516200177a3803806200177a833981810160405281019062000041919062000293565b806000806101000a81548173ffffffffffffffffffffffffffffffffffffffff021916908373ffffffffffffffffffffffffffffffffffffffff160217905550816007908162000092919062000544565b5050506200062b565b6000604051905090565b600080fd5b600080fd5b600080fd5b600080fd5b6000601f19601f8301169050919050565b7f4e487b7100000000000000000000000000000000000000000000000000000000600052604160045260246000fd5b6200010482620000b9565b810181811067ffffffffffffffff82111715620001265762000125620000ca565b5b80604052505050565b60006200013b6200009b565b9050620001498282620000f9565b919050565b600067ffffffffffffffff8211156200016c576200016b620000ca565b5b6200017782620000b9565b9050602081019050919050565b60005b83811015620001a457808201518184015260208101905062000187565b60008484015250505050565b6000620001c7620001c1846200014e565b6200012f565b905082815260208101848484011115620001e657620001e5620000b4565b5b620001f384828562000184565b509392505050565b600082601f830112620002135762000212620000af565b5b815162000225848260208601620001b0565b91505092915050565b600073ffffffffffffffffffffffffffffffffffffffff82169050919050565b60006200025b826200022e565b9050919050565b6200026d816200024e565b81146200027957600080fd5b50565b6000815190506200028d8162000262565b92915050565b60008060408385031215620002ad57620002ac620000a5565b5b600083015167ffffffffffffffff811115620002ce57620002cd620000aa565b5b620002dc85828601620001fb565b9250506020620002ef858286016200027c565b9150509250929050565b600081519050919050565b7f4e487b7100000000000000000000000000000000000000000000000000000000600052602260045260246000fd5b600060028204905060018216806200034c57607f821691505b60208210810362000362576200036162000304565b5b50919050565b60008190508160005260206000209050919050565b60006020601f8301049050919050565b600082821b905092915050565b600060088302620003cc7fffffffffffffffffffffffffffffffffffffffffffffffffffffffffffffffff826200038d565b620003d886836200038d565b95508019841693508086168417925050509392505050565b6000819050919050565b6000819050919050565b6000620004256200041f6200041984620003f0565b620003fa565b620003f0565b9050919050565b6000819050919050565b620004418362000404565b6200045962000450826200042c565b8484546200039a565b825550505050565b600090565b6200047062000461565b6200047d81848462000436565b505050565b5b81811015620004a5576200049960008262000466565b60018101905062000483565b5050565b601f821115620004f457620004be8162000368565b620004c9846200037d565b81016020851015620004d9578190505b620004f1620004e8856200037d565b83018262000482565b50505b505050565b600082821c905092915050565b60006200051960001984600802620004f9565b1980831691505092915050565b600062000534838362000506565b9150826002028217905092915050565b6200054f82620002f9565b67ffffffffffffffff8111156200056b576200056a620000ca565b5b62000577825462000333565b62000584828285620004a9565b600060209050601f831160018114620005bc5760008415620005a7578287015190505b620005b3858262000526565b86555062000623565b601f198416620005cc8662000368565b60005b82811015620005f657848901518255600182019150602085019450602081019050620005cf565b8683101562000616578489015162000612601f89168262000506565b8355505b6001600288020188555050505b505050505050565b61113f806200063b6000396000f3fe6080604052600436106100ec5760003560e01c80636a0408a81161008a578063c13c4ebd11610059578063c13c4ebd146102f5578063d21e3f6114610336578063f494a45114610361578063faf2363e146103a257610128565b80636a0408a81461024d5780638da5cb5b146102765780639b8b36d1146102a1578063beb46966146102ca57610128565b8063499eb883116100c6578063499eb8831461018b5780635c2c2aba146101c857806361c03b6f146101f3578063658854061461020f57610128565b806306fdde031461012d57806316bdb453146101585780633ccfd60b1461018157610128565b36610128577f0f3ef8bc414cf2a5097f8cf34b5aaf397684f18f72ef7909239bf3081cf9079760405161011e90610c45565b60405180910390a1005b600080fd5b34801561013957600080fd5b506101426103be565b60405161014f9190610ce4565b60405180910390f35b34801561016457600080fd5b5061017f600480360381019061017a9190610d9f565b61044c565b005b6101896104f9565b005b34801561019757600080fd5b506101b260048036038101906101ad9190610ddf565b610627565b6040516101bf9190610e1b565b60405180910390f35b3480156101d457600080fd5b506101dd61069f565b6040516101ea9190610e45565b60405180910390f35b61020d60048036038101906102089190610ddf565b6106c5565b005b34801561021b57600080fd5b5061023660048036038101906102319190610e60565b6107cf565b604051610244929190610e8d565b60405180910390f35b34801561025957600080fd5b50610274600480360381019061026f9190610eb6565b610823565b005b34801561028257600080fd5b5061028b610903565b6040516102989190610e45565b60405180910390f35b3480156102ad57600080fd5b506102c860048036038101906102c39190610eb6565b610927565b005b3480156102d657600080fd5b506102df610a07565b6040516102ec9190610e1b565b60405180910390f35b34801561030157600080fd5b5061031c60048036038101906103179190610e60565b610a0d565b60405161032d959493929190610f31565b60405180910390f35b34801561034257600080fd5b5061034b610a73565b6040516103589190610e1b565b60405180910390f35b34801561036d57600080fd5b5061038860048036038101906103839190610e60565b610a79565b604051610399959493929190610f31565b60405180910390f35b6103bc60048036038101906103b79190610ddf565b610adf565b005b600780546103cb90610fb3565b80601f01602080910402602001604051908101604052809291908181526020018280546103f790610fb3565b80156104445780601f1061041957610100808354040283529160200191610444565b820191906000526020600020905b81548152906001019060200180831161042757829003601f168201915b505050505081565b600560405180604001604052808473ffffffffffffffffffffffffffffffffffffffff16815260200183815250908060018154018082558091505060019003906000526020600020906002020160009091909190915060008201518160000160006101000a81548173ffffffffffffffffffffffffffffffffffffffff021916908373ffffffffffffffffffffffffffffffffffffffff1602179055506020820151816001015550505050565b60008054906101000a900473ffffffffffffffffffffffffffffffffffffffff1673ffffffffffffffffffffffffffffffffffffffff163373ffffffffffffffffffffffffffffffffffffffff1614610587576040517f08c379a000000000000000000000000000000000000000000000000000000000815260040161057e90611030565b60405180910390fd5b7f75f5e2815b22cabc38a2224bbde1f65300741c8bb05684f90e2e074734eb7c43476040516105b69190610e1b565b60405180910390a160008054906101000a900473ffffffffffffffffffffffffffffffffffffffff1673ffffffffffffffffffffffffffffffffffffffff166108fc479081150290604051600060405180830381858888f19350505050158015610624573d6000803e3d6000fd5b50565b60008173ffffffffffffffffffffffffffffffffffffffff1663facb4f616040518163ffffffff1660e01b8152600401602060405180830381865afa158015610674573d6000803e3d6000fd5b505050506040513d601f19601f820116820180604052508101906106989190611065565b9050919050565b600660009054906101000a900473ffffffffffffffffffffffffffffffffffffffff1681565b60008054906101000a900473ffffffffffffffffffffffffffffffffffffffff1673ffffffffffffffffffffffffffffffffffffffff163373ffffffffffffffffffffffffffffffffffffffff1614610753576040517f08c379a000000000000000000000000000000000000000000000000000000000815260040161074a90611030565b60405180910390fd5b8073ffffffffffffffffffffffffffffffffffffffff16630a4bcbb1346040518263ffffffff1660e01b81526004016000604051808303818588803b15801561079b57600080fd5b505af11580156107af573d6000803e3d6000fd5b5050505050600260008154809291906107c7906110c1565b919050555050565b600581815481106107df57600080fd5b90600052602060002090600202016000915090508060000160009054906101000a900473ffffffffffffffffffffffffffffffffffffffff16908060010154905082565b60046040518060a001604052808773ffffffffffffffffffffffffffffffffffffffff16815260200186815260200185815260200184815260200183815250908060018154018082558091505060019003906000526020600020906005020160009091909190915060008201518160000160006101000a81548173ffffffffffffffffffffffffffffffffffffffff021916908373ffffffffffffffffffffffffffffffffffffffff1602179055506020820151816001015560408201518160020155606082015181600301556080820151816004015550505050505050565b60008054906101000a900473ffffffffffffffffffffffffffffffffffffffff1681565b60036040518060a001604052808773ffffffffffffffffffffffffffffffffffffffff16815260200186815260200185815260200184815260200183815250908060018154018082558091505060019003906000526020600020906005020160009091909190915060008201518160000160006101000a81548173ffffffffffffffffffffffffffffffffffffffff021916908373ffffffffffffffffffffffffffffffffffffffff1602179055506020820151816001015560408201518160020155606082015181600301556080820151816004015550505050505050565b60025481565b60048181548110610a1d57600080fd5b90600052602060002090600502016000915090508060000160009054906101000a900473ffffffffffffffffffffffffffffffffffffffff16908060010154908060020154908060030154908060040154905085565b60015481565b60038181548110610a8957600080fd5b90600052602060002090600502016000915090508060000160009054906101000a900473ffffffffffffffffffffffffffffffffffffffff16908060010154908060020154908060030154908060040154905085565b60008054906101000a900473ffffffffffffffffffffffffffffffffffffffff1673ffffffffffffffffffffffffffffffffffffffff163373ffffffffffffffffffffffffffffffffffffffff1614610b6d576040517f08c379a0000000000000000000000000000000000000000000000000000000008152600401610b6490611030565b60405180910390fd5b8073ffffffffffffffffffffffffffffffffffffffff166314468bf66040518163ffffffff1660e01b8152600401600060405180830381600087803b158015610bb557600080fd5b505af1158015610bc9573d6000803e3d6000fd5b5050505060016000815480929190610be0906110c1565b919050555050565b600082825260208201905092915050565b7f52656365697665642074686520616d6f756e7400000000000000000000000000600082015250565b6000610c2f601383610be8565b9150610c3a82610bf9565b602082019050919050565b60006020820190508181036000830152610c5e81610c22565b9050919050565b600081519050919050565b60005b83811015610c8e578082015181840152602081019050610c73565b60008484015250505050565b6000601f19601f8301169050919050565b6000610cb682610c65565b610cc08185610be8565b9350610cd0818560208601610c70565b610cd981610c9a565b840191505092915050565b60006020820190508181036000830152610cfe8184610cab565b905092915050565b600080fd5b600073ffffffffffffffffffffffffffffffffffffffff82169050919050565b6000610d3682610d0b565b9050919050565b610d4681610d2b565b8114610d5157600080fd5b50565b600081359050610d6381610d3d565b92915050565b6000819050919050565b610d7c81610d69565b8114610d8757600080fd5b50565b600081359050610d9981610d73565b92915050565b60008060408385031215610db657610db5610d06565b5b6000610dc485828601610d54565b9250506020610dd585828601610d8a565b9150509250929050565b600060208284031215610df557610df4610d06565b5b6000610e0384828501610d54565b91505092915050565b610e1581610d69565b82525050565b6000602082019050610e306000830184610e0c565b92915050565b610e3f81610d2b565b82525050565b6000602082019050610e5a6000830184610e36565b92915050565b600060208284031215610e7657610e75610d06565b5b6000610e8484828501610d8a565b91505092915050565b6000604082019050610ea26000830185610e36565b610eaf6020830184610e0c565b9392505050565b600080600080600060a08688031215610ed257610ed1610d06565b5b6000610ee088828901610d54565b9550506020610ef188828901610d8a565b9450506040610f0288828901610d8a565b9350506060610f1388828901610d8a565b9250506080610f2488828901610d8a565b9150509295509295909350565b600060a082019050610f466000830188610e36565b610f536020830187610e0c565b610f606040830186610e0c565b610f6d6060830185610e0c565b610f7a6080830184610e0c565b9695505050505050565b7f4e487b7100000000000000000000000000000000000000000000000000000000600052602260045260246000fd5b60006002820490506001821680610fcb57607f821691505b602082108103610fde57610fdd610f84565b5b50919050565b7f4f776e6572204f6e6c7900000000000000000000000000000000000000000000600082015250565b600061101a600a83610be8565b915061102582610fe4565b602082019050919050565b600060208201905081810360008301526110498161100d565b9050919050565b60008151905061105f81610d73565b92915050565b60006020828403121561107b5761107a610d06565b5b600061108984828501611050565b91505092915050565b7f4e487b7100000000000000000000000000000000000000000000000000000000600052601160045260246000fd5b60006110cc82610d69565b91507fffffffffffffffffffffffffffffffffffffffffffffffffffffffffffffffff82036110fe576110fd611092565b5b60018201905091905056fea2646970667358221220b3403686eea49006d074143706507c3fd4660c42134e3c33f3e3dea25cf6a7ee64736f6c63430008120033",
  "immutableReferences": {},
  "source": "//SPDX-License// SPDX-License-Identifier: GPL-3.0\r\n\r\npragma solidity >=0.8.2 < 0.9.0;\r\n\r\n\r\ninterface StockInterface{\r\n    function buyOrder() external payable;\r\n    function sellOrder() external payable;\r\n    function unsold_amount() view external returns(uint);\r\n}\r\n\r\nstruct BuyTransaction {\r\n        address stockid;\r\n        uint256 buyprice;\r\n        uint256 amount;\r\n        uint256 timestamp;\r\n        uint256 transactionid;\r\n    }\r\nstruct SellTransaction {\r\n        address stockid;\r\n        uint256 sellprice;\r\n        uint256 amount;\r\n        uint256 timestamp;\r\n        uint256 transactionid;\r\n    }\r\nstruct CurrentTransaction {\r\n        address stockid;\r\n        uint256 amount;\r\n    }\r\n\r\ncontract Trader {\r\n    address public owner;\r\n    uint public sellOrders = 0;\r\n    uint public buyOrders = 0;\r\n    \r\n    modifier restricted() {\r\n        require(msg.sender == owner,\"Owner Only\");\r\n        _;\r\n    }\r\n\r\n    constructor(string memory _name,address _address) {\r\n        owner = _address;\r\n        name = _name;\r\n    }\r\n\r\n    SellTransaction[] public sellTransact;\r\n    BuyTransaction[] public buyTransact;\r\n    CurrentTransaction[] public currentTransact;\r\n\r\n    address public metamaskid;\r\n    string public name; \r\n    \r\n    event printString(string val);\r\n    event printUint(uint val);\r\n\r\n    receive() payable external {\r\n        emit printString(\"Received the amount\");\r\n    }\r\n\r\n    function pushSellDetials(address _stockid,uint256 _sellprice,uint256 _amount,uint256 _timestamp,uint256 _transactionid)public{\r\n        sellTransact.push(SellTransaction(_stockid,_sellprice,_amount,_timestamp,_transactionid));\r\n    }\r\n\r\n    function retreiveBuyDetails(address _stockid,uint256 _buyprice,uint256 _amount,uint256 _timestamp,uint256 _transactionid)public{\r\n        buyTransact.push(BuyTransaction(_stockid,_buyprice,_amount,_timestamp,_transactionid));\r\n    }   \r\n\r\n    function retriveCurrentDetails(address _stockid,uint256 _amount)public{\r\n        currentTransact.push(CurrentTransaction(_stockid,_amount));\r\n    }\r\n\r\n    function unsold_amount(address _contractAddress) public view returns(uint){\r\n        return StockInterface(_contractAddress).unsold_amount();\r\n    }\r\n\r\n    function buyOrder(address _contractAddress) external restricted payable{\r\n        StockInterface(_contractAddress).buyOrder{value: msg.value}();\r\n        buyOrders++;\r\n    }\r\n\r\n    function sellOrder(address _contractAddress) external restricted payable{\r\n        StockInterface(_contractAddress).sellOrder();\r\n        sellOrders++;\r\n    }\r\n\r\n    function withdraw() external restricted payable {\r\n        emit printUint(address(this).balance);\r\n        payable(owner).transfer(address(this).balance);\r\n    }\r\n}",
  "sourcePath": "E:\\Coding\\Blockchain\\reactStarter\\truffle\\contracts\\Trader.sol",
  "compiler": {
    "name": "solc",
    "version": "0.8.18+commit.87f61d96.Emscripten.clang"
  },
  "schemaVersion": "3.4.13",
  "updatedAt": "2023-04-09T19:44:10.446Z",
  "devdoc": {
    "kind": "dev",
    "methods": {},
    "version": 1
  },
  "userdoc": {
    "kind": "user",
    "methods": {},
    "version": 1
  }
}