{
  "contractName": "Trader",
  "abi": [
    {
      "inputs": [
        {
          "internalType": "string",
          "name": "_name",
          "type": "string"
        },
        {
          "internalType": "address",
          "name": "_address",
          "type": "address"
        }
      ],
      "stateMutability": "nonpayable",
      "type": "constructor"
    },
    {
      "anonymous": false,
      "inputs": [
        {
          "indexed": false,
          "internalType": "string",
          "name": "val",
          "type": "string"
        }
      ],
      "name": "printString",
      "type": "event"
    },
    {
      "anonymous": false,
      "inputs": [
        {
          "indexed": false,
          "internalType": "uint256",
          "name": "val",
          "type": "uint256"
        }
      ],
      "name": "printUint",
      "type": "event"
    },
    {
      "inputs": [],
      "name": "name",
      "outputs": [
        {
          "internalType": "string",
          "name": "",
          "type": "string"
        }
      ],
      "stateMutability": "view",
      "type": "function"
    },
    {
      "inputs": [],
      "name": "owner",
      "outputs": [
        {
          "internalType": "address",
          "name": "",
          "type": "address"
        }
      ],
      "stateMutability": "view",
      "type": "function"
    },
    {
      "inputs": [
        {
          "internalType": "address",
          "name": "",
          "type": "address"
        }
      ],
      "name": "stockIndex",
      "outputs": [
        {
          "internalType": "uint256",
          "name": "",
          "type": "uint256"
        }
      ],
      "stateMutability": "view",
      "type": "function"
    },
    {
      "stateMutability": "payable",
      "type": "receive"
    },
    {
      "inputs": [],
      "name": "verifyWallet",
      "outputs": [
        {
          "internalType": "bool",
          "name": "",
          "type": "bool"
        }
      ],
      "stateMutability": "view",
      "type": "function"
    },
    {
      "inputs": [],
      "name": "getStocks",
      "outputs": [
        {
          "components": [
            {
              "internalType": "string",
              "name": "name",
              "type": "string"
            },
            {
              "internalType": "address",
              "name": "stockAddress",
              "type": "address"
            },
            {
              "internalType": "uint256",
              "name": "amount",
              "type": "uint256"
            }
          ],
          "internalType": "struct Stock[]",
          "name": "",
          "type": "tuple[]"
        }
      ],
      "stateMutability": "view",
      "type": "function"
    },
    {
      "inputs": [
        {
          "internalType": "string",
          "name": "_stockName",
          "type": "string"
        },
        {
          "internalType": "address",
          "name": "_stockAddress",
          "type": "address"
        }
      ],
      "name": "buyOrder",
      "outputs": [],
      "stateMutability": "payable",
      "type": "function"
    },
    {
      "inputs": [
        {
          "internalType": "address",
          "name": "_stockAddress",
          "type": "address"
        }
      ],
      "name": "sellOrder",
      "outputs": [],
      "stateMutability": "payable",
      "type": "function"
    },
    {
      "inputs": [],
      "name": "withdraw",
      "outputs": [],
      "stateMutability": "payable",
      "type": "function"
    }
  ],
  "bytecode": "0x6080604052730b44cac31591f42123b25eec8f8ae6b161b5610c6000806101000a81548173ffffffffffffffffffffffffffffffffffffffff021916908373ffffffffffffffffffffffffffffffffffffffff1602179055503480156200006557600080fd5b5060405162001f8538038062001f8583398181016040528101906200008b919062000447565b60008054906101000a900473ffffffffffffffffffffffffffffffffffffffff1673ffffffffffffffffffffffffffffffffffffffff163373ffffffffffffffffffffffffffffffffffffffff16146200011c576040517f08c379a0000000000000000000000000000000000000000000000000000000008152600401620001139062000534565b60405180910390fd5b80600160006101000a81548173ffffffffffffffffffffffffffffffffffffffff021916908373ffffffffffffffffffffffffffffffffffffffff16021790555081600290816200016e9190620007a1565b5060046040518060600160405280604051806020016040528060008152508152602001600073ffffffffffffffffffffffffffffffffffffffff168152602001600081525090806001815401808255809150506001900390600052602060002090600302016000909190919091506000820151816000019081620001f39190620007a1565b5060208201518160010160006101000a81548173ffffffffffffffffffffffffffffffffffffffff021916908373ffffffffffffffffffffffffffffffffffffffff160217905550604082015181600201555050505062000888565b6000604051905090565b600080fd5b600080fd5b600080fd5b600080fd5b6000601f19601f8301169050919050565b7f4e487b7100000000000000000000000000000000000000000000000000000000600052604160045260246000fd5b620002b8826200026d565b810181811067ffffffffffffffff82111715620002da57620002d96200027e565b5b80604052505050565b6000620002ef6200024f565b9050620002fd8282620002ad565b919050565b600067ffffffffffffffff82111562000320576200031f6200027e565b5b6200032b826200026d565b9050602081019050919050565b60005b83811015620003585780820151818401526020810190506200033b565b60008484015250505050565b60006200037b620003758462000302565b620002e3565b9050828152602081018484840111156200039a576200039962000268565b5b620003a784828562000338565b509392505050565b600082601f830112620003c757620003c662000263565b5b8151620003d984826020860162000364565b91505092915050565b600073ffffffffffffffffffffffffffffffffffffffff82169050919050565b60006200040f82620003e2565b9050919050565b620004218162000402565b81146200042d57600080fd5b50565b600081519050620004418162000416565b92915050565b6000806040838503121562000461576200046062000259565b5b600083015167ffffffffffffffff8111156200048257620004816200025e565b5b6200049085828601620003af565b9250506020620004a38582860162000430565b9150509250929050565b600082825260208201905092915050565b7f4f6e6c7920676f7665726e6d656e74206163636f756e742063616e206265207560008201527f73656420746f206465706c6f79206e657720747261646572732e000000000000602082015250565b60006200051c603a83620004ad565b91506200052982620004be565b604082019050919050565b600060208201905081810360008301526200054f816200050d565b9050919050565b600081519050919050565b7f4e487b7100000000000000000000000000000000000000000000000000000000600052602260045260246000fd5b60006002820490506001821680620005a957607f821691505b602082108103620005bf57620005be62000561565b5b50919050565b60008190508160005260206000209050919050565b60006020601f8301049050919050565b600082821b905092915050565b600060088302620006297fffffffffffffffffffffffffffffffffffffffffffffffffffffffffffffffff82620005ea565b620006358683620005ea565b95508019841693508086168417925050509392505050565b6000819050919050565b6000819050919050565b6000620006826200067c62000676846200064d565b62000657565b6200064d565b9050919050565b6000819050919050565b6200069e8362000661565b620006b6620006ad8262000689565b848454620005f7565b825550505050565b600090565b620006cd620006be565b620006da81848462000693565b505050565b5b818110156200070257620006f6600082620006c3565b600181019050620006e0565b5050565b601f82111562000751576200071b81620005c5565b6200072684620005da565b8101602085101562000736578190505b6200074e6200074585620005da565b830182620006df565b50505b505050565b600082821c905092915050565b6000620007766000198460080262000756565b1980831691505092915050565b600062000791838362000763565b9150826002028217905092915050565b620007ac8262000556565b67ffffffffffffffff811115620007c857620007c76200027e565b5b620007d4825462000590565b620007e182828562000706565b600060209050601f83116001811462000819576000841562000804578287015190505b62000810858262000783565b86555062000880565b601f1984166200082986620005c5565b60005b8281101562000853578489015182556001820191506020850194506020810190506200082c565b868310156200087357848901516200086f601f89168262000763565b8355505b6001600288020188555050505b505050505050565b6116ed80620008986000396000f3fe60806040526004361061007f5760003560e01c80638da5cb5b1161004e5780638da5cb5b1461014b578063968f786514610176578063f31ab4c214610192578063faf2363e146101cf576100bb565b806306fdde03146100c057806321533ab5146100eb5780633ccfd60b146101165780635cef533414610120576100bb565b366100bb577f0f3ef8bc414cf2a5097f8cf34b5aaf397684f18f72ef7909239bf3081cf907976040516100b190610cae565b60405180910390a1005b600080fd5b3480156100cc57600080fd5b506100d56101eb565b6040516100e29190610d4d565b60405180910390f35b3480156100f757600080fd5b50610100610279565b60405161010d9190610f25565b60405180910390f35b61011e61045a565b005b34801561012c57600080fd5b5061013561058c565b6040516101429190610f62565b60405180910390f35b34801561015757600080fd5b506101606105f4565b60405161016d9190610f8c565b60405180910390f35b610190600480360381019061018b919061111c565b61061a565b005b34801561019e57600080fd5b506101b960048036038101906101b49190611178565b610944565b6040516101c691906111b4565b60405180910390f35b6101e960048036038101906101e49190611178565b61095c565b005b600280546101f8906111fe565b80601f0160208091040260200160405190810160405280929190818152602001828054610224906111fe565b80156102715780601f1061024657610100808354040283529160200191610271565b820191906000526020600020905b81548152906001019060200180831161025457829003601f168201915b505050505081565b6060600160009054906101000a900473ffffffffffffffffffffffffffffffffffffffff1673ffffffffffffffffffffffffffffffffffffffff163373ffffffffffffffffffffffffffffffffffffffff161461030b576040517f08c379a00000000000000000000000000000000000000000000000000000000081526004016103029061127b565b60405180910390fd5b6004805480602002602001604051908101604052809291908181526020016000905b828210156104515783829060005260206000209060030201604051806060016040529081600082018054610360906111fe565b80601f016020809104026020016040519081016040528092919081815260200182805461038c906111fe565b80156103d95780601f106103ae576101008083540402835291602001916103d9565b820191906000526020600020905b8154815290600101906020018083116103bc57829003601f168201915b505050505081526020016001820160009054906101000a900473ffffffffffffffffffffffffffffffffffffffff1673ffffffffffffffffffffffffffffffffffffffff1673ffffffffffffffffffffffffffffffffffffffff1681526020016002820154815250508152602001906001019061032d565b50505050905090565b600160009054906101000a900473ffffffffffffffffffffffffffffffffffffffff1673ffffffffffffffffffffffffffffffffffffffff163373ffffffffffffffffffffffffffffffffffffffff16146104ea576040517f08c379a00000000000000000000000000000000000000000000000000000000081526004016104e19061127b565b60405180910390fd5b7f75f5e2815b22cabc38a2224bbde1f65300741c8bb05684f90e2e074734eb7c434760405161051991906111b4565b60405180910390a1600160009054906101000a900473ffffffffffffffffffffffffffffffffffffffff1673ffffffffffffffffffffffffffffffffffffffff166108fc479081150290604051600060405180830381858888f19350505050158015610589573d6000803e3d6000fd5b50565b6000600160009054906101000a900473ffffffffffffffffffffffffffffffffffffffff1673ffffffffffffffffffffffffffffffffffffffff163373ffffffffffffffffffffffffffffffffffffffff16036105ec57600190506105f1565b600090505b90565b600160009054906101000a900473ffffffffffffffffffffffffffffffffffffffff1681565b600160009054906101000a900473ffffffffffffffffffffffffffffffffffffffff1673ffffffffffffffffffffffffffffffffffffffff163373ffffffffffffffffffffffffffffffffffffffff16146106aa576040517f08c379a00000000000000000000000000000000000000000000000000000000081526004016106a19061127b565b60405180910390fd5b8073ffffffffffffffffffffffffffffffffffffffff16630a4bcbb1346040518263ffffffff1660e01b81526004016000604051808303818588803b1580156106f257600080fd5b505af1158015610706573d6000803e3d6000fd5b50505050506000600360008373ffffffffffffffffffffffffffffffffffffffff1673ffffffffffffffffffffffffffffffffffffffff168152602001908152602001600020540361086657600480549050600360008373ffffffffffffffffffffffffffffffffffffffff1673ffffffffffffffffffffffffffffffffffffffff16815260200190815260200160002081905550600460405180606001604052808481526020018373ffffffffffffffffffffffffffffffffffffffff16815260200160018152509080600181540180825580915050600190039060005260206000209060030201600090919091909150600082015181600001908161080d9190611447565b5060208201518160010160006101000a81548173ffffffffffffffffffffffffffffffffffffffff021916908373ffffffffffffffffffffffffffffffffffffffff160217905550604082015181600201555050610940565b60016004600360008473ffffffffffffffffffffffffffffffffffffffff1673ffffffffffffffffffffffffffffffffffffffff16815260200190815260200160002054815481106108bb576108ba611519565b5b9060005260206000209060030201600201546108d79190611577565b6004600360008473ffffffffffffffffffffffffffffffffffffffff1673ffffffffffffffffffffffffffffffffffffffff168152602001908152602001600020548154811061092a57610929611519565b5b9060005260206000209060030201600201819055505b5050565b60036020528060005260406000206000915090505481565b600160009054906101000a900473ffffffffffffffffffffffffffffffffffffffff1673ffffffffffffffffffffffffffffffffffffffff163373ffffffffffffffffffffffffffffffffffffffff16146109ec576040517f08c379a00000000000000000000000000000000000000000000000000000000081526004016109e39061127b565b60405180910390fd5b6000600360008373ffffffffffffffffffffffffffffffffffffffff1673ffffffffffffffffffffffffffffffffffffffff1681526020019081526020016000205403610a6e576040517f08c379a0000000000000000000000000000000000000000000000000000000008152600401610a65906115f7565b60405180910390fd5b60006004600360008473ffffffffffffffffffffffffffffffffffffffff1673ffffffffffffffffffffffffffffffffffffffff1681526020019081526020016000205481548110610ac357610ac2611519565b5b90600052602060002090600302016002015411610b15576040517f08c379a0000000000000000000000000000000000000000000000000000000008152600401610b0c90611663565b60405180910390fd5b8073ffffffffffffffffffffffffffffffffffffffff166314468bf66040518163ffffffff1660e01b8152600401600060405180830381600087803b158015610b5d57600080fd5b505af1158015610b71573d6000803e3d6000fd5b5050505060016004600360008473ffffffffffffffffffffffffffffffffffffffff1673ffffffffffffffffffffffffffffffffffffffff1681526020019081526020016000205481548110610bca57610bc9611519565b5b906000526020600020906003020160020154610be69190611683565b6004600360008473ffffffffffffffffffffffffffffffffffffffff1673ffffffffffffffffffffffffffffffffffffffff1681526020019081526020016000205481548110610c3957610c38611519565b5b90600052602060002090600302016002018190555050565b600082825260208201905092915050565b7f52656365697665642074686520616d6f756e7400000000000000000000000000600082015250565b6000610c98601383610c51565b9150610ca382610c62565b602082019050919050565b60006020820190508181036000830152610cc781610c8b565b9050919050565b600081519050919050565b60005b83811015610cf7578082015181840152602081019050610cdc565b60008484015250505050565b6000601f19601f8301169050919050565b6000610d1f82610cce565b610d298185610c51565b9350610d39818560208601610cd9565b610d4281610d03565b840191505092915050565b60006020820190508181036000830152610d678184610d14565b905092915050565b600081519050919050565b600082825260208201905092915050565b6000819050602082019050919050565b600082825260208201905092915050565b6000610db782610cce565b610dc18185610d9b565b9350610dd1818560208601610cd9565b610dda81610d03565b840191505092915050565b600073ffffffffffffffffffffffffffffffffffffffff82169050919050565b6000610e1082610de5565b9050919050565b610e2081610e05565b82525050565b6000819050919050565b610e3981610e26565b82525050565b60006060830160008301518482036000860152610e5c8282610dac565b9150506020830151610e716020860182610e17565b506040830151610e846040860182610e30565b508091505092915050565b6000610e9b8383610e3f565b905092915050565b6000602082019050919050565b6000610ebb82610d6f565b610ec58185610d7a565b935083602082028501610ed785610d8b565b8060005b85811015610f135784840389528151610ef48582610e8f565b9450610eff83610ea3565b925060208a01995050600181019050610edb565b50829750879550505050505092915050565b60006020820190508181036000830152610f3f8184610eb0565b905092915050565b60008115159050919050565b610f5c81610f47565b82525050565b6000602082019050610f776000830184610f53565b92915050565b610f8681610e05565b82525050565b6000602082019050610fa16000830184610f7d565b92915050565b6000604051905090565b600080fd5b600080fd5b600080fd5b600080fd5b7f4e487b7100000000000000000000000000000000000000000000000000000000600052604160045260246000fd5b610ffd82610d03565b810181811067ffffffffffffffff8211171561101c5761101b610fc5565b5b80604052505050565b600061102f610fa7565b905061103b8282610ff4565b919050565b600067ffffffffffffffff82111561105b5761105a610fc5565b5b61106482610d03565b9050602081019050919050565b82818337600083830152505050565b600061109361108e84611040565b611025565b9050828152602081018484840111156110af576110ae610fc0565b5b6110ba848285611071565b509392505050565b600082601f8301126110d7576110d6610fbb565b5b81356110e7848260208601611080565b91505092915050565b6110f981610e05565b811461110457600080fd5b50565b600081359050611116816110f0565b92915050565b6000806040838503121561113357611132610fb1565b5b600083013567ffffffffffffffff81111561115157611150610fb6565b5b61115d858286016110c2565b925050602061116e85828601611107565b9150509250929050565b60006020828403121561118e5761118d610fb1565b5b600061119c84828501611107565b91505092915050565b6111ae81610e26565b82525050565b60006020820190506111c960008301846111a5565b92915050565b7f4e487b7100000000000000000000000000000000000000000000000000000000600052602260045260246000fd5b6000600282049050600182168061121657607f821691505b602082108103611229576112286111cf565b5b50919050565b7f4f776e6572204f6e6c7900000000000000000000000000000000000000000000600082015250565b6000611265600a83610c51565b91506112708261122f565b602082019050919050565b6000602082019050818103600083015261129481611258565b9050919050565b60008190508160005260206000209050919050565b60006020601f8301049050919050565b600082821b905092915050565b6000600883026112fd7fffffffffffffffffffffffffffffffffffffffffffffffffffffffffffffffff826112c0565b61130786836112c0565b95508019841693508086168417925050509392505050565b6000819050919050565b600061134461133f61133a84610e26565b61131f565b610e26565b9050919050565b6000819050919050565b61135e83611329565b61137261136a8261134b565b8484546112cd565b825550505050565b600090565b61138761137a565b611392818484611355565b505050565b5b818110156113b6576113ab60008261137f565b600181019050611398565b5050565b601f8211156113fb576113cc8161129b565b6113d5846112b0565b810160208510156113e4578190505b6113f86113f0856112b0565b830182611397565b50505b505050565b600082821c905092915050565b600061141e60001984600802611400565b1980831691505092915050565b6000611437838361140d565b9150826002028217905092915050565b61145082610cce565b67ffffffffffffffff81111561146957611468610fc5565b5b61147382546111fe565b61147e8282856113ba565b600060209050601f8311600181146114b1576000841561149f578287015190505b6114a9858261142b565b865550611511565b601f1984166114bf8661129b565b60005b828110156114e7578489015182556001820191506020850194506020810190506114c2565b868310156115045784890151611500601f89168261140d565b8355505b6001600288020188555050505b505050505050565b7f4e487b7100000000000000000000000000000000000000000000000000000000600052603260045260246000fd5b7f4e487b7100000000000000000000000000000000000000000000000000000000600052601160045260246000fd5b600061158282610e26565b915061158d83610e26565b92508282019050808211156115a5576115a4611548565b5b92915050565b7f596f7520646f6e74206861766520746869732073746f636b2e00000000000000600082015250565b60006115e1601983610c51565b91506115ec826115ab565b602082019050919050565b60006020820190508181036000830152611610816115d4565b9050919050565b7f596f752068617665203020616d6f756e74206f6620746869732053746f636b2e600082015250565b600061164d602083610c51565b915061165882611617565b602082019050919050565b6000602082019050818103600083015261167c81611640565b9050919050565b600061168e82610e26565b915061169983610e26565b92508282039050818111156116b1576116b0611548565b5b9291505056fea2646970667358221220dc49bccf013279055d2f13363c4099dcb967581dd90cf98e4bae4b3cf405328964736f6c63430008120033",
  "immutableReferences": {},
  "source": "//SPDX-License// SPDX-License-Identifier: GPL-3.0\r\n\r\npragma solidity >=0.8.2 <0.9.0;\r\n\r\ninterface StockInterface {\r\n    function buyOrder() external payable;\r\n\r\n    function sellOrder() external payable;\r\n\r\n    function unsold_amount() external view returns (uint);\r\n}\r\n\r\nstruct Stock {\r\n    string name;\r\n    address stockAddress;\r\n    uint amount;\r\n}\r\n\r\n// struct BuyTransaction {\r\n//         address stockid;\r\n//         uint256 buyprice;\r\n//         uint256 amount;\r\n//         uint256 timestamp;\r\n//         uint256 transactionid;\r\n//     }\r\n// struct SellTransaction {\r\n//         address stockid;\r\n//         uint256 sellprice;\r\n//         uint256 amount;\r\n//         uint256 timestamp;\r\n//         uint256 transactionid;\r\n//     }\r\n// struct CurrentTransaction {\r\n//         address stockid;\r\n//         uint256 amount;\r\n//     }\r\n\r\ncontract Trader {\r\n    address private government = 0x0B44caC31591F42123b25eec8f8AE6B161b5610C;\r\n    address public owner;\r\n    string public name;\r\n    mapping(address => uint) public stockIndex;\r\n    Stock[] stocks;\r\n\r\n    event printString(string val);\r\n    event printUint(uint val);\r\n\r\n    modifier restricted() {\r\n        require(msg.sender == owner, \"Owner Only\");\r\n        _;\r\n    }\r\n\r\n    \r\n\r\n    constructor(string memory _name, address _address) {\r\n        require(msg.sender == government, \"Only government account can be used to deploy new traders.\");\r\n        owner = _address;\r\n        name = _name;\r\n        stocks.push(Stock({name: \"\", stockAddress: address(0), amount: 0}));\r\n    }\r\n\r\n    // SellTransaction[] public sellTransact;\r\n    // BuyTransaction[] public buyTransact;\r\n    // CurrentTransaction[] public currentTransact;\r\n\r\n    receive() external payable {\r\n        emit printString(\"Received the amount\");\r\n    }\r\n\r\n    // function pushSellDetials(address _stockid,uint256 _sellprice,uint256 _amount,uint256 _timestamp,uint256 _transactionid)public{\r\n    //     sellTransact.push(SellTransaction(_stockid,_sellprice,_amount,_timestamp,_transactionid));\r\n    // }\r\n\r\n    // function retreiveBuyDetails(address _stockid,uint256 _buyprice,uint256 _amount,uint256 _timestamp,uint256 _transactionid)public{\r\n    //     buyTransact.push(BuyTransaction(_stockid,_buyprice,_amount,_timestamp,_transactionid));\r\n    // }\r\n\r\n    // function retriveCurrentDetails(address _stockid,uint256 _amount)public{\r\n    //     currentTransact.push(CurrentTransaction(_stockid,_amount));\r\n    // }\r\n\r\n    // function getStocks(uint _index) view public returns(Stock memory){\r\n    //     return stocks[_index];\r\n    // }\r\n\r\n    function verifyWallet() view public returns(bool){\r\n        if(msg.sender == owner){\r\n            return true;\r\n        }\r\n        return false;\r\n    }\r\n\r\n    function getStocks() view public restricted returns(Stock[] memory){\r\n        return stocks;\r\n    }\r\n\r\n    function buyOrder(\r\n        string memory _stockName,\r\n        address _stockAddress\r\n    ) external payable restricted {\r\n        StockInterface(_stockAddress).buyOrder{value: msg.value}();\r\n        if (stockIndex[_stockAddress] == 0) {\r\n            stockIndex[_stockAddress] = stocks.length;\r\n            stocks.push(\r\n                Stock({\r\n                    name: _stockName,\r\n                    stockAddress: _stockAddress,\r\n                    amount: 1\r\n                })\r\n            );\r\n        } else {\r\n            stocks[stockIndex[_stockAddress]].amount =\r\n                stocks[stockIndex[_stockAddress]].amount +\r\n                1;\r\n        }\r\n    }\r\n\r\n    function sellOrder(address _stockAddress) external payable restricted {\r\n        require(stockIndex[_stockAddress] != 0, \"You dont have this stock.\");\r\n        require(stocks[stockIndex[_stockAddress]].amount > 0, \"You have 0 amount of this Stock.\");\r\n        StockInterface(_stockAddress).sellOrder();\r\n        stocks[stockIndex[_stockAddress]].amount = stocks[stockIndex[_stockAddress]].amount - 1;\r\n    }\r\n\r\n    function withdraw() external payable restricted {\r\n        emit printUint(address(this).balance);\r\n        payable(owner).transfer(address(this).balance);\r\n    }\r\n}\r\n",
  "sourcePath": "E:\\Coding\\Blockchain\\reactStarter\\truffle\\contracts\\Trader.sol",
  "compiler": {
    "name": "solc",
    "version": "0.8.18+commit.87f61d96.Emscripten.clang"
  },
  "schemaVersion": "3.4.13",
  "updatedAt": "2023-04-13T05:31:24.414Z",
  "devdoc": {
    "kind": "dev",
    "methods": {},
    "version": 1
  },
  "userdoc": {
    "kind": "user",
    "methods": {},
    "version": 1
  }
}