{
  "contractName": "Trader",
  "abi": [
    {
      "inputs": [
        {
          "internalType": "string",
          "name": "_name",
          "type": "string"
        },
        {
          "internalType": "address",
          "name": "_address",
          "type": "address"
        }
      ],
      "stateMutability": "nonpayable",
      "type": "constructor"
    },
    {
      "anonymous": false,
      "inputs": [
        {
          "indexed": false,
          "internalType": "string",
          "name": "val",
          "type": "string"
        }
      ],
      "name": "printString",
      "type": "event"
    },
    {
      "anonymous": false,
      "inputs": [
        {
          "indexed": false,
          "internalType": "uint256",
          "name": "val",
          "type": "uint256"
        }
      ],
      "name": "printUint",
      "type": "event"
    },
    {
      "inputs": [],
      "name": "buyOrders",
      "outputs": [
        {
          "internalType": "uint256",
          "name": "",
          "type": "uint256"
        }
      ],
      "stateMutability": "view",
      "type": "function"
    },
    {
      "inputs": [],
      "name": "name",
      "outputs": [
        {
          "internalType": "string",
          "name": "",
          "type": "string"
        }
      ],
      "stateMutability": "view",
      "type": "function"
    },
    {
      "inputs": [],
      "name": "owner",
      "outputs": [
        {
          "internalType": "address",
          "name": "",
          "type": "address"
        }
      ],
      "stateMutability": "view",
      "type": "function"
    },
    {
      "inputs": [],
      "name": "sellOrders",
      "outputs": [
        {
          "internalType": "uint256",
          "name": "",
          "type": "uint256"
        }
      ],
      "stateMutability": "view",
      "type": "function"
    },
    {
      "inputs": [
        {
          "internalType": "address",
          "name": "",
          "type": "address"
        }
      ],
      "name": "stockIndex",
      "outputs": [
        {
          "internalType": "uint256",
          "name": "",
          "type": "uint256"
        }
      ],
      "stateMutability": "view",
      "type": "function"
    },
    {
      "stateMutability": "payable",
      "type": "receive"
    },
    {
      "inputs": [
        {
          "internalType": "uint256",
          "name": "_index",
          "type": "uint256"
        }
      ],
      "name": "getStock",
      "outputs": [
        {
          "components": [
            {
              "internalType": "string",
              "name": "name",
              "type": "string"
            },
            {
              "internalType": "address",
              "name": "stockAddress",
              "type": "address"
            },
            {
              "internalType": "uint256",
              "name": "amount",
              "type": "uint256"
            }
          ],
          "internalType": "struct Stock",
          "name": "",
          "type": "tuple"
        }
      ],
      "stateMutability": "view",
      "type": "function"
    },
    {
      "inputs": [
        {
          "internalType": "address",
          "name": "_contractAddress",
          "type": "address"
        }
      ],
      "name": "unsold_amount",
      "outputs": [
        {
          "internalType": "uint256",
          "name": "",
          "type": "uint256"
        }
      ],
      "stateMutability": "view",
      "type": "function"
    },
    {
      "inputs": [
        {
          "internalType": "string",
          "name": "_stockName",
          "type": "string"
        },
        {
          "internalType": "address",
          "name": "_stockAddress",
          "type": "address"
        }
      ],
      "name": "buyOrder",
      "outputs": [],
      "stateMutability": "payable",
      "type": "function"
    },
    {
      "inputs": [
        {
          "internalType": "address",
          "name": "_stockAddress",
          "type": "address"
        }
      ],
      "name": "sellOrder",
      "outputs": [],
      "stateMutability": "payable",
      "type": "function"
    },
    {
      "inputs": [],
      "name": "withdraw",
      "outputs": [],
      "stateMutability": "payable",
      "type": "function"
    }
  ],
  "bytecode": "0x6080604052600060015560006002553480156200001b57600080fd5b5060405162001e4138038062001e4183398181016040528101906200004191906200036b565b806000806101000a81548173ffffffffffffffffffffffffffffffffffffffff021916908373ffffffffffffffffffffffffffffffffffffffff16021790555081600390816200009291906200061c565b5060056040518060600160405280604051806020016040528060008152508152602001600073ffffffffffffffffffffffffffffffffffffffff1681526020016000815250908060018154018082558091505060019003906000526020600020906003020160009091909190915060008201518160000190816200011791906200061c565b5060208201518160010160006101000a81548173ffffffffffffffffffffffffffffffffffffffff021916908373ffffffffffffffffffffffffffffffffffffffff160217905550604082015181600201555050505062000703565b6000604051905090565b600080fd5b600080fd5b600080fd5b600080fd5b6000601f19601f8301169050919050565b7f4e487b7100000000000000000000000000000000000000000000000000000000600052604160045260246000fd5b620001dc8262000191565b810181811067ffffffffffffffff82111715620001fe57620001fd620001a2565b5b80604052505050565b60006200021362000173565b9050620002218282620001d1565b919050565b600067ffffffffffffffff821115620002445762000243620001a2565b5b6200024f8262000191565b9050602081019050919050565b60005b838110156200027c5780820151818401526020810190506200025f565b60008484015250505050565b60006200029f620002998462000226565b62000207565b905082815260208101848484011115620002be57620002bd6200018c565b5b620002cb8482856200025c565b509392505050565b600082601f830112620002eb57620002ea62000187565b5b8151620002fd84826020860162000288565b91505092915050565b600073ffffffffffffffffffffffffffffffffffffffff82169050919050565b6000620003338262000306565b9050919050565b620003458162000326565b81146200035157600080fd5b50565b60008151905062000365816200033a565b92915050565b600080604083850312156200038557620003846200017d565b5b600083015167ffffffffffffffff811115620003a657620003a562000182565b5b620003b485828601620002d3565b9250506020620003c78582860162000354565b9150509250929050565b600081519050919050565b7f4e487b7100000000000000000000000000000000000000000000000000000000600052602260045260246000fd5b600060028204905060018216806200042457607f821691505b6020821081036200043a5762000439620003dc565b5b50919050565b60008190508160005260206000209050919050565b60006020601f8301049050919050565b600082821b905092915050565b600060088302620004a47fffffffffffffffffffffffffffffffffffffffffffffffffffffffffffffffff8262000465565b620004b0868362000465565b95508019841693508086168417925050509392505050565b6000819050919050565b6000819050919050565b6000620004fd620004f7620004f184620004c8565b620004d2565b620004c8565b9050919050565b6000819050919050565b6200051983620004dc565b62000531620005288262000504565b84845462000472565b825550505050565b600090565b6200054862000539565b620005558184846200050e565b505050565b5b818110156200057d57620005716000826200053e565b6001810190506200055b565b5050565b601f821115620005cc57620005968162000440565b620005a18462000455565b81016020851015620005b1578190505b620005c9620005c08562000455565b8301826200055a565b50505b505050565b600082821c905092915050565b6000620005f160001984600802620005d1565b1980831691505092915050565b60006200060c8383620005de565b9150826002028217905092915050565b6200062782620003d1565b67ffffffffffffffff811115620006435762000642620001a2565b5b6200064f82546200040b565b6200065c82828562000581565b600060209050601f8311600181146200069457600084156200067f578287015190505b6200068b8582620005fe565b865550620006fb565b601f198416620006a48662000440565b60005b82811015620006ce57848901518255600182019150602085019450602081019050620006a7565b86831015620006ee5784890151620006ea601f891682620005de565b8355505b6001600288020188555050505b505050505050565b61172e80620007136000396000f3fe6080604052600436106100955760003560e01c8063968f786511610059578063968f7865146101b0578063beb46966146101cc578063d21e3f61146101f7578063f31ab4c214610222578063faf2363e1461025f576100d1565b806306fdde03146100d65780633ab7d09a146101015780633ccfd60b1461013e578063499eb883146101485780638da5cb5b14610185576100d1565b366100d1577f0f3ef8bc414cf2a5097f8cf34b5aaf397684f18f72ef7909239bf3081cf907976040516100c790610d04565b60405180910390a1005b600080fd5b3480156100e257600080fd5b506100eb61027b565b6040516100f89190610da3565b60405180910390f35b34801561010d57600080fd5b5061012860048036038101906101239190610e0f565b610309565b6040516101359190610f26565b60405180910390f35b610146610437565b005b34801561015457600080fd5b5061016f600480360381019061016a9190610f74565b610565565b60405161017c9190610fb0565b60405180910390f35b34801561019157600080fd5b5061019a6105dd565b6040516101a79190610fda565b60405180910390f35b6101ca60048036038101906101c5919061112a565b610601565b005b3480156101d857600080fd5b506101e1610941565b6040516101ee9190610fb0565b60405180910390f35b34801561020357600080fd5b5061020c610947565b6040516102199190610fb0565b60405180910390f35b34801561022e57600080fd5b5061024960048036038101906102449190610f74565b61094d565b6040516102569190610fb0565b60405180910390f35b61027960048036038101906102749190610f74565b610965565b005b60038054610288906111b5565b80601f01602080910402602001604051908101604052809291908181526020018280546102b4906111b5565b80156103015780601f106102d657610100808354040283529160200191610301565b820191906000526020600020905b8154815290600101906020018083116102e457829003601f168201915b505050505081565b610311610c70565b60058281548110610325576103246111e6565b5b906000526020600020906003020160405180606001604052908160008201805461034e906111b5565b80601f016020809104026020016040519081016040528092919081815260200182805461037a906111b5565b80156103c75780601f1061039c576101008083540402835291602001916103c7565b820191906000526020600020905b8154815290600101906020018083116103aa57829003601f168201915b505050505081526020016001820160009054906101000a900473ffffffffffffffffffffffffffffffffffffffff1673ffffffffffffffffffffffffffffffffffffffff1673ffffffffffffffffffffffffffffffffffffffff1681526020016002820154815250509050919050565b60008054906101000a900473ffffffffffffffffffffffffffffffffffffffff1673ffffffffffffffffffffffffffffffffffffffff163373ffffffffffffffffffffffffffffffffffffffff16146104c5576040517f08c379a00000000000000000000000000000000000000000000000000000000081526004016104bc90611261565b60405180910390fd5b7f75f5e2815b22cabc38a2224bbde1f65300741c8bb05684f90e2e074734eb7c43476040516104f49190610fb0565b60405180910390a160008054906101000a900473ffffffffffffffffffffffffffffffffffffffff1673ffffffffffffffffffffffffffffffffffffffff166108fc479081150290604051600060405180830381858888f19350505050158015610562573d6000803e3d6000fd5b50565b60008173ffffffffffffffffffffffffffffffffffffffff1663facb4f616040518163ffffffff1660e01b8152600401602060405180830381865afa1580156105b2573d6000803e3d6000fd5b505050506040513d601f19601f820116820180604052508101906105d69190611296565b9050919050565b60008054906101000a900473ffffffffffffffffffffffffffffffffffffffff1681565b60008054906101000a900473ffffffffffffffffffffffffffffffffffffffff1673ffffffffffffffffffffffffffffffffffffffff163373ffffffffffffffffffffffffffffffffffffffff161461068f576040517f08c379a000000000000000000000000000000000000000000000000000000000815260040161068690611261565b60405180910390fd5b8073ffffffffffffffffffffffffffffffffffffffff16630a4bcbb1346040518263ffffffff1660e01b81526004016000604051808303818588803b1580156106d757600080fd5b505af11580156106eb573d6000803e3d6000fd5b505050505060026000815480929190610703906112f2565b91905055506000600460008373ffffffffffffffffffffffffffffffffffffffff1673ffffffffffffffffffffffffffffffffffffffff168152602001908152602001600020540361086357600580549050600460008373ffffffffffffffffffffffffffffffffffffffff1673ffffffffffffffffffffffffffffffffffffffff16815260200190815260200160002081905550600560405180606001604052808481526020018373ffffffffffffffffffffffffffffffffffffffff16815260200160018152509080600181540180825580915050600190039060005260206000209060030201600090919091909150600082015181600001908161080a91906114e6565b5060208201518160010160006101000a81548173ffffffffffffffffffffffffffffffffffffffff021916908373ffffffffffffffffffffffffffffffffffffffff16021790555060408201518160020155505061093d565b60016005600460008473ffffffffffffffffffffffffffffffffffffffff1673ffffffffffffffffffffffffffffffffffffffff16815260200190815260200160002054815481106108b8576108b76111e6565b5b9060005260206000209060030201600201546108d491906115b8565b6005600460008473ffffffffffffffffffffffffffffffffffffffff1673ffffffffffffffffffffffffffffffffffffffff1681526020019081526020016000205481548110610927576109266111e6565b5b9060005260206000209060030201600201819055505b5050565b60025481565b60015481565b60046020528060005260406000206000915090505481565b60008054906101000a900473ffffffffffffffffffffffffffffffffffffffff1673ffffffffffffffffffffffffffffffffffffffff163373ffffffffffffffffffffffffffffffffffffffff16146109f3576040517f08c379a00000000000000000000000000000000000000000000000000000000081526004016109ea90611261565b60405180910390fd5b6000600460008373ffffffffffffffffffffffffffffffffffffffff1673ffffffffffffffffffffffffffffffffffffffff1681526020019081526020016000205403610a75576040517f08c379a0000000000000000000000000000000000000000000000000000000008152600401610a6c90611638565b60405180910390fd5b60006005600460008473ffffffffffffffffffffffffffffffffffffffff1673ffffffffffffffffffffffffffffffffffffffff1681526020019081526020016000205481548110610aca57610ac96111e6565b5b90600052602060002090600302016002015411610b1c576040517f08c379a0000000000000000000000000000000000000000000000000000000008152600401610b13906116a4565b60405180910390fd5b8073ffffffffffffffffffffffffffffffffffffffff166314468bf66040518163ffffffff1660e01b8152600401600060405180830381600087803b158015610b6457600080fd5b505af1158015610b78573d6000803e3d6000fd5b5050505060016000815480929190610b8f906112f2565b919050555060016005600460008473ffffffffffffffffffffffffffffffffffffffff1673ffffffffffffffffffffffffffffffffffffffff1681526020019081526020016000205481548110610be957610be86111e6565b5b906000526020600020906003020160020154610c0591906116c4565b6005600460008473ffffffffffffffffffffffffffffffffffffffff1673ffffffffffffffffffffffffffffffffffffffff1681526020019081526020016000205481548110610c5857610c576111e6565b5b90600052602060002090600302016002018190555050565b604051806060016040528060608152602001600073ffffffffffffffffffffffffffffffffffffffff168152602001600081525090565b600082825260208201905092915050565b7f52656365697665642074686520616d6f756e7400000000000000000000000000600082015250565b6000610cee601383610ca7565b9150610cf982610cb8565b602082019050919050565b60006020820190508181036000830152610d1d81610ce1565b9050919050565b600081519050919050565b60005b83811015610d4d578082015181840152602081019050610d32565b60008484015250505050565b6000601f19601f8301169050919050565b6000610d7582610d24565b610d7f8185610ca7565b9350610d8f818560208601610d2f565b610d9881610d59565b840191505092915050565b60006020820190508181036000830152610dbd8184610d6a565b905092915050565b6000604051905090565b600080fd5b600080fd5b6000819050919050565b610dec81610dd9565b8114610df757600080fd5b50565b600081359050610e0981610de3565b92915050565b600060208284031215610e2557610e24610dcf565b5b6000610e3384828501610dfa565b91505092915050565b600082825260208201905092915050565b6000610e5882610d24565b610e628185610e3c565b9350610e72818560208601610d2f565b610e7b81610d59565b840191505092915050565b600073ffffffffffffffffffffffffffffffffffffffff82169050919050565b6000610eb182610e86565b9050919050565b610ec181610ea6565b82525050565b610ed081610dd9565b82525050565b60006060830160008301518482036000860152610ef38282610e4d565b9150506020830151610f086020860182610eb8565b506040830151610f1b6040860182610ec7565b508091505092915050565b60006020820190508181036000830152610f408184610ed6565b905092915050565b610f5181610ea6565b8114610f5c57600080fd5b50565b600081359050610f6e81610f48565b92915050565b600060208284031215610f8a57610f89610dcf565b5b6000610f9884828501610f5f565b91505092915050565b610faa81610dd9565b82525050565b6000602082019050610fc56000830184610fa1565b92915050565b610fd481610ea6565b82525050565b6000602082019050610fef6000830184610fcb565b92915050565b600080fd5b600080fd5b7f4e487b7100000000000000000000000000000000000000000000000000000000600052604160045260246000fd5b61103782610d59565b810181811067ffffffffffffffff8211171561105657611055610fff565b5b80604052505050565b6000611069610dc5565b9050611075828261102e565b919050565b600067ffffffffffffffff82111561109557611094610fff565b5b61109e82610d59565b9050602081019050919050565b82818337600083830152505050565b60006110cd6110c88461107a565b61105f565b9050828152602081018484840111156110e9576110e8610ffa565b5b6110f48482856110ab565b509392505050565b600082601f83011261111157611110610ff5565b5b81356111218482602086016110ba565b91505092915050565b6000806040838503121561114157611140610dcf565b5b600083013567ffffffffffffffff81111561115f5761115e610dd4565b5b61116b858286016110fc565b925050602061117c85828601610f5f565b9150509250929050565b7f4e487b7100000000000000000000000000000000000000000000000000000000600052602260045260246000fd5b600060028204905060018216806111cd57607f821691505b6020821081036111e0576111df611186565b5b50919050565b7f4e487b7100000000000000000000000000000000000000000000000000000000600052603260045260246000fd5b7f4f776e6572204f6e6c7900000000000000000000000000000000000000000000600082015250565b600061124b600a83610ca7565b915061125682611215565b602082019050919050565b6000602082019050818103600083015261127a8161123e565b9050919050565b60008151905061129081610de3565b92915050565b6000602082840312156112ac576112ab610dcf565b5b60006112ba84828501611281565b91505092915050565b7f4e487b7100000000000000000000000000000000000000000000000000000000600052601160045260246000fd5b60006112fd82610dd9565b91507fffffffffffffffffffffffffffffffffffffffffffffffffffffffffffffffff820361132f5761132e6112c3565b5b600182019050919050565b60008190508160005260206000209050919050565b60006020601f8301049050919050565b600082821b905092915050565b60006008830261139c7fffffffffffffffffffffffffffffffffffffffffffffffffffffffffffffffff8261135f565b6113a6868361135f565b95508019841693508086168417925050509392505050565b6000819050919050565b60006113e36113de6113d984610dd9565b6113be565b610dd9565b9050919050565b6000819050919050565b6113fd836113c8565b611411611409826113ea565b84845461136c565b825550505050565b600090565b611426611419565b6114318184846113f4565b505050565b5b818110156114555761144a60008261141e565b600181019050611437565b5050565b601f82111561149a5761146b8161133a565b6114748461134f565b81016020851015611483578190505b61149761148f8561134f565b830182611436565b50505b505050565b600082821c905092915050565b60006114bd6000198460080261149f565b1980831691505092915050565b60006114d683836114ac565b9150826002028217905092915050565b6114ef82610d24565b67ffffffffffffffff81111561150857611507610fff565b5b61151282546111b5565b61151d828285611459565b600060209050601f831160018114611550576000841561153e578287015190505b61154885826114ca565b8655506115b0565b601f19841661155e8661133a565b60005b8281101561158657848901518255600182019150602085019450602081019050611561565b868310156115a3578489015161159f601f8916826114ac565b8355505b6001600288020188555050505b505050505050565b60006115c382610dd9565b91506115ce83610dd9565b92508282019050808211156115e6576115e56112c3565b5b92915050565b7f596f7520646f6e74206861766520746869732073746f636b2e00000000000000600082015250565b6000611622601983610ca7565b915061162d826115ec565b602082019050919050565b6000602082019050818103600083015261165181611615565b9050919050565b7f596f752068617665203020616d6f756e74206f6620746869732053746f636b2e600082015250565b600061168e602083610ca7565b915061169982611658565b602082019050919050565b600060208201905081810360008301526116bd81611681565b9050919050565b60006116cf82610dd9565b91506116da83610dd9565b92508282039050818111156116f2576116f16112c3565b5b9291505056fea26469706673582212208d295b05c5f89c9e31b57355c81dda00ffd64210837d67291cee140ff543fdaf64736f6c63430008120033",
  "immutableReferences": {},
  "source": "//SPDX-License// SPDX-License-Identifier: GPL-3.0\r\n\r\npragma solidity >=0.8.2 <0.9.0;\r\n\r\ninterface StockInterface {\r\n    function buyOrder() external payable;\r\n\r\n    function sellOrder() external payable;\r\n\r\n    function unsold_amount() external view returns (uint);\r\n}\r\n\r\nstruct Stock {\r\n    string name;\r\n    address stockAddress;\r\n    uint amount;\r\n}\r\n\r\n// struct BuyTransaction {\r\n//         address stockid;\r\n//         uint256 buyprice;\r\n//         uint256 amount;\r\n//         uint256 timestamp;\r\n//         uint256 transactionid;\r\n//     }\r\n// struct SellTransaction {\r\n//         address stockid;\r\n//         uint256 sellprice;\r\n//         uint256 amount;\r\n//         uint256 timestamp;\r\n//         uint256 transactionid;\r\n//     }\r\n// struct CurrentTransaction {\r\n//         address stockid;\r\n//         uint256 amount;\r\n//     }\r\n\r\ncontract Trader {\r\n    address public owner;\r\n    uint public sellOrders = 0;\r\n    uint public buyOrders = 0;\r\n    string public name;\r\n    mapping(address => uint) public stockIndex;\r\n    Stock[] stocks;\r\n\r\n    event printString(string val);\r\n    event printUint(uint val);\r\n\r\n    modifier restricted() {\r\n        require(msg.sender == owner, \"Owner Only\");\r\n        _;\r\n    }\r\n\r\n    constructor(string memory _name, address _address) {\r\n        owner = _address;\r\n        name = _name;\r\n        stocks.push(Stock({name: \"\", stockAddress: address(0), amount: 0}));\r\n    }\r\n\r\n    // SellTransaction[] public sellTransact;\r\n    // BuyTransaction[] public buyTransact;\r\n    // CurrentTransaction[] public currentTransact;\r\n\r\n    receive() external payable {\r\n        emit printString(\"Received the amount\");\r\n    }\r\n\r\n    // function pushSellDetials(address _stockid,uint256 _sellprice,uint256 _amount,uint256 _timestamp,uint256 _transactionid)public{\r\n    //     sellTransact.push(SellTransaction(_stockid,_sellprice,_amount,_timestamp,_transactionid));\r\n    // }\r\n\r\n    // function retreiveBuyDetails(address _stockid,uint256 _buyprice,uint256 _amount,uint256 _timestamp,uint256 _transactionid)public{\r\n    //     buyTransact.push(BuyTransaction(_stockid,_buyprice,_amount,_timestamp,_transactionid));\r\n    // }\r\n\r\n    // function retriveCurrentDetails(address _stockid,uint256 _amount)public{\r\n    //     currentTransact.push(CurrentTransaction(_stockid,_amount));\r\n    // }\r\n\r\n    function getStock(uint _index) view public returns(Stock memory){\r\n        return stocks[_index];\r\n    }\r\n\r\n    function unsold_amount(\r\n        address _contractAddress\r\n    ) public view returns (uint) {\r\n        return StockInterface(_contractAddress).unsold_amount();\r\n    }\r\n\r\n    function buyOrder(\r\n        string memory _stockName,\r\n        address _stockAddress\r\n    ) external payable restricted {\r\n        StockInterface(_stockAddress).buyOrder{value: msg.value}();\r\n        buyOrders++;\r\n        if (stockIndex[_stockAddress] == 0) {\r\n            stockIndex[_stockAddress] = stocks.length;\r\n            stocks.push(\r\n                Stock({\r\n                    name: _stockName,\r\n                    stockAddress: _stockAddress,\r\n                    amount: 1\r\n                })\r\n            );\r\n        } else {\r\n            stocks[stockIndex[_stockAddress]].amount =\r\n                stocks[stockIndex[_stockAddress]].amount +\r\n                1;\r\n        }\r\n    }\r\n\r\n    function sellOrder(address _stockAddress) external payable restricted {\r\n        require(stockIndex[_stockAddress] != 0, \"You dont have this stock.\");\r\n        require(stocks[stockIndex[_stockAddress]].amount > 0, \"You have 0 amount of this Stock.\");\r\n        StockInterface(_stockAddress).sellOrder();\r\n        sellOrders++;\r\n        stocks[stockIndex[_stockAddress]].amount = stocks[stockIndex[_stockAddress]].amount - 1;\r\n    }\r\n\r\n    function withdraw() external payable restricted {\r\n        emit printUint(address(this).balance);\r\n        payable(owner).transfer(address(this).balance);\r\n    }\r\n}\r\n",
  "sourcePath": "E:\\Coding\\Blockchain\\reactStarter\\truffle\\contracts\\Trader.sol",
  "compiler": {
    "name": "solc",
    "version": "0.8.18+commit.87f61d96.Emscripten.clang"
  },
  "schemaVersion": "3.4.13",
  "updatedAt": "2023-04-10T05:13:30.513Z",
  "devdoc": {
    "kind": "dev",
    "methods": {},
    "version": 1
  },
  "userdoc": {
    "kind": "user",
    "methods": {},
    "version": 1
  }
}