{
  "contractName": "Trader",
  "abi": [
    {
      "inputs": [
        {
          "internalType": "string",
          "name": "_name",
          "type": "string"
        },
        {
          "internalType": "address",
          "name": "_address",
          "type": "address"
        }
      ],
      "stateMutability": "nonpayable",
      "type": "constructor"
    },
    {
      "anonymous": false,
      "inputs": [
        {
          "indexed": false,
          "internalType": "string",
          "name": "val",
          "type": "string"
        }
      ],
      "name": "printString",
      "type": "event"
    },
    {
      "inputs": [
        {
          "internalType": "uint256",
          "name": "",
          "type": "uint256"
        }
      ],
      "name": "buyTransact",
      "outputs": [
        {
          "internalType": "address",
          "name": "stockid",
          "type": "address"
        },
        {
          "internalType": "uint256",
          "name": "buyprice",
          "type": "uint256"
        },
        {
          "internalType": "uint256",
          "name": "amount",
          "type": "uint256"
        },
        {
          "internalType": "uint256",
          "name": "timestamp",
          "type": "uint256"
        },
        {
          "internalType": "uint256",
          "name": "transactionid",
          "type": "uint256"
        }
      ],
      "stateMutability": "view",
      "type": "function"
    },
    {
      "inputs": [
        {
          "internalType": "uint256",
          "name": "",
          "type": "uint256"
        }
      ],
      "name": "currentTransact",
      "outputs": [
        {
          "internalType": "address",
          "name": "stockid",
          "type": "address"
        },
        {
          "internalType": "uint256",
          "name": "amount",
          "type": "uint256"
        }
      ],
      "stateMutability": "view",
      "type": "function"
    },
    {
      "inputs": [],
      "name": "metamaskid",
      "outputs": [
        {
          "internalType": "address",
          "name": "",
          "type": "address"
        }
      ],
      "stateMutability": "view",
      "type": "function"
    },
    {
      "inputs": [],
      "name": "name",
      "outputs": [
        {
          "internalType": "string",
          "name": "",
          "type": "string"
        }
      ],
      "stateMutability": "view",
      "type": "function"
    },
    {
      "inputs": [],
      "name": "owner",
      "outputs": [
        {
          "internalType": "address",
          "name": "",
          "type": "address"
        }
      ],
      "stateMutability": "view",
      "type": "function"
    },
    {
      "inputs": [
        {
          "internalType": "uint256",
          "name": "",
          "type": "uint256"
        }
      ],
      "name": "sellTransact",
      "outputs": [
        {
          "internalType": "address",
          "name": "stockid",
          "type": "address"
        },
        {
          "internalType": "uint256",
          "name": "sellprice",
          "type": "uint256"
        },
        {
          "internalType": "uint256",
          "name": "amount",
          "type": "uint256"
        },
        {
          "internalType": "uint256",
          "name": "timestamp",
          "type": "uint256"
        },
        {
          "internalType": "uint256",
          "name": "transactionid",
          "type": "uint256"
        }
      ],
      "stateMutability": "view",
      "type": "function"
    },
    {
      "stateMutability": "payable",
      "type": "receive"
    },
    {
      "inputs": [
        {
          "internalType": "address",
          "name": "_stockid",
          "type": "address"
        },
        {
          "internalType": "uint256",
          "name": "_sellprice",
          "type": "uint256"
        },
        {
          "internalType": "uint256",
          "name": "_amount",
          "type": "uint256"
        },
        {
          "internalType": "uint256",
          "name": "_timestamp",
          "type": "uint256"
        },
        {
          "internalType": "uint256",
          "name": "_transactionid",
          "type": "uint256"
        }
      ],
      "name": "pushSellDetials",
      "outputs": [],
      "stateMutability": "nonpayable",
      "type": "function"
    },
    {
      "inputs": [
        {
          "internalType": "address",
          "name": "_stockid",
          "type": "address"
        },
        {
          "internalType": "uint256",
          "name": "_buyprice",
          "type": "uint256"
        },
        {
          "internalType": "uint256",
          "name": "_amount",
          "type": "uint256"
        },
        {
          "internalType": "uint256",
          "name": "_timestamp",
          "type": "uint256"
        },
        {
          "internalType": "uint256",
          "name": "_transactionid",
          "type": "uint256"
        }
      ],
      "name": "retriveBuyDetails",
      "outputs": [],
      "stateMutability": "nonpayable",
      "type": "function"
    },
    {
      "inputs": [
        {
          "internalType": "address",
          "name": "_stockid",
          "type": "address"
        },
        {
          "internalType": "uint256",
          "name": "_amount",
          "type": "uint256"
        }
      ],
      "name": "retriveCurrentDetails",
      "outputs": [],
      "stateMutability": "nonpayable",
      "type": "function"
    },
    {
      "inputs": [
        {
          "internalType": "address",
          "name": "_contractAddress",
          "type": "address"
        }
      ],
      "name": "unsold_amount",
      "outputs": [
        {
          "internalType": "uint256",
          "name": "",
          "type": "uint256"
        }
      ],
      "stateMutability": "view",
      "type": "function"
    },
    {
      "inputs": [
        {
          "internalType": "address",
          "name": "_contractAddress",
          "type": "address"
        }
      ],
      "name": "buyOrder",
      "outputs": [],
      "stateMutability": "payable",
      "type": "function"
    },
    {
      "inputs": [
        {
          "internalType": "address",
          "name": "_contractAddress",
          "type": "address"
        }
      ],
      "name": "sellOrder",
      "outputs": [],
      "stateMutability": "payable",
      "type": "function"
    },
    {
      "inputs": [],
      "name": "withdraw",
      "outputs": [],
      "stateMutability": "payable",
      "type": "function"
    }
  ],
  "bytecode": "0x60806040523480156200001157600080fd5b506040516200160a3803806200160a833981810160405281019062000037919062000289565b806000806101000a81548173ffffffffffffffffffffffffffffffffffffffff021916908373ffffffffffffffffffffffffffffffffffffffff16021790555081600590816200008891906200053a565b50505062000621565b6000604051905090565b600080fd5b600080fd5b600080fd5b600080fd5b6000601f19601f8301169050919050565b7f4e487b7100000000000000000000000000000000000000000000000000000000600052604160045260246000fd5b620000fa82620000af565b810181811067ffffffffffffffff821117156200011c576200011b620000c0565b5b80604052505050565b60006200013162000091565b90506200013f8282620000ef565b919050565b600067ffffffffffffffff821115620001625762000161620000c0565b5b6200016d82620000af565b9050602081019050919050565b60005b838110156200019a5780820151818401526020810190506200017d565b60008484015250505050565b6000620001bd620001b78462000144565b62000125565b905082815260208101848484011115620001dc57620001db620000aa565b5b620001e98482856200017a565b509392505050565b600082601f830112620002095762000208620000a5565b5b81516200021b848260208601620001a6565b91505092915050565b600073ffffffffffffffffffffffffffffffffffffffff82169050919050565b6000620002518262000224565b9050919050565b620002638162000244565b81146200026f57600080fd5b50565b600081519050620002838162000258565b92915050565b60008060408385031215620002a357620002a26200009b565b5b600083015167ffffffffffffffff811115620002c457620002c3620000a0565b5b620002d285828601620001f1565b9250506020620002e58582860162000272565b9150509250929050565b600081519050919050565b7f4e487b7100000000000000000000000000000000000000000000000000000000600052602260045260246000fd5b600060028204905060018216806200034257607f821691505b602082108103620003585762000357620002fa565b5b50919050565b60008190508160005260206000209050919050565b60006020601f8301049050919050565b600082821b905092915050565b600060088302620003c27fffffffffffffffffffffffffffffffffffffffffffffffffffffffffffffffff8262000383565b620003ce868362000383565b95508019841693508086168417925050509392505050565b6000819050919050565b6000819050919050565b60006200041b620004156200040f84620003e6565b620003f0565b620003e6565b9050919050565b6000819050919050565b6200043783620003fa565b6200044f620004468262000422565b84845462000390565b825550505050565b600090565b6200046662000457565b620004738184846200042c565b505050565b5b818110156200049b576200048f6000826200045c565b60018101905062000479565b5050565b601f821115620004ea57620004b4816200035e565b620004bf8462000373565b81016020851015620004cf578190505b620004e7620004de8562000373565b83018262000478565b50505b505050565b600082821c905092915050565b60006200050f60001984600802620004ef565b1980831691505092915050565b60006200052a8383620004fc565b9150826002028217905092915050565b6200054582620002ef565b67ffffffffffffffff811115620005615762000560620000c0565b5b6200056d825462000329565b6200057a8282856200049f565b600060209050601f831160018114620005b257600084156200059d578287015190505b620005a985826200051c565b86555062000619565b601f198416620005c2866200035e565b60005b82811015620005ec57848901518255600182019150602085019450602081019050620005c5565b868310156200060c578489015162000608601f891682620004fc565b8355505b6001600288020188555050505b505050505050565b610fd980620006316000396000f3fe6080604052600436106100c65760003560e01c8063658854061161007f5780639bd80f48116100595780639bd80f481461027b578063c13c4ebd146102a4578063f494a451146102e5578063faf2363e1461032657610102565b806365885406146101e95780638da5cb5b146102275780639b8b36d11461025257610102565b806306fdde031461010757806316bdb453146101325780633ccfd60b1461015b578063499eb883146101655780635c2c2aba146101a257806361c03b6f146101cd57610102565b36610102577f0f3ef8bc414cf2a5097f8cf34b5aaf397684f18f72ef7909239bf3081cf907976040516100f890610b56565b60405180910390a1005b600080fd5b34801561011357600080fd5b5061011c610342565b6040516101299190610bf5565b60405180910390f35b34801561013e57600080fd5b5061015960048036038101906101549190610cb0565b6103d0565b005b61016361047d565b005b34801561017157600080fd5b5061018c60048036038101906101879190610cf0565b610574565b6040516101999190610d2c565b60405180910390f35b3480156101ae57600080fd5b506101b76105ec565b6040516101c49190610d56565b60405180910390f35b6101e760048036038101906101e29190610cf0565b610612565b005b3480156101f557600080fd5b50610210600480360381019061020b9190610d71565b610704565b60405161021e929190610d9e565b60405180910390f35b34801561023357600080fd5b5061023c610758565b6040516102499190610d56565b60405180910390f35b34801561025e57600080fd5b5061027960048036038101906102749190610dc7565b61077c565b005b34801561028757600080fd5b506102a2600480360381019061029d9190610dc7565b61085c565b005b3480156102b057600080fd5b506102cb60048036038101906102c69190610d71565b61093c565b6040516102dc959493929190610e42565b60405180910390f35b3480156102f157600080fd5b5061030c60048036038101906103079190610d71565b6109a2565b60405161031d959493929190610e42565b60405180910390f35b610340600480360381019061033b9190610cf0565b610a08565b005b6005805461034f90610ec4565b80601f016020809104026020016040519081016040528092919081815260200182805461037b90610ec4565b80156103c85780601f1061039d576101008083540402835291602001916103c8565b820191906000526020600020905b8154815290600101906020018083116103ab57829003601f168201915b505050505081565b600360405180604001604052808473ffffffffffffffffffffffffffffffffffffffff16815260200183815250908060018154018082558091505060019003906000526020600020906002020160009091909190915060008201518160000160006101000a81548173ffffffffffffffffffffffffffffffffffffffff021916908373ffffffffffffffffffffffffffffffffffffffff1602179055506020820151816001015550505050565b60008054906101000a900473ffffffffffffffffffffffffffffffffffffffff1673ffffffffffffffffffffffffffffffffffffffff163373ffffffffffffffffffffffffffffffffffffffff161461050b576040517f08c379a000000000000000000000000000000000000000000000000000000000815260040161050290610f41565b60405180910390fd5b60008054906101000a900473ffffffffffffffffffffffffffffffffffffffff1673ffffffffffffffffffffffffffffffffffffffff166108fc479081150290604051600060405180830381858888f19350505050158015610571573d6000803e3d6000fd5b50565b60008173ffffffffffffffffffffffffffffffffffffffff1663facb4f616040518163ffffffff1660e01b8152600401602060405180830381865afa1580156105c1573d6000803e3d6000fd5b505050506040513d601f19601f820116820180604052508101906105e59190610f76565b9050919050565b600460009054906101000a900473ffffffffffffffffffffffffffffffffffffffff1681565b60008054906101000a900473ffffffffffffffffffffffffffffffffffffffff1673ffffffffffffffffffffffffffffffffffffffff163373ffffffffffffffffffffffffffffffffffffffff16146106a0576040517f08c379a000000000000000000000000000000000000000000000000000000000815260040161069790610f41565b60405180910390fd5b8073ffffffffffffffffffffffffffffffffffffffff16630a4bcbb1346040518263ffffffff1660e01b81526004016000604051808303818588803b1580156106e857600080fd5b505af11580156106fc573d6000803e3d6000fd5b505050505050565b6003818154811061071457600080fd5b90600052602060002090600202016000915090508060000160009054906101000a900473ffffffffffffffffffffffffffffffffffffffff16908060010154905082565b60008054906101000a900473ffffffffffffffffffffffffffffffffffffffff1681565b60016040518060a001604052808773ffffffffffffffffffffffffffffffffffffffff16815260200186815260200185815260200184815260200183815250908060018154018082558091505060019003906000526020600020906005020160009091909190915060008201518160000160006101000a81548173ffffffffffffffffffffffffffffffffffffffff021916908373ffffffffffffffffffffffffffffffffffffffff1602179055506020820151816001015560408201518160020155606082015181600301556080820151816004015550505050505050565b60026040518060a001604052808773ffffffffffffffffffffffffffffffffffffffff16815260200186815260200185815260200184815260200183815250908060018154018082558091505060019003906000526020600020906005020160009091909190915060008201518160000160006101000a81548173ffffffffffffffffffffffffffffffffffffffff021916908373ffffffffffffffffffffffffffffffffffffffff1602179055506020820151816001015560408201518160020155606082015181600301556080820151816004015550505050505050565b6002818154811061094c57600080fd5b90600052602060002090600502016000915090508060000160009054906101000a900473ffffffffffffffffffffffffffffffffffffffff16908060010154908060020154908060030154908060040154905085565b600181815481106109b257600080fd5b90600052602060002090600502016000915090508060000160009054906101000a900473ffffffffffffffffffffffffffffffffffffffff16908060010154908060020154908060030154908060040154905085565b60008054906101000a900473ffffffffffffffffffffffffffffffffffffffff1673ffffffffffffffffffffffffffffffffffffffff163373ffffffffffffffffffffffffffffffffffffffff1614610a96576040517f08c379a0000000000000000000000000000000000000000000000000000000008152600401610a8d90610f41565b60405180910390fd5b8073ffffffffffffffffffffffffffffffffffffffff166314468bf66040518163ffffffff1660e01b8152600401600060405180830381600087803b158015610ade57600080fd5b505af1158015610af2573d6000803e3d6000fd5b5050505050565b600082825260208201905092915050565b7f52656365697665642074686520616d6f756e7400000000000000000000000000600082015250565b6000610b40601383610af9565b9150610b4b82610b0a565b602082019050919050565b60006020820190508181036000830152610b6f81610b33565b9050919050565b600081519050919050565b60005b83811015610b9f578082015181840152602081019050610b84565b60008484015250505050565b6000601f19601f8301169050919050565b6000610bc782610b76565b610bd18185610af9565b9350610be1818560208601610b81565b610bea81610bab565b840191505092915050565b60006020820190508181036000830152610c0f8184610bbc565b905092915050565b600080fd5b600073ffffffffffffffffffffffffffffffffffffffff82169050919050565b6000610c4782610c1c565b9050919050565b610c5781610c3c565b8114610c6257600080fd5b50565b600081359050610c7481610c4e565b92915050565b6000819050919050565b610c8d81610c7a565b8114610c9857600080fd5b50565b600081359050610caa81610c84565b92915050565b60008060408385031215610cc757610cc6610c17565b5b6000610cd585828601610c65565b9250506020610ce685828601610c9b565b9150509250929050565b600060208284031215610d0657610d05610c17565b5b6000610d1484828501610c65565b91505092915050565b610d2681610c7a565b82525050565b6000602082019050610d416000830184610d1d565b92915050565b610d5081610c3c565b82525050565b6000602082019050610d6b6000830184610d47565b92915050565b600060208284031215610d8757610d86610c17565b5b6000610d9584828501610c9b565b91505092915050565b6000604082019050610db36000830185610d47565b610dc06020830184610d1d565b9392505050565b600080600080600060a08688031215610de357610de2610c17565b5b6000610df188828901610c65565b9550506020610e0288828901610c9b565b9450506040610e1388828901610c9b565b9350506060610e2488828901610c9b565b9250506080610e3588828901610c9b565b9150509295509295909350565b600060a082019050610e576000830188610d47565b610e646020830187610d1d565b610e716040830186610d1d565b610e7e6060830185610d1d565b610e8b6080830184610d1d565b9695505050505050565b7f4e487b7100000000000000000000000000000000000000000000000000000000600052602260045260246000fd5b60006002820490506001821680610edc57607f821691505b602082108103610eef57610eee610e95565b5b50919050565b7f4f776e6572204f6e6c7900000000000000000000000000000000000000000000600082015250565b6000610f2b600a83610af9565b9150610f3682610ef5565b602082019050919050565b60006020820190508181036000830152610f5a81610f1e565b9050919050565b600081519050610f7081610c84565b92915050565b600060208284031215610f8c57610f8b610c17565b5b6000610f9a84828501610f61565b9150509291505056fea26469706673582212209f09abb1398a708a6fdfb41c9139b2c11dbd747de492e123184993cbf1525c3864736f6c63430008120033",
  "immutableReferences": {},
  "source": "//SPDX-License// SPDX-License-Identifier: GPL-3.0\r\n\r\npragma solidity >=0.8.2 < 0.9.0;\r\n\r\n\r\ninterface StockInterface{\r\n    function buyOrder() external payable;\r\n    function sellOrder() external payable;\r\n    function unsold_amount() view external returns(uint);\r\n}\r\n\r\nstruct BuyTransaction {\r\n        address stockid;\r\n        uint256 buyprice;\r\n        uint256 amount;\r\n        uint256 timestamp;\r\n        uint256 transactionid;\r\n    }\r\nstruct SellTransaction {\r\n        address stockid;\r\n        uint256 sellprice;\r\n        uint256 amount;\r\n        uint256 timestamp;\r\n        uint256 transactionid;\r\n    }\r\nstruct CurrentTransaction {\r\n        address stockid;\r\n        uint256 amount;\r\n    }\r\n\r\ncontract Trader {\r\n    address public owner;\r\n    \r\n    modifier restricted() {\r\n        require(msg.sender == owner,\"Owner Only\");\r\n        _;\r\n    }\r\n\r\n    constructor(string memory _name,address _address) {\r\n        owner = _address;\r\n        name = _name;\r\n    }\r\n\r\n    SellTransaction[] public sellTransact;\r\n    BuyTransaction[] public buyTransact;\r\n    CurrentTransaction[] public currentTransact;\r\n\r\n    address public metamaskid;\r\n    string public name; \r\n    \r\n    event printString(string val);\r\n\r\n    receive() payable external {\r\n        emit printString(\"Received the amount\");\r\n    }\r\n\r\n    function pushSellDetials(address _stockid,uint256 _sellprice,uint256 _amount,uint256 _timestamp,uint256 _transactionid)public{\r\n        sellTransact.push(SellTransaction(_stockid,_sellprice,_amount,_timestamp,_transactionid));\r\n    }\r\n\r\n    function retriveBuyDetails(address _stockid,uint256 _buyprice,uint256 _amount,uint256 _timestamp,uint256 _transactionid)public{\r\n        buyTransact.push(BuyTransaction(_stockid,_buyprice,_amount,_timestamp,_transactionid));\r\n    }   \r\n\r\n    function retriveCurrentDetails(address _stockid,uint256 _amount)public{\r\n        currentTransact.push(CurrentTransaction(_stockid,_amount));\r\n    }\r\n\r\n    function unsold_amount(address _contractAddress) public view returns(uint){\r\n        return StockInterface(_contractAddress).unsold_amount();\r\n    }\r\n\r\n    function buyOrder(address _contractAddress) external restricted payable{\r\n        StockInterface(_contractAddress).buyOrder{value: msg.value}();\r\n    }\r\n\r\n    function sellOrder(address _contractAddress) external restricted payable{\r\n        StockInterface(_contractAddress).sellOrder();\r\n    }\r\n    function withdraw() external restricted payable{\r\n        payable(owner).transfer(address(this).balance);\r\n    }\r\n}",
  "sourcePath": "E:\\Coding\\Blockchain\\reactStarter\\truffle\\contracts\\Trader.sol",
  "compiler": {
    "name": "solc",
    "version": "0.8.18+commit.87f61d96.Emscripten.clang"
  },
  "schemaVersion": "3.4.13",
  "updatedAt": "2023-04-09T10:47:20.507Z",
  "devdoc": {
    "kind": "dev",
    "methods": {},
    "version": 1
  },
  "userdoc": {
    "kind": "user",
    "methods": {},
    "version": 1
  }
}