{
  "contractName": "Trader",
  "abi": [
    {
      "inputs": [
        {
          "internalType": "string",
          "name": "_name",
          "type": "string"
        },
        {
          "internalType": "address",
          "name": "_address",
          "type": "address"
        }
      ],
      "stateMutability": "nonpayable",
      "type": "constructor"
    },
    {
      "anonymous": false,
      "inputs": [
        {
          "indexed": false,
          "internalType": "string",
          "name": "val",
          "type": "string"
        }
      ],
      "name": "printString",
      "type": "event"
    },
    {
      "anonymous": false,
      "inputs": [
        {
          "indexed": false,
          "internalType": "uint256",
          "name": "val",
          "type": "uint256"
        }
      ],
      "name": "printUint",
      "type": "event"
    },
    {
      "inputs": [],
      "name": "name",
      "outputs": [
        {
          "internalType": "string",
          "name": "",
          "type": "string"
        }
      ],
      "stateMutability": "view",
      "type": "function"
    },
    {
      "inputs": [],
      "name": "owner",
      "outputs": [
        {
          "internalType": "address",
          "name": "",
          "type": "address"
        }
      ],
      "stateMutability": "view",
      "type": "function"
    },
    {
      "inputs": [
        {
          "internalType": "address",
          "name": "",
          "type": "address"
        }
      ],
      "name": "stockIndex",
      "outputs": [
        {
          "internalType": "uint256",
          "name": "",
          "type": "uint256"
        }
      ],
      "stateMutability": "view",
      "type": "function"
    },
    {
      "stateMutability": "payable",
      "type": "receive"
    },
    {
      "inputs": [],
      "name": "verifyWallet",
      "outputs": [
        {
          "internalType": "bool",
          "name": "",
          "type": "bool"
        }
      ],
      "stateMutability": "view",
      "type": "function"
    },
    {
      "inputs": [],
      "name": "getStocks",
      "outputs": [
        {
          "components": [
            {
              "internalType": "string",
              "name": "name",
              "type": "string"
            },
            {
              "internalType": "address",
              "name": "stockAddress",
              "type": "address"
            },
            {
              "internalType": "uint256",
              "name": "amount",
              "type": "uint256"
            }
          ],
          "internalType": "struct Stock[]",
          "name": "",
          "type": "tuple[]"
        }
      ],
      "stateMutability": "view",
      "type": "function"
    },
    {
      "inputs": [
        {
          "internalType": "address",
          "name": "_contractAddress",
          "type": "address"
        }
      ],
      "name": "unsold_amount",
      "outputs": [
        {
          "internalType": "uint256",
          "name": "",
          "type": "uint256"
        }
      ],
      "stateMutability": "view",
      "type": "function"
    },
    {
      "inputs": [
        {
          "internalType": "string",
          "name": "_stockName",
          "type": "string"
        },
        {
          "internalType": "address",
          "name": "_stockAddress",
          "type": "address"
        }
      ],
      "name": "buyOrder",
      "outputs": [],
      "stateMutability": "payable",
      "type": "function"
    },
    {
      "inputs": [
        {
          "internalType": "address",
          "name": "_stockAddress",
          "type": "address"
        }
      ],
      "name": "sellOrder",
      "outputs": [],
      "stateMutability": "payable",
      "type": "function"
    },
    {
      "inputs": [],
      "name": "withdraw",
      "outputs": [],
      "stateMutability": "payable",
      "type": "function"
    }
  ],
  "bytecode": "0x60806040523480156200001157600080fd5b5060405162001f0238038062001f02833981810160405281019062000037919062000361565b806000806101000a81548173ffffffffffffffffffffffffffffffffffffffff021916908373ffffffffffffffffffffffffffffffffffffffff160217905550816001908162000088919062000612565b5060036040518060600160405280604051806020016040528060008152508152602001600073ffffffffffffffffffffffffffffffffffffffff1681526020016000815250908060018154018082558091505060019003906000526020600020906003020160009091909190915060008201518160000190816200010d919062000612565b5060208201518160010160006101000a81548173ffffffffffffffffffffffffffffffffffffffff021916908373ffffffffffffffffffffffffffffffffffffffff1602179055506040820151816002015550505050620006f9565b6000604051905090565b600080fd5b600080fd5b600080fd5b600080fd5b6000601f19601f8301169050919050565b7f4e487b7100000000000000000000000000000000000000000000000000000000600052604160045260246000fd5b620001d28262000187565b810181811067ffffffffffffffff82111715620001f457620001f362000198565b5b80604052505050565b60006200020962000169565b9050620002178282620001c7565b919050565b600067ffffffffffffffff8211156200023a576200023962000198565b5b620002458262000187565b9050602081019050919050565b60005b838110156200027257808201518184015260208101905062000255565b60008484015250505050565b6000620002956200028f846200021c565b620001fd565b905082815260208101848484011115620002b457620002b362000182565b5b620002c184828562000252565b509392505050565b600082601f830112620002e157620002e06200017d565b5b8151620002f38482602086016200027e565b91505092915050565b600073ffffffffffffffffffffffffffffffffffffffff82169050919050565b60006200032982620002fc565b9050919050565b6200033b816200031c565b81146200034757600080fd5b50565b6000815190506200035b8162000330565b92915050565b600080604083850312156200037b576200037a62000173565b5b600083015167ffffffffffffffff8111156200039c576200039b62000178565b5b620003aa85828601620002c9565b9250506020620003bd858286016200034a565b9150509250929050565b600081519050919050565b7f4e487b7100000000000000000000000000000000000000000000000000000000600052602260045260246000fd5b600060028204905060018216806200041a57607f821691505b60208210810362000430576200042f620003d2565b5b50919050565b60008190508160005260206000209050919050565b60006020601f8301049050919050565b600082821b905092915050565b6000600883026200049a7fffffffffffffffffffffffffffffffffffffffffffffffffffffffffffffffff826200045b565b620004a686836200045b565b95508019841693508086168417925050509392505050565b6000819050919050565b6000819050919050565b6000620004f3620004ed620004e784620004be565b620004c8565b620004be565b9050919050565b6000819050919050565b6200050f83620004d2565b620005276200051e82620004fa565b84845462000468565b825550505050565b600090565b6200053e6200052f565b6200054b81848462000504565b505050565b5b8181101562000573576200056760008262000534565b60018101905062000551565b5050565b601f821115620005c2576200058c8162000436565b62000597846200044b565b81016020851015620005a7578190505b620005bf620005b6856200044b565b83018262000550565b50505b505050565b600082821c905092915050565b6000620005e760001984600802620005c7565b1980831691505092915050565b6000620006028383620005d4565b9150826002028217905092915050565b6200061d82620003c7565b67ffffffffffffffff81111562000639576200063862000198565b5b62000645825462000401565b6200065282828562000577565b600060209050601f8311600181146200068a576000841562000675578287015190505b620006818582620005f4565b865550620006f1565b601f1984166200069a8662000436565b60005b82811015620006c4578489015182556001820191506020850194506020810190506200069d565b86831015620006e45784890151620006e0601f891682620005d4565b8355505b6001600288020188555050505b505050505050565b6117f980620007096000396000f3fe60806040526004361061008a5760003560e01c80635cef5334116100595780635cef5334146101685780638da5cb5b14610193578063968f7865146101be578063f31ab4c2146101da578063faf2363e14610217576100c6565b806306fdde03146100cb57806321533ab5146100f65780633ccfd60b14610121578063499eb8831461012b576100c6565b366100c6577f0f3ef8bc414cf2a5097f8cf34b5aaf397684f18f72ef7909239bf3081cf907976040516100bc90610d61565b60405180910390a1005b600080fd5b3480156100d757600080fd5b506100e0610233565b6040516100ed9190610e00565b60405180910390f35b34801561010257600080fd5b5061010b6102c1565b6040516101189190610fd8565b60405180910390f35b6101296104a0565b005b34801561013757600080fd5b50610152600480360381019061014d919061103a565b6105ce565b60405161015f9190611076565b60405180910390f35b34801561017457600080fd5b5061017d610646565b60405161018a91906110ac565b60405180910390f35b34801561019f57600080fd5b506101a86106ad565b6040516101b591906110d6565b60405180910390f35b6101d860048036038101906101d39190611226565b6106d1565b005b3480156101e657600080fd5b5061020160048036038101906101fc919061103a565b6109f9565b60405161020e9190611076565b60405180910390f35b610231600480360381019061022c919061103a565b610a11565b005b60018054610240906112b1565b80601f016020809104026020016040519081016040528092919081815260200182805461026c906112b1565b80156102b95780601f1061028e576101008083540402835291602001916102b9565b820191906000526020600020905b81548152906001019060200180831161029c57829003601f168201915b505050505081565b606060008054906101000a900473ffffffffffffffffffffffffffffffffffffffff1673ffffffffffffffffffffffffffffffffffffffff163373ffffffffffffffffffffffffffffffffffffffff1614610351576040517f08c379a00000000000000000000000000000000000000000000000000000000081526004016103489061132e565b60405180910390fd5b6003805480602002602001604051908101604052809291908181526020016000905b8282101561049757838290600052602060002090600302016040518060600160405290816000820180546103a6906112b1565b80601f01602080910402602001604051908101604052809291908181526020018280546103d2906112b1565b801561041f5780601f106103f45761010080835404028352916020019161041f565b820191906000526020600020905b81548152906001019060200180831161040257829003601f168201915b505050505081526020016001820160009054906101000a900473ffffffffffffffffffffffffffffffffffffffff1673ffffffffffffffffffffffffffffffffffffffff1673ffffffffffffffffffffffffffffffffffffffff16815260200160028201548152505081526020019060010190610373565b50505050905090565b60008054906101000a900473ffffffffffffffffffffffffffffffffffffffff1673ffffffffffffffffffffffffffffffffffffffff163373ffffffffffffffffffffffffffffffffffffffff161461052e576040517f08c379a00000000000000000000000000000000000000000000000000000000081526004016105259061132e565b60405180910390fd5b7f75f5e2815b22cabc38a2224bbde1f65300741c8bb05684f90e2e074734eb7c434760405161055d9190611076565b60405180910390a160008054906101000a900473ffffffffffffffffffffffffffffffffffffffff1673ffffffffffffffffffffffffffffffffffffffff166108fc479081150290604051600060405180830381858888f193505050501580156105cb573d6000803e3d6000fd5b50565b60008173ffffffffffffffffffffffffffffffffffffffff1663facb4f616040518163ffffffff1660e01b8152600401602060405180830381865afa15801561061b573d6000803e3d6000fd5b505050506040513d601f19601f8201168201806040525081019061063f919061137a565b9050919050565b60008060009054906101000a900473ffffffffffffffffffffffffffffffffffffffff1673ffffffffffffffffffffffffffffffffffffffff163373ffffffffffffffffffffffffffffffffffffffff16036106a557600190506106aa565b600090505b90565b60008054906101000a900473ffffffffffffffffffffffffffffffffffffffff1681565b60008054906101000a900473ffffffffffffffffffffffffffffffffffffffff1673ffffffffffffffffffffffffffffffffffffffff163373ffffffffffffffffffffffffffffffffffffffff161461075f576040517f08c379a00000000000000000000000000000000000000000000000000000000081526004016107569061132e565b60405180910390fd5b8073ffffffffffffffffffffffffffffffffffffffff16630a4bcbb1346040518263ffffffff1660e01b81526004016000604051808303818588803b1580156107a757600080fd5b505af11580156107bb573d6000803e3d6000fd5b50505050506000600260008373ffffffffffffffffffffffffffffffffffffffff1673ffffffffffffffffffffffffffffffffffffffff168152602001908152602001600020540361091b57600380549050600260008373ffffffffffffffffffffffffffffffffffffffff1673ffffffffffffffffffffffffffffffffffffffff16815260200190815260200160002081905550600360405180606001604052808481526020018373ffffffffffffffffffffffffffffffffffffffff1681526020016001815250908060018154018082558091505060019003906000526020600020906003020160009091909190915060008201518160000190816108c29190611553565b5060208201518160010160006101000a81548173ffffffffffffffffffffffffffffffffffffffff021916908373ffffffffffffffffffffffffffffffffffffffff1602179055506040820151816002015550506109f5565b60016003600260008473ffffffffffffffffffffffffffffffffffffffff1673ffffffffffffffffffffffffffffffffffffffff16815260200190815260200160002054815481106109705761096f611625565b5b90600052602060002090600302016002015461098c9190611683565b6003600260008473ffffffffffffffffffffffffffffffffffffffff1673ffffffffffffffffffffffffffffffffffffffff16815260200190815260200160002054815481106109df576109de611625565b5b9060005260206000209060030201600201819055505b5050565b60026020528060005260406000206000915090505481565b60008054906101000a900473ffffffffffffffffffffffffffffffffffffffff1673ffffffffffffffffffffffffffffffffffffffff163373ffffffffffffffffffffffffffffffffffffffff1614610a9f576040517f08c379a0000000000000000000000000000000000000000000000000000000008152600401610a969061132e565b60405180910390fd5b6000600260008373ffffffffffffffffffffffffffffffffffffffff1673ffffffffffffffffffffffffffffffffffffffff1681526020019081526020016000205403610b21576040517f08c379a0000000000000000000000000000000000000000000000000000000008152600401610b1890611703565b60405180910390fd5b60006003600260008473ffffffffffffffffffffffffffffffffffffffff1673ffffffffffffffffffffffffffffffffffffffff1681526020019081526020016000205481548110610b7657610b75611625565b5b90600052602060002090600302016002015411610bc8576040517f08c379a0000000000000000000000000000000000000000000000000000000008152600401610bbf9061176f565b60405180910390fd5b8073ffffffffffffffffffffffffffffffffffffffff166314468bf66040518163ffffffff1660e01b8152600401600060405180830381600087803b158015610c1057600080fd5b505af1158015610c24573d6000803e3d6000fd5b5050505060016003600260008473ffffffffffffffffffffffffffffffffffffffff1673ffffffffffffffffffffffffffffffffffffffff1681526020019081526020016000205481548110610c7d57610c7c611625565b5b906000526020600020906003020160020154610c99919061178f565b6003600260008473ffffffffffffffffffffffffffffffffffffffff1673ffffffffffffffffffffffffffffffffffffffff1681526020019081526020016000205481548110610cec57610ceb611625565b5b90600052602060002090600302016002018190555050565b600082825260208201905092915050565b7f52656365697665642074686520616d6f756e7400000000000000000000000000600082015250565b6000610d4b601383610d04565b9150610d5682610d15565b602082019050919050565b60006020820190508181036000830152610d7a81610d3e565b9050919050565b600081519050919050565b60005b83811015610daa578082015181840152602081019050610d8f565b60008484015250505050565b6000601f19601f8301169050919050565b6000610dd282610d81565b610ddc8185610d04565b9350610dec818560208601610d8c565b610df581610db6565b840191505092915050565b60006020820190508181036000830152610e1a8184610dc7565b905092915050565b600081519050919050565b600082825260208201905092915050565b6000819050602082019050919050565b600082825260208201905092915050565b6000610e6a82610d81565b610e748185610e4e565b9350610e84818560208601610d8c565b610e8d81610db6565b840191505092915050565b600073ffffffffffffffffffffffffffffffffffffffff82169050919050565b6000610ec382610e98565b9050919050565b610ed381610eb8565b82525050565b6000819050919050565b610eec81610ed9565b82525050565b60006060830160008301518482036000860152610f0f8282610e5f565b9150506020830151610f246020860182610eca565b506040830151610f376040860182610ee3565b508091505092915050565b6000610f4e8383610ef2565b905092915050565b6000602082019050919050565b6000610f6e82610e22565b610f788185610e2d565b935083602082028501610f8a85610e3e565b8060005b85811015610fc65784840389528151610fa78582610f42565b9450610fb283610f56565b925060208a01995050600181019050610f8e565b50829750879550505050505092915050565b60006020820190508181036000830152610ff28184610f63565b905092915050565b6000604051905090565b600080fd5b600080fd5b61101781610eb8565b811461102257600080fd5b50565b6000813590506110348161100e565b92915050565b6000602082840312156110505761104f611004565b5b600061105e84828501611025565b91505092915050565b61107081610ed9565b82525050565b600060208201905061108b6000830184611067565b92915050565b60008115159050919050565b6110a681611091565b82525050565b60006020820190506110c1600083018461109d565b92915050565b6110d081610eb8565b82525050565b60006020820190506110eb60008301846110c7565b92915050565b600080fd5b600080fd5b7f4e487b7100000000000000000000000000000000000000000000000000000000600052604160045260246000fd5b61113382610db6565b810181811067ffffffffffffffff82111715611152576111516110fb565b5b80604052505050565b6000611165610ffa565b9050611171828261112a565b919050565b600067ffffffffffffffff821115611191576111906110fb565b5b61119a82610db6565b9050602081019050919050565b82818337600083830152505050565b60006111c96111c484611176565b61115b565b9050828152602081018484840111156111e5576111e46110f6565b5b6111f08482856111a7565b509392505050565b600082601f83011261120d5761120c6110f1565b5b813561121d8482602086016111b6565b91505092915050565b6000806040838503121561123d5761123c611004565b5b600083013567ffffffffffffffff81111561125b5761125a611009565b5b611267858286016111f8565b925050602061127885828601611025565b9150509250929050565b7f4e487b7100000000000000000000000000000000000000000000000000000000600052602260045260246000fd5b600060028204905060018216806112c957607f821691505b6020821081036112dc576112db611282565b5b50919050565b7f4f776e6572204f6e6c7900000000000000000000000000000000000000000000600082015250565b6000611318600a83610d04565b9150611323826112e2565b602082019050919050565b600060208201905081810360008301526113478161130b565b9050919050565b61135781610ed9565b811461136257600080fd5b50565b6000815190506113748161134e565b92915050565b6000602082840312156113905761138f611004565b5b600061139e84828501611365565b91505092915050565b60008190508160005260206000209050919050565b60006020601f8301049050919050565b600082821b905092915050565b6000600883026114097fffffffffffffffffffffffffffffffffffffffffffffffffffffffffffffffff826113cc565b61141386836113cc565b95508019841693508086168417925050509392505050565b6000819050919050565b600061145061144b61144684610ed9565b61142b565b610ed9565b9050919050565b6000819050919050565b61146a83611435565b61147e61147682611457565b8484546113d9565b825550505050565b600090565b611493611486565b61149e818484611461565b505050565b5b818110156114c2576114b760008261148b565b6001810190506114a4565b5050565b601f821115611507576114d8816113a7565b6114e1846113bc565b810160208510156114f0578190505b6115046114fc856113bc565b8301826114a3565b50505b505050565b600082821c905092915050565b600061152a6000198460080261150c565b1980831691505092915050565b60006115438383611519565b9150826002028217905092915050565b61155c82610d81565b67ffffffffffffffff811115611575576115746110fb565b5b61157f82546112b1565b61158a8282856114c6565b600060209050601f8311600181146115bd57600084156115ab578287015190505b6115b58582611537565b86555061161d565b601f1984166115cb866113a7565b60005b828110156115f3578489015182556001820191506020850194506020810190506115ce565b86831015611610578489015161160c601f891682611519565b8355505b6001600288020188555050505b505050505050565b7f4e487b7100000000000000000000000000000000000000000000000000000000600052603260045260246000fd5b7f4e487b7100000000000000000000000000000000000000000000000000000000600052601160045260246000fd5b600061168e82610ed9565b915061169983610ed9565b92508282019050808211156116b1576116b0611654565b5b92915050565b7f596f7520646f6e74206861766520746869732073746f636b2e00000000000000600082015250565b60006116ed601983610d04565b91506116f8826116b7565b602082019050919050565b6000602082019050818103600083015261171c816116e0565b9050919050565b7f596f752068617665203020616d6f756e74206f6620746869732053746f636b2e600082015250565b6000611759602083610d04565b915061176482611723565b602082019050919050565b600060208201905081810360008301526117888161174c565b9050919050565b600061179a82610ed9565b91506117a583610ed9565b92508282039050818111156117bd576117bc611654565b5b9291505056fea2646970667358221220ca93e11ba4046a0e4a7b14082fdf4f321c98447c7c8746608fe1139d5717d9a564736f6c63430008120033",
  "immutableReferences": {},
  "source": "//SPDX-License// SPDX-License-Identifier: GPL-3.0\r\n\r\npragma solidity >=0.8.2 <0.9.0;\r\n\r\ninterface StockInterface {\r\n    function buyOrder() external payable;\r\n\r\n    function sellOrder() external payable;\r\n\r\n    function unsold_amount() external view returns (uint);\r\n}\r\n\r\nstruct Stock {\r\n    string name;\r\n    address stockAddress;\r\n    uint amount;\r\n}\r\n\r\n// struct BuyTransaction {\r\n//         address stockid;\r\n//         uint256 buyprice;\r\n//         uint256 amount;\r\n//         uint256 timestamp;\r\n//         uint256 transactionid;\r\n//     }\r\n// struct SellTransaction {\r\n//         address stockid;\r\n//         uint256 sellprice;\r\n//         uint256 amount;\r\n//         uint256 timestamp;\r\n//         uint256 transactionid;\r\n//     }\r\n// struct CurrentTransaction {\r\n//         address stockid;\r\n//         uint256 amount;\r\n//     }\r\n\r\ncontract Trader {\r\n    address public owner;\r\n    string public name;\r\n    mapping(address => uint) public stockIndex;\r\n    Stock[] stocks;\r\n\r\n    event printString(string val);\r\n    event printUint(uint val);\r\n\r\n    modifier restricted() {\r\n        require(msg.sender == owner, \"Owner Only\");\r\n        _;\r\n    }\r\n\r\n    \r\n\r\n    constructor(string memory _name, address _address) {\r\n        owner = _address;\r\n        name = _name;\r\n        stocks.push(Stock({name: \"\", stockAddress: address(0), amount: 0}));\r\n    }\r\n\r\n    // SellTransaction[] public sellTransact;\r\n    // BuyTransaction[] public buyTransact;\r\n    // CurrentTransaction[] public currentTransact;\r\n\r\n    receive() external payable {\r\n        emit printString(\"Received the amount\");\r\n    }\r\n\r\n    // function pushSellDetials(address _stockid,uint256 _sellprice,uint256 _amount,uint256 _timestamp,uint256 _transactionid)public{\r\n    //     sellTransact.push(SellTransaction(_stockid,_sellprice,_amount,_timestamp,_transactionid));\r\n    // }\r\n\r\n    // function retreiveBuyDetails(address _stockid,uint256 _buyprice,uint256 _amount,uint256 _timestamp,uint256 _transactionid)public{\r\n    //     buyTransact.push(BuyTransaction(_stockid,_buyprice,_amount,_timestamp,_transactionid));\r\n    // }\r\n\r\n    // function retriveCurrentDetails(address _stockid,uint256 _amount)public{\r\n    //     currentTransact.push(CurrentTransaction(_stockid,_amount));\r\n    // }\r\n\r\n    // function getStocks(uint _index) view public returns(Stock memory){\r\n    //     return stocks[_index];\r\n    // }\r\n\r\n    function verifyWallet() view public returns(bool){\r\n        if(msg.sender == owner){\r\n            return true;\r\n        }\r\n        return false;\r\n    }\r\n\r\n    function getStocks() view public restricted returns(Stock[] memory){\r\n        return stocks;\r\n    }\r\n\r\n    function unsold_amount(\r\n        address _contractAddress\r\n    ) public view returns (uint) {\r\n        return StockInterface(_contractAddress).unsold_amount();\r\n    }\r\n\r\n    function buyOrder(\r\n        string memory _stockName,\r\n        address _stockAddress\r\n    ) external payable restricted {\r\n        StockInterface(_stockAddress).buyOrder{value: msg.value}();\r\n        if (stockIndex[_stockAddress] == 0) {\r\n            stockIndex[_stockAddress] = stocks.length;\r\n            stocks.push(\r\n                Stock({\r\n                    name: _stockName,\r\n                    stockAddress: _stockAddress,\r\n                    amount: 1\r\n                })\r\n            );\r\n        } else {\r\n            stocks[stockIndex[_stockAddress]].amount =\r\n                stocks[stockIndex[_stockAddress]].amount +\r\n                1;\r\n        }\r\n    }\r\n\r\n    function sellOrder(address _stockAddress) external payable restricted {\r\n        require(stockIndex[_stockAddress] != 0, \"You dont have this stock.\");\r\n        require(stocks[stockIndex[_stockAddress]].amount > 0, \"You have 0 amount of this Stock.\");\r\n        StockInterface(_stockAddress).sellOrder();\r\n        stocks[stockIndex[_stockAddress]].amount = stocks[stockIndex[_stockAddress]].amount - 1;\r\n    }\r\n\r\n    function withdraw() external payable restricted {\r\n        emit printUint(address(this).balance);\r\n        payable(owner).transfer(address(this).balance);\r\n    }\r\n}\r\n",
  "sourcePath": "E:\\Coding\\Blockchain\\reactStarter\\truffle\\contracts\\Trader.sol",
  "compiler": {
    "name": "solc",
    "version": "0.8.18+commit.87f61d96.Emscripten.clang"
  },
  "schemaVersion": "3.4.13",
  "updatedAt": "2023-04-11T04:39:43.206Z",
  "devdoc": {
    "kind": "dev",
    "methods": {},
    "version": 1
  },
  "userdoc": {
    "kind": "user",
    "methods": {},
    "version": 1
  }
}