{
  "contractName": "Whitelist",
  "abi": [
    {
      "inputs": [],
      "stateMutability": "nonpayable",
      "type": "constructor"
    },
    {
      "inputs": [],
      "name": "getStocks",
      "outputs": [
        {
          "components": [
            {
              "internalType": "string",
              "name": "name",
              "type": "string"
            },
            {
              "internalType": "address",
              "name": "stockAddress",
              "type": "address"
            }
          ],
          "internalType": "struct Stock[]",
          "name": "",
          "type": "tuple[]"
        }
      ],
      "stateMutability": "view",
      "type": "function"
    },
    {
      "inputs": [],
      "name": "getTraders",
      "outputs": [
        {
          "components": [
            {
              "internalType": "string",
              "name": "name",
              "type": "string"
            },
            {
              "internalType": "address",
              "name": "traderAddress",
              "type": "address"
            }
          ],
          "internalType": "struct Trader[]",
          "name": "",
          "type": "tuple[]"
        }
      ],
      "stateMutability": "view",
      "type": "function"
    },
    {
      "inputs": [
        {
          "internalType": "address",
          "name": "_walletAddress",
          "type": "address"
        }
      ],
      "name": "verifyWallet",
      "outputs": [
        {
          "internalType": "bool",
          "name": "",
          "type": "bool"
        }
      ],
      "stateMutability": "view",
      "type": "function"
    },
    {
      "inputs": [
        {
          "internalType": "address",
          "name": "_contractAddress",
          "type": "address"
        }
      ],
      "name": "verifyTrader",
      "outputs": [
        {
          "internalType": "bool",
          "name": "",
          "type": "bool"
        }
      ],
      "stateMutability": "view",
      "type": "function"
    },
    {
      "inputs": [
        {
          "internalType": "string",
          "name": "_name",
          "type": "string"
        },
        {
          "internalType": "address",
          "name": "_walletAddress",
          "type": "address"
        },
        {
          "internalType": "address",
          "name": "_contractAddress",
          "type": "address"
        }
      ],
      "name": "addTrader",
      "outputs": [],
      "stateMutability": "nonpayable",
      "type": "function"
    },
    {
      "inputs": [
        {
          "internalType": "address",
          "name": "_walletAddress",
          "type": "address"
        }
      ],
      "name": "getTraderAddress",
      "outputs": [
        {
          "internalType": "address",
          "name": "",
          "type": "address"
        }
      ],
      "stateMutability": "view",
      "type": "function"
    },
    {
      "inputs": [
        {
          "internalType": "string",
          "name": "_name",
          "type": "string"
        }
      ],
      "name": "checkStock",
      "outputs": [
        {
          "internalType": "bool",
          "name": "",
          "type": "bool"
        }
      ],
      "stateMutability": "view",
      "type": "function"
    },
    {
      "inputs": [
        {
          "internalType": "string",
          "name": "_name",
          "type": "string"
        }
      ],
      "name": "getStockAddress",
      "outputs": [
        {
          "internalType": "address",
          "name": "",
          "type": "address"
        }
      ],
      "stateMutability": "view",
      "type": "function"
    },
    {
      "inputs": [
        {
          "internalType": "string",
          "name": "_name",
          "type": "string"
        },
        {
          "internalType": "address",
          "name": "_address",
          "type": "address"
        }
      ],
      "name": "addStock",
      "outputs": [],
      "stateMutability": "nonpayable",
      "type": "function"
    }
  ],
  "bytecode": "0x6080604052730b44cac31591f42123b25eec8f8ae6b161b5610c6000806101000a81548173ffffffffffffffffffffffffffffffffffffffff021916908373ffffffffffffffffffffffffffffffffffffffff1602179055503480156200006557600080fd5b5060008054906101000a900473ffffffffffffffffffffffffffffffffffffffff1673ffffffffffffffffffffffffffffffffffffffff163373ffffffffffffffffffffffffffffffffffffffff1614620000f7576040517f08c379a0000000000000000000000000000000000000000000000000000000008152600401620000ee906200035e565b60405180910390fd5b600160405180604001604052806040518060400160405280600581526020017f6f776e65720000000000000000000000000000000000000000000000000000008152508152602001600073ffffffffffffffffffffffffffffffffffffffff16815250908060018154018082558091505060019003906000526020600020906002020160009091909190915060008201518160000190816200019a9190620005fa565b5060208201518160010160006101000a81548173ffffffffffffffffffffffffffffffffffffffff021916908373ffffffffffffffffffffffffffffffffffffffff1602179055505050600460405180604001604052806040518060400160405280600481526020017f6a756e6b000000000000000000000000000000000000000000000000000000008152508152602001600073ffffffffffffffffffffffffffffffffffffffff1681525090806001815401808255809150506001900390600052602060002090600202016000909190919091506000820151816000019081620002879190620005fa565b5060208201518160010160006101000a81548173ffffffffffffffffffffffffffffffffffffffff021916908373ffffffffffffffffffffffffffffffffffffffff1602179055505050620006e1565b600082825260208201905092915050565b7f4f6e6c7920476f7665726e6d656e74206163636f756e742063616e206372656160008201527f7465207468652077686974656c69737400000000000000000000000000000000602082015250565b600062000346603083620002d7565b91506200035382620002e8565b604082019050919050565b60006020820190508181036000830152620003798162000337565b9050919050565b600081519050919050565b7f4e487b7100000000000000000000000000000000000000000000000000000000600052604160045260246000fd5b7f4e487b7100000000000000000000000000000000000000000000000000000000600052602260045260246000fd5b600060028204905060018216806200040257607f821691505b602082108103620004185762000417620003ba565b5b50919050565b60008190508160005260206000209050919050565b60006020601f8301049050919050565b600082821b905092915050565b600060088302620004827fffffffffffffffffffffffffffffffffffffffffffffffffffffffffffffffff8262000443565b6200048e868362000443565b95508019841693508086168417925050509392505050565b6000819050919050565b6000819050919050565b6000620004db620004d5620004cf84620004a6565b620004b0565b620004a6565b9050919050565b6000819050919050565b620004f783620004ba565b6200050f6200050682620004e2565b84845462000450565b825550505050565b600090565b6200052662000517565b62000533818484620004ec565b505050565b5b818110156200055b576200054f6000826200051c565b60018101905062000539565b5050565b601f821115620005aa5762000574816200041e565b6200057f8462000433565b810160208510156200058f578190505b620005a76200059e8562000433565b83018262000538565b50505b505050565b600082821c905092915050565b6000620005cf60001984600802620005af565b1980831691505092915050565b6000620005ea8383620005bc565b9150826002028217905092915050565b620006058262000380565b67ffffffffffffffff8111156200062157620006206200038b565b5b6200062d8254620003e9565b6200063a8282856200055f565b600060209050601f8311600181146200067257600084156200065d578287015190505b620006698582620005dc565b865550620006d9565b601f19841662000682866200041e565b60005b82811015620006ac5784890151825560018201915060208501945060208101905062000685565b86831015620006cc5784890151620006c8601f891682620005bc565b8355505b6001600288020188555050505b505050505050565b6118be80620006f16000396000f3fe608060405234801561001057600080fd5b50600436106100935760003560e01c80638b239aa5116100665780638b239aa5146101345780638cd3e0e014610164578063a360feb114610180578063ad97fb2b1461019c578063fc399c79146101cc57610093565b806321533ab51461009857806350b95634146100b657806357b61360146100e6578063797fc8f114610104575b600080fd5b6100a06101fc565b6040516100ad9190610eb8565b60405180910390f35b6100d060048036038101906100cb9190610f1a565b610343565b6040516100dd9190610f62565b60405180910390f35b6100ee61039e565b6040516100fb919061107c565b60405180910390f35b61011e600480360381019061011991906111d3565b6104e5565b60405161012b9190610f62565b60405180910390f35b61014e600480360381019061014991906111d3565b610579565b60405161015b919061122b565b60405180910390f35b61017e60048036038101906101799190611246565b610646565b005b61019a600480360381019061019591906112b5565b6108ed565b005b6101b660048036038101906101b19190610f1a565b610a87565b6040516101c3919061122b565b60405180910390f35b6101e660048036038101906101e19190610f1a565b610c41565b6040516101f39190610f62565b60405180910390f35b60606004805480602002602001604051908101604052809291908181526020016000905b8282101561033a578382906000526020600020906002020160405180604001604052908160008201805461025390611340565b80601f016020809104026020016040519081016040528092919081815260200182805461027f90611340565b80156102cc5780601f106102a1576101008083540402835291602001916102cc565b820191906000526020600020905b8154815290600101906020018083116102af57829003601f168201915b505050505081526020016001820160009054906101000a900473ffffffffffffffffffffffffffffffffffffffff1673ffffffffffffffffffffffffffffffffffffffff1673ffffffffffffffffffffffffffffffffffffffff168152505081526020019060010190610220565b50505050905090565b600080600360008473ffffffffffffffffffffffffffffffffffffffff1673ffffffffffffffffffffffffffffffffffffffff16815260200190815260200160002054036103945760009050610399565b600190505b919050565b60606001805480602002602001604051908101604052809291908181526020016000905b828210156104dc57838290600052602060002090600202016040518060400160405290816000820180546103f590611340565b80601f016020809104026020016040519081016040528092919081815260200182805461042190611340565b801561046e5780601f106104435761010080835404028352916020019161046e565b820191906000526020600020905b81548152906001019060200180831161045157829003601f168201915b505050505081526020016001820160009054906101000a900473ffffffffffffffffffffffffffffffffffffffff1673ffffffffffffffffffffffffffffffffffffffff1673ffffffffffffffffffffffffffffffffffffffff1681525050815260200190600101906103c2565b50505050905090565b60008060009054906101000a900473ffffffffffffffffffffffffffffffffffffffff1673ffffffffffffffffffffffffffffffffffffffff163373ffffffffffffffffffffffffffffffffffffffff161461054057600080fd5b600060058360405161055291906113ad565b9081526020016040518091039020541461056f5760019050610574565b600090505b919050565b60008060058360405161058c91906113ad565b908152602001604051809103902054036105db576040517f08c379a00000000000000000000000000000000000000000000000000000000081526004016105d290611421565b60405180910390fd5b60046005836040516105ed91906113ad565b9081526020016040518091039020548154811061060d5761060c611441565b5b906000526020600020906002020160010160009054906101000a900473ffffffffffffffffffffffffffffffffffffffff169050919050565b60008054906101000a900473ffffffffffffffffffffffffffffffffffffffff1673ffffffffffffffffffffffffffffffffffffffff163373ffffffffffffffffffffffffffffffffffffffff161461069e57600080fd5b600073ffffffffffffffffffffffffffffffffffffffff16600260008473ffffffffffffffffffffffffffffffffffffffff1673ffffffffffffffffffffffffffffffffffffffff16815260200190815260200160002060009054906101000a900473ffffffffffffffffffffffffffffffffffffffff1673ffffffffffffffffffffffffffffffffffffffff161461076c576040517f08c379a0000000000000000000000000000000000000000000000000000000008152600401610763906114bc565b60405180910390fd5b80600260008473ffffffffffffffffffffffffffffffffffffffff1673ffffffffffffffffffffffffffffffffffffffff16815260200190815260200160002060006101000a81548173ffffffffffffffffffffffffffffffffffffffff021916908373ffffffffffffffffffffffffffffffffffffffff160217905550600180549050600360008373ffffffffffffffffffffffffffffffffffffffff1673ffffffffffffffffffffffffffffffffffffffff16815260200190815260200160002081905550600160405180604001604052808581526020018373ffffffffffffffffffffffffffffffffffffffff168152509080600181540180825580915050600190039060005260206000209060020201600090919091909150600082015181600001908161089e9190611692565b5060208201518160010160006101000a81548173ffffffffffffffffffffffffffffffffffffffff021916908373ffffffffffffffffffffffffffffffffffffffff1602179055505050505050565b60008054906101000a900473ffffffffffffffffffffffffffffffffffffffff1673ffffffffffffffffffffffffffffffffffffffff163373ffffffffffffffffffffffffffffffffffffffff161461094557600080fd5b600060058360405161095791906113ad565b908152602001604051809103902054146109a6576040517f08c379a000000000000000000000000000000000000000000000000000000000815260040161099d906117d6565b60405180910390fd5b6004805490506005836040516109bc91906113ad565b908152602001604051809103902081905550600460405180604001604052808481526020018373ffffffffffffffffffffffffffffffffffffffff1681525090806001815401808255809150506001900390600052602060002090600202016000909190919091506000820151816000019081610a399190611692565b5060208201518160010160006101000a81548173ffffffffffffffffffffffffffffffffffffffff021916908373ffffffffffffffffffffffffffffffffffffffff16021790555050505050565b60008073ffffffffffffffffffffffffffffffffffffffff16600260008473ffffffffffffffffffffffffffffffffffffffff1673ffffffffffffffffffffffffffffffffffffffff16815260200190815260200160002060009054906101000a900473ffffffffffffffffffffffffffffffffffffffff1673ffffffffffffffffffffffffffffffffffffffff1603610b56576040517f08c379a0000000000000000000000000000000000000000000000000000000008152600401610b4d90611868565b60405180910390fd5b600160036000600260008673ffffffffffffffffffffffffffffffffffffffff1673ffffffffffffffffffffffffffffffffffffffff16815260200190815260200160002060009054906101000a900473ffffffffffffffffffffffffffffffffffffffff1673ffffffffffffffffffffffffffffffffffffffff1673ffffffffffffffffffffffffffffffffffffffff1681526020019081526020016000205481548110610c0857610c07611441565b5b906000526020600020906002020160010160009054906101000a900473ffffffffffffffffffffffffffffffffffffffff169050919050565b60008073ffffffffffffffffffffffffffffffffffffffff16600260008473ffffffffffffffffffffffffffffffffffffffff1673ffffffffffffffffffffffffffffffffffffffff16815260200190815260200160002060009054906101000a900473ffffffffffffffffffffffffffffffffffffffff1673ffffffffffffffffffffffffffffffffffffffff1603610cde5760009050610ce3565b600190505b919050565b600081519050919050565b600082825260208201905092915050565b6000819050602082019050919050565b600081519050919050565b600082825260208201905092915050565b60005b83811015610d4e578082015181840152602081019050610d33565b60008484015250505050565b6000601f19601f8301169050919050565b6000610d7682610d14565b610d808185610d1f565b9350610d90818560208601610d30565b610d9981610d5a565b840191505092915050565b600073ffffffffffffffffffffffffffffffffffffffff82169050919050565b6000610dcf82610da4565b9050919050565b610ddf81610dc4565b82525050565b60006040830160008301518482036000860152610e028282610d6b565b9150506020830151610e176020860182610dd6565b508091505092915050565b6000610e2e8383610de5565b905092915050565b6000602082019050919050565b6000610e4e82610ce8565b610e588185610cf3565b935083602082028501610e6a85610d04565b8060005b85811015610ea65784840389528151610e878582610e22565b9450610e9283610e36565b925060208a01995050600181019050610e6e565b50829750879550505050505092915050565b60006020820190508181036000830152610ed28184610e43565b905092915050565b6000604051905090565b600080fd5b600080fd5b610ef781610dc4565b8114610f0257600080fd5b50565b600081359050610f1481610eee565b92915050565b600060208284031215610f3057610f2f610ee4565b5b6000610f3e84828501610f05565b91505092915050565b60008115159050919050565b610f5c81610f47565b82525050565b6000602082019050610f776000830184610f53565b92915050565b600081519050919050565b600082825260208201905092915050565b6000819050602082019050919050565b60006040830160008301518482036000860152610fc68282610d6b565b9150506020830151610fdb6020860182610dd6565b508091505092915050565b6000610ff28383610fa9565b905092915050565b6000602082019050919050565b600061101282610f7d565b61101c8185610f88565b93508360208202850161102e85610f99565b8060005b8581101561106a578484038952815161104b8582610fe6565b945061105683610ffa565b925060208a01995050600181019050611032565b50829750879550505050505092915050565b600060208201905081810360008301526110968184611007565b905092915050565b600080fd5b600080fd5b7f4e487b7100000000000000000000000000000000000000000000000000000000600052604160045260246000fd5b6110e082610d5a565b810181811067ffffffffffffffff821117156110ff576110fe6110a8565b5b80604052505050565b6000611112610eda565b905061111e82826110d7565b919050565b600067ffffffffffffffff82111561113e5761113d6110a8565b5b61114782610d5a565b9050602081019050919050565b82818337600083830152505050565b600061117661117184611123565b611108565b905082815260208101848484011115611192576111916110a3565b5b61119d848285611154565b509392505050565b600082601f8301126111ba576111b961109e565b5b81356111ca848260208601611163565b91505092915050565b6000602082840312156111e9576111e8610ee4565b5b600082013567ffffffffffffffff81111561120757611206610ee9565b5b611213848285016111a5565b91505092915050565b61122581610dc4565b82525050565b6000602082019050611240600083018461121c565b92915050565b60008060006060848603121561125f5761125e610ee4565b5b600084013567ffffffffffffffff81111561127d5761127c610ee9565b5b611289868287016111a5565b935050602061129a86828701610f05565b92505060406112ab86828701610f05565b9150509250925092565b600080604083850312156112cc576112cb610ee4565b5b600083013567ffffffffffffffff8111156112ea576112e9610ee9565b5b6112f6858286016111a5565b925050602061130785828601610f05565b9150509250929050565b7f4e487b7100000000000000000000000000000000000000000000000000000000600052602260045260246000fd5b6000600282049050600182168061135857607f821691505b60208210810361136b5761136a611311565b5b50919050565b600081905092915050565b600061138782610d14565b6113918185611371565b93506113a1818560208601610d30565b80840191505092915050565b60006113b9828461137c565b915081905092915050565b600082825260208201905092915050565b7f4e6f7420666f756e640000000000000000000000000000000000000000000000600082015250565b600061140b6009836113c4565b9150611416826113d5565b602082019050919050565b6000602082019050818103600083015261143a816113fe565b9050919050565b7f4e487b7100000000000000000000000000000000000000000000000000000000600052603260045260246000fd5b7f54726164657220616c7265616479204578697374730000000000000000000000600082015250565b60006114a66015836113c4565b91506114b182611470565b602082019050919050565b600060208201905081810360008301526114d581611499565b9050919050565b60008190508160005260206000209050919050565b60006020601f8301049050919050565b600082821b905092915050565b60006008830261153e7fffffffffffffffffffffffffffffffffffffffffffffffffffffffffffffffff82611501565b6115488683611501565b95508019841693508086168417925050509392505050565b6000819050919050565b6000819050919050565b600061158f61158a61158584611560565b61156a565b611560565b9050919050565b6000819050919050565b6115a983611574565b6115bd6115b582611596565b84845461150e565b825550505050565b600090565b6115d26115c5565b6115dd8184846115a0565b505050565b5b81811015611601576115f66000826115ca565b6001810190506115e3565b5050565b601f82111561164657611617816114dc565b611620846114f1565b8101602085101561162f578190505b61164361163b856114f1565b8301826115e2565b50505b505050565b600082821c905092915050565b60006116696000198460080261164b565b1980831691505092915050565b60006116828383611658565b9150826002028217905092915050565b61169b82610d14565b67ffffffffffffffff8111156116b4576116b36110a8565b5b6116be8254611340565b6116c9828285611605565b600060209050601f8311600181146116fc57600084156116ea578287015190505b6116f48582611676565b86555061175c565b601f19841661170a866114dc565b60005b828110156117325784890151825560018201915060208501945060208101905061170d565b8683101561174f578489015161174b601f891682611658565b8355505b6001600288020188555050505b505050505050565b7f53746f636b20776974682074686973206e616d652c20416c726561647920457860008201527f6973747300000000000000000000000000000000000000000000000000000000602082015250565b60006117c06024836113c4565b91506117cb82611764565b604082019050919050565b600060208201905081810360008301526117ef816117b3565b9050919050565b7f4e6f2054726164657220636f6e747261637420657869737420666f722074686960008201527f732077616c6c6574206164647265737373000000000000000000000000000000602082015250565b60006118526031836113c4565b915061185d826117f6565b604082019050919050565b6000602082019050818103600083015261188181611845565b905091905056fea26469706673582212201dd274d936e2b0e038fff165825c7c9d20d3657448228f4fa86af0306829b2c664736f6c63430008120033",
  "immutableReferences": {},
  "source": "//SPDX-License// SPDX-License-Identifier: GPL-3.0\r\n\r\npragma solidity >=0.8.2 < 0.9.0;\r\n\r\nstruct Stock{\r\n    string name;\r\n    address stockAddress;\r\n}\r\n\r\nstruct Trader{\r\n    string name;\r\n    address traderAddress;\r\n}\r\n\r\ncontract Whitelist{\r\n    address private government = 0x0B44caC31591F42123b25eec8f8AE6B161b5610C;\r\n    Trader[] traders;\r\n    mapping(address => address)  traderContractAddress;\r\n    mapping(address => uint)  traderIndex;\r\n    Stock[] stocks;\r\n    mapping(string => uint) stocksIndex;\r\n\r\n    constructor(){\r\n        require(msg.sender == government, \"Only Government account can create the whitelist\");\r\n        traders.push(Trader({\r\n            name: \"owner\",\r\n            traderAddress: 0x0000000000000000000000000000000000000000\r\n        }));\r\n        stocks.push(Stock({\r\n            name: \"junk\",\r\n            stockAddress: 0x0000000000000000000000000000000000000000\r\n        }));\r\n    }\r\n\r\n    modifier onlyOwner {\r\n      require(msg.sender == government);\r\n      _;\r\n    }\r\n\r\n    function getStocks() view public returns(Stock[] memory){\r\n        return stocks;\r\n    }\r\n    function getTraders() view public returns(Trader[] memory){\r\n        return traders;\r\n    }\r\n\r\n    function verifyWallet(address _walletAddress) view public returns(bool){\r\n        if(traderContractAddress[_walletAddress] == address(0)){\r\n            return false;\r\n        }\r\n        return true;\r\n    }\r\n\r\n    function verifyTrader(address _contractAddress)  view public returns(bool){\r\n        if(traderIndex[_contractAddress] == 0){\r\n            return false;\r\n        }\r\n        return true;\r\n    }\r\n\r\n    function addTrader(string memory _name,address _walletAddress, address _contractAddress) public onlyOwner {\r\n        require(traderContractAddress[_walletAddress] == address(0), \"Trader already Exists\");\r\n        traderContractAddress[_walletAddress] = _contractAddress;\r\n        traderIndex[_contractAddress] = traders.length;\r\n        traders.push(Trader({\r\n            name: _name,\r\n            traderAddress: _contractAddress \r\n        }));\r\n    }\r\n     \r\n    function getTraderAddress(address _walletAddress) view public returns(address) {\r\n        require(traderContractAddress[_walletAddress] != address(0), 'No Trader contract exist for this wallet addresss');\r\n        return (traders[traderIndex[traderContractAddress[_walletAddress]]].traderAddress);\r\n    }\r\n\r\n    function checkStock(string memory _name) view public onlyOwner returns(bool){\r\n        \r\n        if(stocksIndex[_name] != 0){\r\n            return true;\r\n        }\r\n        else {\r\n            return false;\r\n        }\r\n    }\r\n\r\n    function getStockAddress(string memory _name) view public returns(address){\r\n        require(stocksIndex[_name] != 0, \"Not found\");\r\n        return stocks[stocksIndex[_name]].stockAddress;\r\n    } \r\n    \r\n    function addStock(string memory _name, address _address) public onlyOwner {\r\n        require(stocksIndex[_name] == 0, \"Stock with this name, Already Exists\");\r\n        stocksIndex[_name] = stocks.length;\r\n        stocks.push(Stock({\r\n            name: _name, \r\n            stockAddress: _address\r\n        }));\r\n    }\r\n    \r\n\r\n}",
  "sourcePath": "E:\\Coding\\Blockchain\\reactStarter\\truffle\\contracts\\Whitelist.sol",
  "compiler": {
    "name": "solc",
    "version": "0.8.18+commit.87f61d96.Emscripten.clang"
  },
  "schemaVersion": "3.4.13",
  "updatedAt": "2023-04-14T13:40:04.200Z",
  "devdoc": {
    "kind": "dev",
    "methods": {},
    "version": 1
  },
  "userdoc": {
    "kind": "user",
    "methods": {},
    "version": 1
  }
}