{
  "contractName": "Whitelist",
  "abi": [
    {
      "inputs": [],
      "stateMutability": "nonpayable",
      "type": "constructor"
    },
    {
      "inputs": [
        {
          "internalType": "address",
          "name": "_address",
          "type": "address"
        }
      ],
      "name": "verifyTrader",
      "outputs": [
        {
          "internalType": "bool",
          "name": "",
          "type": "bool"
        }
      ],
      "stateMutability": "view",
      "type": "function"
    },
    {
      "inputs": [
        {
          "internalType": "string",
          "name": "_name",
          "type": "string"
        },
        {
          "internalType": "address",
          "name": "_walletAddress",
          "type": "address"
        },
        {
          "internalType": "address",
          "name": "_contractAddress",
          "type": "address"
        }
      ],
      "name": "addTrader",
      "outputs": [],
      "stateMutability": "nonpayable",
      "type": "function"
    },
    {
      "inputs": [
        {
          "internalType": "address",
          "name": "_walletAddress",
          "type": "address"
        }
      ],
      "name": "getTraderAddress",
      "outputs": [
        {
          "internalType": "address",
          "name": "",
          "type": "address"
        }
      ],
      "stateMutability": "view",
      "type": "function"
    },
    {
      "inputs": [
        {
          "internalType": "string",
          "name": "_name",
          "type": "string"
        }
      ],
      "name": "checkStock",
      "outputs": [
        {
          "internalType": "bool",
          "name": "",
          "type": "bool"
        }
      ],
      "stateMutability": "view",
      "type": "function"
    },
    {
      "inputs": [
        {
          "internalType": "string",
          "name": "_name",
          "type": "string"
        }
      ],
      "name": "getStockAddress",
      "outputs": [
        {
          "internalType": "address",
          "name": "",
          "type": "address"
        }
      ],
      "stateMutability": "view",
      "type": "function"
    },
    {
      "inputs": [
        {
          "internalType": "string",
          "name": "_name",
          "type": "string"
        },
        {
          "internalType": "address",
          "name": "_address",
          "type": "address"
        }
      ],
      "name": "addStock",
      "outputs": [],
      "stateMutability": "nonpayable",
      "type": "function"
    }
  ],
  "bytecode": "0x6080604052739bea1a961e2d19f37020f528ded95781f67d191b6000806101000a81548173ffffffffffffffffffffffffffffffffffffffff021916908373ffffffffffffffffffffffffffffffffffffffff1602179055503480156200006557600080fd5b50600160405180604001604052806040518060400160405280600581526020017f6f776e65720000000000000000000000000000000000000000000000000000008152508152602001600073ffffffffffffffffffffffffffffffffffffffff1681525090806001815401808255809150506001900390600052602060002090600202016000909190919091506000820151816000019081620001099190620004c0565b5060208201518160010160006101000a81548173ffffffffffffffffffffffffffffffffffffffff021916908373ffffffffffffffffffffffffffffffffffffffff1602179055505050600360405180604001604052806040518060400160405280600481526020017f6a756e6b000000000000000000000000000000000000000000000000000000008152508152602001600073ffffffffffffffffffffffffffffffffffffffff1681525090806001815401808255809150506001900390600052602060002090600202016000909190919091506000820151816000019081620001f69190620004c0565b5060208201518160010160006101000a81548173ffffffffffffffffffffffffffffffffffffffff021916908373ffffffffffffffffffffffffffffffffffffffff1602179055505050620005a7565b600081519050919050565b7f4e487b7100000000000000000000000000000000000000000000000000000000600052604160045260246000fd5b7f4e487b7100000000000000000000000000000000000000000000000000000000600052602260045260246000fd5b60006002820490506001821680620002c857607f821691505b602082108103620002de57620002dd62000280565b5b50919050565b60008190508160005260206000209050919050565b60006020601f8301049050919050565b600082821b905092915050565b600060088302620003487fffffffffffffffffffffffffffffffffffffffffffffffffffffffffffffffff8262000309565b62000354868362000309565b95508019841693508086168417925050509392505050565b6000819050919050565b6000819050919050565b6000620003a16200039b62000395846200036c565b62000376565b6200036c565b9050919050565b6000819050919050565b620003bd8362000380565b620003d5620003cc82620003a8565b84845462000316565b825550505050565b600090565b620003ec620003dd565b620003f9818484620003b2565b505050565b5b81811015620004215762000415600082620003e2565b600181019050620003ff565b5050565b601f82111562000470576200043a81620002e4565b6200044584620002f9565b8101602085101562000455578190505b6200046d6200046485620002f9565b830182620003fe565b50505b505050565b600082821c905092915050565b6000620004956000198460080262000475565b1980831691505092915050565b6000620004b0838362000482565b9150826002028217905092915050565b620004cb8262000246565b67ffffffffffffffff811115620004e757620004e662000251565b5b620004f38254620002af565b6200050082828562000425565b600060209050601f83116001811462000538576000841562000523578287015190505b6200052f8582620004a2565b8655506200059f565b601f1984166200054886620002e4565b60005b8281101562000572578489015182556001820191506020850194506020810190506200054b565b868310156200059257848901516200058e601f89168262000482565b8355505b6001600288020188555050505b505050505050565b6110dc80620005b76000396000f3fe608060405234801561001057600080fd5b50600436106100625760003560e01c806350b9563414610067578063797fc8f1146100975780638b239aa5146100c75780638cd3e0e0146100f7578063a360feb114610113578063ad97fb2b1461012f575b600080fd5b610081600480360381019061007c9190610813565b61015f565b60405161008e919061085b565b60405180910390f35b6100b160048036038101906100ac91906109bc565b6101ba565b6040516100be919061085b565b60405180910390f35b6100e160048036038101906100dc91906109bc565b61024e565b6040516100ee9190610a14565b60405180910390f35b610111600480360381019061010c9190610a2f565b61031b565b005b61012d60048036038101906101289190610a9e565b6104f8565b005b61014960048036038101906101449190610813565b610692565b6040516101569190610a14565b60405180910390f35b600080600260008473ffffffffffffffffffffffffffffffffffffffff1673ffffffffffffffffffffffffffffffffffffffff16815260200190815260200160002054036101b057600090506101b5565b600190505b919050565b60008060009054906101000a900473ffffffffffffffffffffffffffffffffffffffff1673ffffffffffffffffffffffffffffffffffffffff163373ffffffffffffffffffffffffffffffffffffffff161461021557600080fd5b60006004836040516102279190610b6b565b908152602001604051809103902054146102445760019050610249565b600090505b919050565b6000806004836040516102619190610b6b565b908152602001604051809103902054036102b0576040517f08c379a00000000000000000000000000000000000000000000000000000000081526004016102a790610bdf565b60405180910390fd5b60036004836040516102c29190610b6b565b908152602001604051809103902054815481106102e2576102e1610bff565b5b906000526020600020906002020160010160009054906101000a900473ffffffffffffffffffffffffffffffffffffffff169050919050565b60008054906101000a900473ffffffffffffffffffffffffffffffffffffffff1673ffffffffffffffffffffffffffffffffffffffff163373ffffffffffffffffffffffffffffffffffffffff161461037357600080fd5b6000600260008473ffffffffffffffffffffffffffffffffffffffff1673ffffffffffffffffffffffffffffffffffffffff16815260200190815260200160002054146103f5576040517f08c379a00000000000000000000000000000000000000000000000000000000081526004016103ec90610c7a565b60405180910390fd5b600180549050600260008473ffffffffffffffffffffffffffffffffffffffff1673ffffffffffffffffffffffffffffffffffffffff16815260200190815260200160002081905550600160405180604001604052808581526020018373ffffffffffffffffffffffffffffffffffffffff16815250908060018154018082558091505060019003906000526020600020906002020160009091909190915060008201518160000190816104a99190610eb0565b5060208201518160010160006101000a81548173ffffffffffffffffffffffffffffffffffffffff021916908373ffffffffffffffffffffffffffffffffffffffff1602179055505050505050565b60008054906101000a900473ffffffffffffffffffffffffffffffffffffffff1673ffffffffffffffffffffffffffffffffffffffff163373ffffffffffffffffffffffffffffffffffffffff161461055057600080fd5b60006004836040516105629190610b6b565b908152602001604051809103902054146105b1576040517f08c379a00000000000000000000000000000000000000000000000000000000081526004016105a890610ff4565b60405180910390fd5b6003805490506004836040516105c79190610b6b565b908152602001604051809103902081905550600360405180604001604052808481526020018373ffffffffffffffffffffffffffffffffffffffff16815250908060018154018082558091505060019003906000526020600020906002020160009091909190915060008201518160000190816106449190610eb0565b5060208201518160010160006101000a81548173ffffffffffffffffffffffffffffffffffffffff021916908373ffffffffffffffffffffffffffffffffffffffff16021790555050505050565b600080600260008473ffffffffffffffffffffffffffffffffffffffff1673ffffffffffffffffffffffffffffffffffffffff1681526020019081526020016000205403610715576040517f08c379a000000000000000000000000000000000000000000000000000000000815260040161070c90611086565b60405180910390fd5b6001600260008473ffffffffffffffffffffffffffffffffffffffff1673ffffffffffffffffffffffffffffffffffffffff168152602001908152602001600020548154811061076857610767610bff565b5b906000526020600020906002020160010160009054906101000a900473ffffffffffffffffffffffffffffffffffffffff169050919050565b6000604051905090565b600080fd5b600080fd5b600073ffffffffffffffffffffffffffffffffffffffff82169050919050565b60006107e0826107b5565b9050919050565b6107f0816107d5565b81146107fb57600080fd5b50565b60008135905061080d816107e7565b92915050565b600060208284031215610829576108286107ab565b5b6000610837848285016107fe565b91505092915050565b60008115159050919050565b61085581610840565b82525050565b6000602082019050610870600083018461084c565b92915050565b600080fd5b600080fd5b6000601f19601f8301169050919050565b7f4e487b7100000000000000000000000000000000000000000000000000000000600052604160045260246000fd5b6108c982610880565b810181811067ffffffffffffffff821117156108e8576108e7610891565b5b80604052505050565b60006108fb6107a1565b905061090782826108c0565b919050565b600067ffffffffffffffff82111561092757610926610891565b5b61093082610880565b9050602081019050919050565b82818337600083830152505050565b600061095f61095a8461090c565b6108f1565b90508281526020810184848401111561097b5761097a61087b565b5b61098684828561093d565b509392505050565b600082601f8301126109a3576109a2610876565b5b81356109b384826020860161094c565b91505092915050565b6000602082840312156109d2576109d16107ab565b5b600082013567ffffffffffffffff8111156109f0576109ef6107b0565b5b6109fc8482850161098e565b91505092915050565b610a0e816107d5565b82525050565b6000602082019050610a296000830184610a05565b92915050565b600080600060608486031215610a4857610a476107ab565b5b600084013567ffffffffffffffff811115610a6657610a656107b0565b5b610a728682870161098e565b9350506020610a83868287016107fe565b9250506040610a94868287016107fe565b9150509250925092565b60008060408385031215610ab557610ab46107ab565b5b600083013567ffffffffffffffff811115610ad357610ad26107b0565b5b610adf8582860161098e565b9250506020610af0858286016107fe565b9150509250929050565b600081519050919050565b600081905092915050565b60005b83811015610b2e578082015181840152602081019050610b13565b60008484015250505050565b6000610b4582610afa565b610b4f8185610b05565b9350610b5f818560208601610b10565b80840191505092915050565b6000610b778284610b3a565b915081905092915050565b600082825260208201905092915050565b7f4e6f7420666f756e640000000000000000000000000000000000000000000000600082015250565b6000610bc9600983610b82565b9150610bd482610b93565b602082019050919050565b60006020820190508181036000830152610bf881610bbc565b9050919050565b7f4e487b7100000000000000000000000000000000000000000000000000000000600052603260045260246000fd5b7f54726164657220616c7265616479204578697374730000000000000000000000600082015250565b6000610c64601583610b82565b9150610c6f82610c2e565b602082019050919050565b60006020820190508181036000830152610c9381610c57565b9050919050565b7f4e487b7100000000000000000000000000000000000000000000000000000000600052602260045260246000fd5b60006002820490506001821680610ce157607f821691505b602082108103610cf457610cf3610c9a565b5b50919050565b60008190508160005260206000209050919050565b60006020601f8301049050919050565b600082821b905092915050565b600060088302610d5c7fffffffffffffffffffffffffffffffffffffffffffffffffffffffffffffffff82610d1f565b610d668683610d1f565b95508019841693508086168417925050509392505050565b6000819050919050565b6000819050919050565b6000610dad610da8610da384610d7e565b610d88565b610d7e565b9050919050565b6000819050919050565b610dc783610d92565b610ddb610dd382610db4565b848454610d2c565b825550505050565b600090565b610df0610de3565b610dfb818484610dbe565b505050565b5b81811015610e1f57610e14600082610de8565b600181019050610e01565b5050565b601f821115610e6457610e3581610cfa565b610e3e84610d0f565b81016020851015610e4d578190505b610e61610e5985610d0f565b830182610e00565b50505b505050565b600082821c905092915050565b6000610e8760001984600802610e69565b1980831691505092915050565b6000610ea08383610e76565b9150826002028217905092915050565b610eb982610afa565b67ffffffffffffffff811115610ed257610ed1610891565b5b610edc8254610cc9565b610ee7828285610e23565b600060209050601f831160018114610f1a5760008415610f08578287015190505b610f128582610e94565b865550610f7a565b601f198416610f2886610cfa565b60005b82811015610f5057848901518255600182019150602085019450602081019050610f2b565b86831015610f6d5784890151610f69601f891682610e76565b8355505b6001600288020188555050505b505050505050565b7f53746f636b20776974682074686973206e616d652c20416c726561647920457860008201527f6973747300000000000000000000000000000000000000000000000000000000602082015250565b6000610fde602483610b82565b9150610fe982610f82565b604082019050919050565b6000602082019050818103600083015261100d81610fd1565b9050919050565b7f4e6f2054726164657220636f6e747261637420657869737420666f722074686960008201527f732077616c6c6520742061646472657373730000000000000000000000000000602082015250565b6000611070603283610b82565b915061107b82611014565b604082019050919050565b6000602082019050818103600083015261109f81611063565b905091905056fea264697066735822122097a971f8bff6d88efdcb0217d234df38aeb805936eb01b1a36fe55cf6a2b767364736f6c63430008120033",
  "immutableReferences": {},
  "source": "//SPDX-License// SPDX-License-Identifier: GPL-3.0\r\n\r\npragma solidity >=0.8.2 < 0.9.0;\r\n\r\nstruct Stock{\r\n    string name;\r\n    address stockAddress;\r\n}\r\n\r\nstruct Trader{\r\n    string name;\r\n    address traderAddress;\r\n}\r\n\r\ncontract Whitelist{\r\n    address owner = 0x9BEa1a961e2D19F37020f528DEd95781f67d191B;\r\n    Trader[] traders;\r\n    mapping(address => uint) traderIndex;\r\n    Stock[] stocks;\r\n    mapping(string => uint) stocksIndex;\r\n\r\n    constructor(){\r\n        traders.push(Trader({\r\n            name: \"owner\",\r\n            traderAddress: 0x0000000000000000000000000000000000000000\r\n        }));\r\n        stocks.push(Stock({\r\n            name: \"junk\",\r\n            stockAddress: 0x0000000000000000000000000000000000000000\r\n        }));\r\n    }\r\n\r\n    modifier onlyOwner {\r\n      require(msg.sender == owner);\r\n      _;\r\n    }\r\n\r\n    function verifyTrader(address _address)  view public returns(bool){\r\n        if(traderIndex[_address] == 0){\r\n            return false;\r\n        }\r\n        return true;\r\n    }\r\n\r\n    function addTrader(string memory _name,address _walletAddress, address _contractAddress) public onlyOwner {\r\n        require(traderIndex[_walletAddress] == 0, \"Trader already Exists\");\r\n        traderIndex[_walletAddress] = traders.length;\r\n        traders.push(Trader({\r\n            name: _name,\r\n            traderAddress: _contractAddress \r\n        }));\r\n    }\r\n     \r\n    function getTraderAddress(address _walletAddress) view public returns(address) {\r\n        require(traderIndex[_walletAddress] != 0, 'No Trader contract exist for this walle t addresss');\r\n        return (traders[traderIndex[_walletAddress]].traderAddress);\r\n    }\r\n\r\n    function checkStock(string memory _name) view public onlyOwner returns(bool){\r\n        \r\n        if(stocksIndex[_name] != 0){\r\n            return true;\r\n        }\r\n        else {\r\n            return false;\r\n        }\r\n    }\r\n\r\n    function getStockAddress(string memory _name) view public returns(address){\r\n        require(stocksIndex[_name] != 0, \"Not found\");\r\n        return stocks[stocksIndex[_name]].stockAddress;\r\n    } \r\n    \r\n    function addStock(string memory _name, address _address) public onlyOwner {\r\n        require(stocksIndex[_name] == 0, \"Stock with this name, Already Exists\");\r\n        stocksIndex[_name] = stocks.length;\r\n        stocks.push(Stock({\r\n            name: _name, \r\n            stockAddress: _address\r\n        }));\r\n    }\r\n    \r\n\r\n}",
  "sourcePath": "E:\\Coding\\Blockchain\\reactStarter\\truffle\\contracts\\Whitelist.sol",
  "compiler": {
    "name": "solc",
    "version": "0.8.18+commit.87f61d96.Emscripten.clang"
  },
  "schemaVersion": "3.4.13",
  "updatedAt": "2023-04-09T04:29:44.341Z",
  "devdoc": {
    "kind": "dev",
    "methods": {},
    "version": 1
  },
  "userdoc": {
    "kind": "user",
    "methods": {},
    "version": 1
  }
}