{
  "contractName": "Whitelist",
  "abi": [
    {
      "inputs": [],
      "stateMutability": "nonpayable",
      "type": "constructor"
    },
    {
      "inputs": [
        {
          "internalType": "address",
          "name": "_walletAddress",
          "type": "address"
        }
      ],
      "name": "verifyWallet",
      "outputs": [
        {
          "internalType": "bool",
          "name": "",
          "type": "bool"
        }
      ],
      "stateMutability": "view",
      "type": "function"
    },
    {
      "inputs": [
        {
          "internalType": "address",
          "name": "_contractAddress",
          "type": "address"
        }
      ],
      "name": "verifyTrader",
      "outputs": [
        {
          "internalType": "bool",
          "name": "",
          "type": "bool"
        }
      ],
      "stateMutability": "view",
      "type": "function"
    },
    {
      "inputs": [
        {
          "internalType": "string",
          "name": "_name",
          "type": "string"
        },
        {
          "internalType": "address",
          "name": "_walletAddress",
          "type": "address"
        },
        {
          "internalType": "address",
          "name": "_contractAddress",
          "type": "address"
        }
      ],
      "name": "addTrader",
      "outputs": [],
      "stateMutability": "nonpayable",
      "type": "function"
    },
    {
      "inputs": [
        {
          "internalType": "address",
          "name": "_walletAddress",
          "type": "address"
        }
      ],
      "name": "getTraderAddress",
      "outputs": [
        {
          "internalType": "address",
          "name": "",
          "type": "address"
        }
      ],
      "stateMutability": "view",
      "type": "function"
    },
    {
      "inputs": [
        {
          "internalType": "string",
          "name": "_name",
          "type": "string"
        }
      ],
      "name": "checkStock",
      "outputs": [
        {
          "internalType": "bool",
          "name": "",
          "type": "bool"
        }
      ],
      "stateMutability": "view",
      "type": "function"
    },
    {
      "inputs": [
        {
          "internalType": "string",
          "name": "_name",
          "type": "string"
        }
      ],
      "name": "getStockAddress",
      "outputs": [
        {
          "internalType": "address",
          "name": "",
          "type": "address"
        }
      ],
      "stateMutability": "view",
      "type": "function"
    },
    {
      "inputs": [
        {
          "internalType": "string",
          "name": "_name",
          "type": "string"
        },
        {
          "internalType": "address",
          "name": "_address",
          "type": "address"
        }
      ],
      "name": "addStock",
      "outputs": [],
      "stateMutability": "nonpayable",
      "type": "function"
    }
  ],
  "bytecode": "0x6080604052739bea1a961e2d19f37020f528ded95781f67d191b6000806101000a81548173ffffffffffffffffffffffffffffffffffffffff021916908373ffffffffffffffffffffffffffffffffffffffff1602179055503480156200006557600080fd5b50600160405180604001604052806040518060400160405280600581526020017f6f776e65720000000000000000000000000000000000000000000000000000008152508152602001600073ffffffffffffffffffffffffffffffffffffffff1681525090806001815401808255809150506001900390600052602060002090600202016000909190919091506000820151816000019081620001099190620004c0565b5060208201518160010160006101000a81548173ffffffffffffffffffffffffffffffffffffffff021916908373ffffffffffffffffffffffffffffffffffffffff1602179055505050600460405180604001604052806040518060400160405280600481526020017f6a756e6b000000000000000000000000000000000000000000000000000000008152508152602001600073ffffffffffffffffffffffffffffffffffffffff1681525090806001815401808255809150506001900390600052602060002090600202016000909190919091506000820151816000019081620001f69190620004c0565b5060208201518160010160006101000a81548173ffffffffffffffffffffffffffffffffffffffff021916908373ffffffffffffffffffffffffffffffffffffffff1602179055505050620005a7565b600081519050919050565b7f4e487b7100000000000000000000000000000000000000000000000000000000600052604160045260246000fd5b7f4e487b7100000000000000000000000000000000000000000000000000000000600052602260045260246000fd5b60006002820490506001821680620002c857607f821691505b602082108103620002de57620002dd62000280565b5b50919050565b60008190508160005260206000209050919050565b60006020601f8301049050919050565b600082821b905092915050565b600060088302620003487fffffffffffffffffffffffffffffffffffffffffffffffffffffffffffffffff8262000309565b62000354868362000309565b95508019841693508086168417925050509392505050565b6000819050919050565b6000819050919050565b6000620003a16200039b62000395846200036c565b62000376565b6200036c565b9050919050565b6000819050919050565b620003bd8362000380565b620003d5620003cc82620003a8565b84845462000316565b825550505050565b600090565b620003ec620003dd565b620003f9818484620003b2565b505050565b5b81811015620004215762000415600082620003e2565b600181019050620003ff565b5050565b601f82111562000470576200043a81620002e4565b6200044584620002f9565b8101602085101562000455578190505b6200046d6200046485620002f9565b830182620003fe565b50505b505050565b600082821c905092915050565b6000620004956000198460080262000475565b1980831691505092915050565b6000620004b0838362000482565b9150826002028217905092915050565b620004cb8262000246565b67ffffffffffffffff811115620004e757620004e662000251565b5b620004f38254620002af565b6200050082828562000425565b600060209050601f83116001811462000538576000841562000523578287015190505b6200052f8582620004a2565b8655506200059f565b601f1984166200054886620002e4565b60005b8281101562000572578489015182556001820191506020850194506020810190506200054b565b868310156200059257848901516200058e601f89168262000482565b8355505b6001600288020188555050505b505050505050565b61134380620005b76000396000f3fe608060405234801561001057600080fd5b506004361061007d5760003560e01c80638cd3e0e01161005b5780638cd3e0e014610112578063a360feb11461012e578063ad97fb2b1461014a578063fc399c791461017a5761007d565b806350b9563414610082578063797fc8f1146100b25780638b239aa5146100e2575b600080fd5b61009c60048036038101906100979190610a7a565b6101aa565b6040516100a99190610ac2565b60405180910390f35b6100cc60048036038101906100c79190610c23565b610205565b6040516100d99190610ac2565b60405180910390f35b6100fc60048036038101906100f79190610c23565b610299565b6040516101099190610c7b565b60405180910390f35b61012c60048036038101906101279190610c96565b610366565b005b61014860048036038101906101439190610d05565b61060d565b005b610164600480360381019061015f9190610a7a565b6107a7565b6040516101719190610c7b565b60405180910390f35b610194600480360381019061018f9190610a7a565b610961565b6040516101a19190610ac2565b60405180910390f35b600080600360008473ffffffffffffffffffffffffffffffffffffffff1673ffffffffffffffffffffffffffffffffffffffff16815260200190815260200160002054036101fb5760009050610200565b600190505b919050565b60008060009054906101000a900473ffffffffffffffffffffffffffffffffffffffff1673ffffffffffffffffffffffffffffffffffffffff163373ffffffffffffffffffffffffffffffffffffffff161461026057600080fd5b60006005836040516102729190610dd2565b9081526020016040518091039020541461028f5760019050610294565b600090505b919050565b6000806005836040516102ac9190610dd2565b908152602001604051809103902054036102fb576040517f08c379a00000000000000000000000000000000000000000000000000000000081526004016102f290610e46565b60405180910390fd5b600460058360405161030d9190610dd2565b9081526020016040518091039020548154811061032d5761032c610e66565b5b906000526020600020906002020160010160009054906101000a900473ffffffffffffffffffffffffffffffffffffffff169050919050565b60008054906101000a900473ffffffffffffffffffffffffffffffffffffffff1673ffffffffffffffffffffffffffffffffffffffff163373ffffffffffffffffffffffffffffffffffffffff16146103be57600080fd5b600073ffffffffffffffffffffffffffffffffffffffff16600260008473ffffffffffffffffffffffffffffffffffffffff1673ffffffffffffffffffffffffffffffffffffffff16815260200190815260200160002060009054906101000a900473ffffffffffffffffffffffffffffffffffffffff1673ffffffffffffffffffffffffffffffffffffffff161461048c576040517f08c379a000000000000000000000000000000000000000000000000000000000815260040161048390610ee1565b60405180910390fd5b80600260008473ffffffffffffffffffffffffffffffffffffffff1673ffffffffffffffffffffffffffffffffffffffff16815260200190815260200160002060006101000a81548173ffffffffffffffffffffffffffffffffffffffff021916908373ffffffffffffffffffffffffffffffffffffffff160217905550600180549050600360008373ffffffffffffffffffffffffffffffffffffffff1673ffffffffffffffffffffffffffffffffffffffff16815260200190815260200160002081905550600160405180604001604052808581526020018373ffffffffffffffffffffffffffffffffffffffff16815250908060018154018082558091505060019003906000526020600020906002020160009091909190915060008201518160000190816105be9190611117565b5060208201518160010160006101000a81548173ffffffffffffffffffffffffffffffffffffffff021916908373ffffffffffffffffffffffffffffffffffffffff1602179055505050505050565b60008054906101000a900473ffffffffffffffffffffffffffffffffffffffff1673ffffffffffffffffffffffffffffffffffffffff163373ffffffffffffffffffffffffffffffffffffffff161461066557600080fd5b60006005836040516106779190610dd2565b908152602001604051809103902054146106c6576040517f08c379a00000000000000000000000000000000000000000000000000000000081526004016106bd9061125b565b60405180910390fd5b6004805490506005836040516106dc9190610dd2565b908152602001604051809103902081905550600460405180604001604052808481526020018373ffffffffffffffffffffffffffffffffffffffff16815250908060018154018082558091505060019003906000526020600020906002020160009091909190915060008201518160000190816107599190611117565b5060208201518160010160006101000a81548173ffffffffffffffffffffffffffffffffffffffff021916908373ffffffffffffffffffffffffffffffffffffffff16021790555050505050565b60008073ffffffffffffffffffffffffffffffffffffffff16600260008473ffffffffffffffffffffffffffffffffffffffff1673ffffffffffffffffffffffffffffffffffffffff16815260200190815260200160002060009054906101000a900473ffffffffffffffffffffffffffffffffffffffff1673ffffffffffffffffffffffffffffffffffffffff1603610876576040517f08c379a000000000000000000000000000000000000000000000000000000000815260040161086d906112ed565b60405180910390fd5b600160036000600260008673ffffffffffffffffffffffffffffffffffffffff1673ffffffffffffffffffffffffffffffffffffffff16815260200190815260200160002060009054906101000a900473ffffffffffffffffffffffffffffffffffffffff1673ffffffffffffffffffffffffffffffffffffffff1673ffffffffffffffffffffffffffffffffffffffff168152602001908152602001600020548154811061092857610927610e66565b5b906000526020600020906002020160010160009054906101000a900473ffffffffffffffffffffffffffffffffffffffff169050919050565b60008073ffffffffffffffffffffffffffffffffffffffff16600260008473ffffffffffffffffffffffffffffffffffffffff1673ffffffffffffffffffffffffffffffffffffffff16815260200190815260200160002060009054906101000a900473ffffffffffffffffffffffffffffffffffffffff1673ffffffffffffffffffffffffffffffffffffffff16036109fe5760009050610a03565b600190505b919050565b6000604051905090565b600080fd5b600080fd5b600073ffffffffffffffffffffffffffffffffffffffff82169050919050565b6000610a4782610a1c565b9050919050565b610a5781610a3c565b8114610a6257600080fd5b50565b600081359050610a7481610a4e565b92915050565b600060208284031215610a9057610a8f610a12565b5b6000610a9e84828501610a65565b91505092915050565b60008115159050919050565b610abc81610aa7565b82525050565b6000602082019050610ad76000830184610ab3565b92915050565b600080fd5b600080fd5b6000601f19601f8301169050919050565b7f4e487b7100000000000000000000000000000000000000000000000000000000600052604160045260246000fd5b610b3082610ae7565b810181811067ffffffffffffffff82111715610b4f57610b4e610af8565b5b80604052505050565b6000610b62610a08565b9050610b6e8282610b27565b919050565b600067ffffffffffffffff821115610b8e57610b8d610af8565b5b610b9782610ae7565b9050602081019050919050565b82818337600083830152505050565b6000610bc6610bc184610b73565b610b58565b905082815260208101848484011115610be257610be1610ae2565b5b610bed848285610ba4565b509392505050565b600082601f830112610c0a57610c09610add565b5b8135610c1a848260208601610bb3565b91505092915050565b600060208284031215610c3957610c38610a12565b5b600082013567ffffffffffffffff811115610c5757610c56610a17565b5b610c6384828501610bf5565b91505092915050565b610c7581610a3c565b82525050565b6000602082019050610c906000830184610c6c565b92915050565b600080600060608486031215610caf57610cae610a12565b5b600084013567ffffffffffffffff811115610ccd57610ccc610a17565b5b610cd986828701610bf5565b9350506020610cea86828701610a65565b9250506040610cfb86828701610a65565b9150509250925092565b60008060408385031215610d1c57610d1b610a12565b5b600083013567ffffffffffffffff811115610d3a57610d39610a17565b5b610d4685828601610bf5565b9250506020610d5785828601610a65565b9150509250929050565b600081519050919050565b600081905092915050565b60005b83811015610d95578082015181840152602081019050610d7a565b60008484015250505050565b6000610dac82610d61565b610db68185610d6c565b9350610dc6818560208601610d77565b80840191505092915050565b6000610dde8284610da1565b915081905092915050565b600082825260208201905092915050565b7f4e6f7420666f756e640000000000000000000000000000000000000000000000600082015250565b6000610e30600983610de9565b9150610e3b82610dfa565b602082019050919050565b60006020820190508181036000830152610e5f81610e23565b9050919050565b7f4e487b7100000000000000000000000000000000000000000000000000000000600052603260045260246000fd5b7f54726164657220616c7265616479204578697374730000000000000000000000600082015250565b6000610ecb601583610de9565b9150610ed682610e95565b602082019050919050565b60006020820190508181036000830152610efa81610ebe565b9050919050565b7f4e487b7100000000000000000000000000000000000000000000000000000000600052602260045260246000fd5b60006002820490506001821680610f4857607f821691505b602082108103610f5b57610f5a610f01565b5b50919050565b60008190508160005260206000209050919050565b60006020601f8301049050919050565b600082821b905092915050565b600060088302610fc37fffffffffffffffffffffffffffffffffffffffffffffffffffffffffffffffff82610f86565b610fcd8683610f86565b95508019841693508086168417925050509392505050565b6000819050919050565b6000819050919050565b600061101461100f61100a84610fe5565b610fef565b610fe5565b9050919050565b6000819050919050565b61102e83610ff9565b61104261103a8261101b565b848454610f93565b825550505050565b600090565b61105761104a565b611062818484611025565b505050565b5b818110156110865761107b60008261104f565b600181019050611068565b5050565b601f8211156110cb5761109c81610f61565b6110a584610f76565b810160208510156110b4578190505b6110c86110c085610f76565b830182611067565b50505b505050565b600082821c905092915050565b60006110ee600019846008026110d0565b1980831691505092915050565b600061110783836110dd565b9150826002028217905092915050565b61112082610d61565b67ffffffffffffffff81111561113957611138610af8565b5b6111438254610f30565b61114e82828561108a565b600060209050601f831160018114611181576000841561116f578287015190505b61117985826110fb565b8655506111e1565b601f19841661118f86610f61565b60005b828110156111b757848901518255600182019150602085019450602081019050611192565b868310156111d457848901516111d0601f8916826110dd565b8355505b6001600288020188555050505b505050505050565b7f53746f636b20776974682074686973206e616d652c20416c726561647920457860008201527f6973747300000000000000000000000000000000000000000000000000000000602082015250565b6000611245602483610de9565b9150611250826111e9565b604082019050919050565b6000602082019050818103600083015261127481611238565b9050919050565b7f4e6f2054726164657220636f6e747261637420657869737420666f722074686960008201527f732077616c6c6574206164647265737373000000000000000000000000000000602082015250565b60006112d7603183610de9565b91506112e28261127b565b604082019050919050565b60006020820190508181036000830152611306816112ca565b905091905056fea264697066735822122096618fae01247c7a0d290795af1080094df84df5dabc73f2181382663abb2dac64736f6c63430008120033",
  "immutableReferences": {},
  "source": "//SPDX-License// SPDX-License-Identifier: GPL-3.0\r\n\r\npragma solidity >=0.8.2 < 0.9.0;\r\n\r\nstruct Stock{\r\n    string name;\r\n    address stockAddress;\r\n}\r\n\r\nstruct Trader{\r\n    string name;\r\n    address traderAddress;\r\n}\r\n\r\ncontract Whitelist{\r\n    address owner = 0x9BEa1a961e2D19F37020f528DEd95781f67d191B;\r\n    Trader[] traders;\r\n    mapping(address => address)  traderContractAddress;\r\n    mapping(address => uint)  traderIndex;\r\n    Stock[] stocks;\r\n    mapping(string => uint) stocksIndex;\r\n\r\n    constructor(){\r\n        traders.push(Trader({\r\n            name: \"owner\",\r\n            traderAddress: 0x0000000000000000000000000000000000000000\r\n        }));\r\n        stocks.push(Stock({\r\n            name: \"junk\",\r\n            stockAddress: 0x0000000000000000000000000000000000000000\r\n        }));\r\n    }\r\n\r\n    modifier onlyOwner {\r\n      require(msg.sender == owner);\r\n      _;\r\n    }\r\n\r\n    function verifyWallet(address _walletAddress) view public returns(bool){\r\n        if(traderContractAddress[_walletAddress] == address(0)){\r\n            return false;\r\n        }\r\n        return true;\r\n    }\r\n\r\n    function verifyTrader(address _contractAddress)  view public returns(bool){\r\n        if(traderIndex[_contractAddress] == 0){\r\n            return false;\r\n        }\r\n        return true;\r\n    }\r\n\r\n    function addTrader(string memory _name,address _walletAddress, address _contractAddress) public onlyOwner {\r\n        require(traderContractAddress[_walletAddress] == address(0), \"Trader already Exists\");\r\n        traderContractAddress[_walletAddress] = _contractAddress;\r\n        traderIndex[_contractAddress] = traders.length;\r\n        traders.push(Trader({\r\n            name: _name,\r\n            traderAddress: _contractAddress \r\n        }));\r\n    }\r\n     \r\n    function getTraderAddress(address _walletAddress) view public returns(address) {\r\n        require(traderContractAddress[_walletAddress] != address(0), 'No Trader contract exist for this wallet addresss');\r\n        return (traders[traderIndex[traderContractAddress[_walletAddress]]].traderAddress);\r\n    }\r\n\r\n    function checkStock(string memory _name) view public onlyOwner returns(bool){\r\n        \r\n        if(stocksIndex[_name] != 0){\r\n            return true;\r\n        }\r\n        else {\r\n            return false;\r\n        }\r\n    }\r\n\r\n    function getStockAddress(string memory _name) view public returns(address){\r\n        require(stocksIndex[_name] != 0, \"Not found\");\r\n        return stocks[stocksIndex[_name]].stockAddress;\r\n    } \r\n    \r\n    function addStock(string memory _name, address _address) public onlyOwner {\r\n        require(stocksIndex[_name] == 0, \"Stock with this name, Already Exists\");\r\n        stocksIndex[_name] = stocks.length;\r\n        stocks.push(Stock({\r\n            name: _name, \r\n            stockAddress: _address\r\n        }));\r\n    }\r\n    \r\n\r\n}",
  "sourcePath": "E:\\Coding\\Blockchain\\reactStarter\\truffle\\contracts\\Whitelist.sol",
  "compiler": {
    "name": "solc",
    "version": "0.8.18+commit.87f61d96.Emscripten.clang"
  },
  "schemaVersion": "3.4.13",
  "updatedAt": "2023-04-09T10:47:20.517Z",
  "devdoc": {
    "kind": "dev",
    "methods": {},
    "version": 1
  },
  "userdoc": {
    "kind": "user",
    "methods": {},
    "version": 1
  }
}