{
  "contractName": "Whitelist",
  "abi": [
    {
      "inputs": [],
      "stateMutability": "nonpayable",
      "type": "constructor"
    },
    {
      "inputs": [
        {
          "internalType": "address",
          "name": "_address",
          "type": "address"
        }
      ],
      "name": "verifyTrader",
      "outputs": [
        {
          "internalType": "bool",
          "name": "",
          "type": "bool"
        }
      ],
      "stateMutability": "view",
      "type": "function"
    },
    {
      "inputs": [
        {
          "internalType": "string",
          "name": "_name",
          "type": "string"
        },
        {
          "internalType": "address",
          "name": "_address",
          "type": "address"
        }
      ],
      "name": "addTrader",
      "outputs": [],
      "stateMutability": "nonpayable",
      "type": "function"
    },
    {
      "inputs": [
        {
          "internalType": "string",
          "name": "_name",
          "type": "string"
        }
      ],
      "name": "getStockAddress",
      "outputs": [
        {
          "internalType": "address",
          "name": "",
          "type": "address"
        }
      ],
      "stateMutability": "view",
      "type": "function"
    },
    {
      "inputs": [
        {
          "internalType": "string",
          "name": "_name",
          "type": "string"
        },
        {
          "internalType": "address",
          "name": "_address",
          "type": "address"
        }
      ],
      "name": "addStock",
      "outputs": [],
      "stateMutability": "nonpayable",
      "type": "function"
    }
  ],
  "bytecode": "0x60806040523480156200001157600080fd5b50336000806101000a81548173ffffffffffffffffffffffffffffffffffffffff021916908373ffffffffffffffffffffffffffffffffffffffff160217905550600160405180604001604052806040518060400160405280600581526020017f6f776e65720000000000000000000000000000000000000000000000000000008152508152602001600073ffffffffffffffffffffffffffffffffffffffff1681525090806001815401808255809150506001900390600052602060002090600202016000909190919091506000820151816000019081620000f59190620004ac565b5060208201518160010160006101000a81548173ffffffffffffffffffffffffffffffffffffffff021916908373ffffffffffffffffffffffffffffffffffffffff1602179055505050600360405180604001604052806040518060400160405280600481526020017f6a756e6b000000000000000000000000000000000000000000000000000000008152508152602001600073ffffffffffffffffffffffffffffffffffffffff1681525090806001815401808255809150506001900390600052602060002090600202016000909190919091506000820151816000019081620001e29190620004ac565b5060208201518160010160006101000a81548173ffffffffffffffffffffffffffffffffffffffff021916908373ffffffffffffffffffffffffffffffffffffffff160217905550505062000593565b600081519050919050565b7f4e487b7100000000000000000000000000000000000000000000000000000000600052604160045260246000fd5b7f4e487b7100000000000000000000000000000000000000000000000000000000600052602260045260246000fd5b60006002820490506001821680620002b457607f821691505b602082108103620002ca57620002c96200026c565b5b50919050565b60008190508160005260206000209050919050565b60006020601f8301049050919050565b600082821b905092915050565b600060088302620003347fffffffffffffffffffffffffffffffffffffffffffffffffffffffffffffffff82620002f5565b620003408683620002f5565b95508019841693508086168417925050509392505050565b6000819050919050565b6000819050919050565b60006200038d62000387620003818462000358565b62000362565b62000358565b9050919050565b6000819050919050565b620003a9836200036c565b620003c1620003b88262000394565b84845462000302565b825550505050565b600090565b620003d8620003c9565b620003e58184846200039e565b505050565b5b818110156200040d5762000401600082620003ce565b600181019050620003eb565b5050565b601f8211156200045c576200042681620002d0565b6200043184620002e5565b8101602085101562000441578190505b620004596200045085620002e5565b830182620003ea565b50505b505050565b600082821c905092915050565b6000620004816000198460080262000461565b1980831691505092915050565b60006200049c83836200046e565b9150826002028217905092915050565b620004b78262000232565b67ffffffffffffffff811115620004d357620004d26200023d565b5b620004df82546200029b565b620004ec82828562000411565b600060209050601f8311600181146200052457600084156200050f578287015190505b6200051b85826200048e565b8655506200058b565b601f1984166200053486620002d0565b60005b828110156200055e5784890151825560018201915060208501945060208101905062000537565b868310156200057e57848901516200057a601f8916826200046e565b8355505b6001600288020188555050505b505050505050565b610dc180620005a36000396000f3fe608060405234801561001057600080fd5b506004361061004c5760003560e01c806350b95634146100515780638b239aa514610081578063a360feb1146100b1578063b74e0add146100cd575b600080fd5b61006b600480360381019061006691906105f9565b6100e9565b6040516100789190610641565b60405180910390f35b61009b600480360381019061009691906107a2565b610144565b6040516100a891906107fa565b60405180910390f35b6100cb60048036038101906100c69190610815565b610211565b005b6100e760048036038101906100e29190610815565b6103ab565b005b600080600260008473ffffffffffffffffffffffffffffffffffffffff1673ffffffffffffffffffffffffffffffffffffffff168152602001908152602001600020540361013a576000905061013f565b600190505b919050565b60008060048360405161015791906108e2565b908152602001604051809103902054036101a6576040517f08c379a000000000000000000000000000000000000000000000000000000000815260040161019d90610956565b60405180910390fd5b60036004836040516101b891906108e2565b908152602001604051809103902054815481106101d8576101d7610976565b5b906000526020600020906002020160010160009054906101000a900473ffffffffffffffffffffffffffffffffffffffff169050919050565b60008054906101000a900473ffffffffffffffffffffffffffffffffffffffff1673ffffffffffffffffffffffffffffffffffffffff163373ffffffffffffffffffffffffffffffffffffffff161461026957600080fd5b600060048360405161027b91906108e2565b908152602001604051809103902054146102ca576040517f08c379a00000000000000000000000000000000000000000000000000000000081526004016102c190610a17565b60405180910390fd5b6003805490506004836040516102e091906108e2565b908152602001604051809103902081905550600360405180604001604052808481526020018373ffffffffffffffffffffffffffffffffffffffff168152509080600181540180825580915050600190039060005260206000209060020201600090919091909150600082015181600001908161035d9190610c4d565b5060208201518160010160006101000a81548173ffffffffffffffffffffffffffffffffffffffff021916908373ffffffffffffffffffffffffffffffffffffffff16021790555050505050565b60008054906101000a900473ffffffffffffffffffffffffffffffffffffffff1673ffffffffffffffffffffffffffffffffffffffff163373ffffffffffffffffffffffffffffffffffffffff161461040357600080fd5b6000600260008373ffffffffffffffffffffffffffffffffffffffff1673ffffffffffffffffffffffffffffffffffffffff1681526020019081526020016000205414610485576040517f08c379a000000000000000000000000000000000000000000000000000000000815260040161047c90610d6b565b60405180910390fd5b600180549050600260008373ffffffffffffffffffffffffffffffffffffffff1673ffffffffffffffffffffffffffffffffffffffff16815260200190815260200160002081905550600160405180604001604052808481526020018373ffffffffffffffffffffffffffffffffffffffff16815250908060018154018082558091505060019003906000526020600020906002020160009091909190915060008201518160000190816105399190610c4d565b5060208201518160010160006101000a81548173ffffffffffffffffffffffffffffffffffffffff021916908373ffffffffffffffffffffffffffffffffffffffff16021790555050505050565b6000604051905090565b600080fd5b600080fd5b600073ffffffffffffffffffffffffffffffffffffffff82169050919050565b60006105c68261059b565b9050919050565b6105d6816105bb565b81146105e157600080fd5b50565b6000813590506105f3816105cd565b92915050565b60006020828403121561060f5761060e610591565b5b600061061d848285016105e4565b91505092915050565b60008115159050919050565b61063b81610626565b82525050565b60006020820190506106566000830184610632565b92915050565b600080fd5b600080fd5b6000601f19601f8301169050919050565b7f4e487b7100000000000000000000000000000000000000000000000000000000600052604160045260246000fd5b6106af82610666565b810181811067ffffffffffffffff821117156106ce576106cd610677565b5b80604052505050565b60006106e1610587565b90506106ed82826106a6565b919050565b600067ffffffffffffffff82111561070d5761070c610677565b5b61071682610666565b9050602081019050919050565b82818337600083830152505050565b6000610745610740846106f2565b6106d7565b90508281526020810184848401111561076157610760610661565b5b61076c848285610723565b509392505050565b600082601f8301126107895761078861065c565b5b8135610799848260208601610732565b91505092915050565b6000602082840312156107b8576107b7610591565b5b600082013567ffffffffffffffff8111156107d6576107d5610596565b5b6107e284828501610774565b91505092915050565b6107f4816105bb565b82525050565b600060208201905061080f60008301846107eb565b92915050565b6000806040838503121561082c5761082b610591565b5b600083013567ffffffffffffffff81111561084a57610849610596565b5b61085685828601610774565b9250506020610867858286016105e4565b9150509250929050565b600081519050919050565b600081905092915050565b60005b838110156108a557808201518184015260208101905061088a565b60008484015250505050565b60006108bc82610871565b6108c6818561087c565b93506108d6818560208601610887565b80840191505092915050565b60006108ee82846108b1565b915081905092915050565b600082825260208201905092915050565b7f4e6f7420666f756e640000000000000000000000000000000000000000000000600082015250565b60006109406009836108f9565b915061094b8261090a565b602082019050919050565b6000602082019050818103600083015261096f81610933565b9050919050565b7f4e487b7100000000000000000000000000000000000000000000000000000000600052603260045260246000fd5b7f53746f636b20776974682074686973206e616d652c20416c726561647920457860008201527f6973747300000000000000000000000000000000000000000000000000000000602082015250565b6000610a016024836108f9565b9150610a0c826109a5565b604082019050919050565b60006020820190508181036000830152610a30816109f4565b9050919050565b7f4e487b7100000000000000000000000000000000000000000000000000000000600052602260045260246000fd5b60006002820490506001821680610a7e57607f821691505b602082108103610a9157610a90610a37565b5b50919050565b60008190508160005260206000209050919050565b60006020601f8301049050919050565b600082821b905092915050565b600060088302610af97fffffffffffffffffffffffffffffffffffffffffffffffffffffffffffffffff82610abc565b610b038683610abc565b95508019841693508086168417925050509392505050565b6000819050919050565b6000819050919050565b6000610b4a610b45610b4084610b1b565b610b25565b610b1b565b9050919050565b6000819050919050565b610b6483610b2f565b610b78610b7082610b51565b848454610ac9565b825550505050565b600090565b610b8d610b80565b610b98818484610b5b565b505050565b5b81811015610bbc57610bb1600082610b85565b600181019050610b9e565b5050565b601f821115610c0157610bd281610a97565b610bdb84610aac565b81016020851015610bea578190505b610bfe610bf685610aac565b830182610b9d565b50505b505050565b600082821c905092915050565b6000610c2460001984600802610c06565b1980831691505092915050565b6000610c3d8383610c13565b9150826002028217905092915050565b610c5682610871565b67ffffffffffffffff811115610c6f57610c6e610677565b5b610c798254610a66565b610c84828285610bc0565b600060209050601f831160018114610cb75760008415610ca5578287015190505b610caf8582610c31565b865550610d17565b601f198416610cc586610a97565b60005b82811015610ced57848901518255600182019150602085019450602081019050610cc8565b86831015610d0a5784890151610d06601f891682610c13565b8355505b6001600288020188555050505b505050505050565b7f54726164657220616c7265616479204578697374730000000000000000000000600082015250565b6000610d556015836108f9565b9150610d6082610d1f565b602082019050919050565b60006020820190508181036000830152610d8481610d48565b905091905056fea264697066735822122087f280c84c0f308819686ae998e2f7c5adf08fb9c240b761c98a0b8c1a9913be64736f6c63430008120033",
  "immutableReferences": {},
  "source": "//SPDX-License// SPDX-License-Identifier: GPL-3.0\r\n\r\npragma solidity >=0.8.2 < 0.9.0;\r\n\r\nstruct Stock{\r\n    string name;\r\n    address stockAddress;\r\n}\r\n\r\nstruct Trader{\r\n    string name;\r\n    address traderAddress;\r\n}\r\n\r\ncontract Whitelist{\r\n    address owner;\r\n    Trader[] traders;\r\n    mapping(address => uint) traderIndex;\r\n    Stock[] stocks;\r\n    mapping(string => uint) stocksIndex;\r\n\r\n    constructor(){\r\n        owner = msg.sender;\r\n        traders.push(Trader({\r\n            name: \"owner\",\r\n            traderAddress: 0x0000000000000000000000000000000000000000\r\n        }));\r\n        stocks.push(Stock({\r\n            name: \"junk\",\r\n            stockAddress: 0x0000000000000000000000000000000000000000\r\n        }));\r\n    }\r\n\r\n    modifier onlyOwner {\r\n      require(msg.sender == owner);\r\n      _;\r\n    }\r\n\r\n    function verifyTrader(address _address) view public returns(bool){\r\n        if(traderIndex[_address] == 0){\r\n            return false;\r\n        }\r\n        return true;\r\n    }\r\n\r\n    function addTrader(string memory _name,address _address) public onlyOwner {\r\n        require(traderIndex[_address] == 0, \"Trader already Exists\");\r\n        traderIndex[_address] = traders.length;\r\n        traders.push(Trader({\r\n            name: _name,\r\n            traderAddress: _address\r\n        }));\r\n    }\r\n\r\n    function getStockAddress(string memory _name) view public returns(address){\r\n        require(stocksIndex[_name] != 0, \"Not found\");\r\n        return stocks[stocksIndex[_name]].stockAddress;\r\n    } \r\n\r\n    function addStock(string memory _name, address _address) public onlyOwner {\r\n        require(stocksIndex[_name] == 0, \"Stock with this name, Already Exists\");\r\n        stocksIndex[_name] = stocks.length;\r\n        stocks.push(Stock({\r\n            name: _name, \r\n            stockAddress: _address\r\n        }));\r\n    }\r\n    \r\n\r\n}",
  "sourcePath": "E:\\Coding\\Blockchain\\reactStarter\\truffle\\contracts\\Whitelist.sol",
  "compiler": {
    "name": "solc",
    "version": "0.8.18+commit.87f61d96.Emscripten.clang"
  },
  "schemaVersion": "3.4.13",
  "updatedAt": "2023-04-04T05:26:42.204Z",
  "devdoc": {
    "kind": "dev",
    "methods": {},
    "version": 1
  },
  "userdoc": {
    "kind": "user",
    "methods": {},
    "version": 1
  }
}