{
  "contractName": "Stock",
  "abi": [
    {
      "inputs": [],
      "stateMutability": "nonpayable",
      "type": "constructor"
    },
    {
      "anonymous": false,
      "inputs": [
        {
          "indexed": false,
          "internalType": "bool",
          "name": "val",
          "type": "bool"
        }
      ],
      "name": "printBool",
      "type": "event"
    },
    {
      "anonymous": false,
      "inputs": [
        {
          "indexed": false,
          "internalType": "string",
          "name": "val",
          "type": "string"
        }
      ],
      "name": "printString",
      "type": "event"
    },
    {
      "anonymous": false,
      "inputs": [
        {
          "indexed": false,
          "internalType": "uint256",
          "name": "val",
          "type": "uint256"
        }
      ],
      "name": "something",
      "type": "event"
    },
    {
      "inputs": [],
      "name": "amountInPublic",
      "outputs": [
        {
          "internalType": "uint256",
          "name": "",
          "type": "uint256"
        }
      ],
      "stateMutability": "view",
      "type": "function"
    },
    {
      "inputs": [],
      "name": "buyOrders",
      "outputs": [
        {
          "internalType": "uint256",
          "name": "",
          "type": "uint256"
        }
      ],
      "stateMutability": "view",
      "type": "function"
    },
    {
      "inputs": [],
      "name": "companyName",
      "outputs": [
        {
          "internalType": "string",
          "name": "",
          "type": "string"
        }
      ],
      "stateMutability": "view",
      "type": "function"
    },
    {
      "inputs": [],
      "name": "contractAddress",
      "outputs": [
        {
          "internalType": "address",
          "name": "",
          "type": "address"
        }
      ],
      "stateMutability": "view",
      "type": "function"
    },
    {
      "inputs": [],
      "name": "currentPrice",
      "outputs": [
        {
          "internalType": "uint256",
          "name": "",
          "type": "uint256"
        }
      ],
      "stateMutability": "view",
      "type": "function"
    },
    {
      "inputs": [
        {
          "internalType": "address",
          "name": "",
          "type": "address"
        }
      ],
      "name": "holderIndex",
      "outputs": [
        {
          "internalType": "uint256",
          "name": "",
          "type": "uint256"
        }
      ],
      "stateMutability": "view",
      "type": "function"
    },
    {
      "inputs": [
        {
          "internalType": "uint256",
          "name": "",
          "type": "uint256"
        }
      ],
      "name": "holders",
      "outputs": [
        {
          "internalType": "address",
          "name": "trader_address",
          "type": "address"
        },
        {
          "internalType": "uint256",
          "name": "amount",
          "type": "uint256"
        }
      ],
      "stateMutability": "view",
      "type": "function"
    },
    {
      "inputs": [],
      "name": "sellOrders",
      "outputs": [
        {
          "internalType": "uint256",
          "name": "",
          "type": "uint256"
        }
      ],
      "stateMutability": "view",
      "type": "function"
    },
    {
      "inputs": [],
      "name": "unsold_amount",
      "outputs": [
        {
          "internalType": "uint256",
          "name": "",
          "type": "uint256"
        }
      ],
      "stateMutability": "view",
      "type": "function"
    },
    {
      "stateMutability": "payable",
      "type": "receive"
    },
    {
      "inputs": [],
      "name": "getBalance",
      "outputs": [
        {
          "internalType": "uint256",
          "name": "",
          "type": "uint256"
        }
      ],
      "stateMutability": "view",
      "type": "function"
    },
    {
      "inputs": [],
      "name": "buyOrder",
      "outputs": [],
      "stateMutability": "payable",
      "type": "function"
    },
    {
      "inputs": [],
      "name": "sellOrder",
      "outputs": [],
      "stateMutability": "payable",
      "type": "function"
    },
    {
      "inputs": [],
      "name": "checkSender",
      "outputs": [
        {
          "internalType": "address",
          "name": "",
          "type": "address"
        }
      ],
      "stateMutability": "view",
      "type": "function"
    },
    {
      "inputs": [
        {
          "internalType": "address",
          "name": "_address",
          "type": "address"
        }
      ],
      "name": "addTransaction",
      "outputs": [],
      "stateMutability": "nonpayable",
      "type": "function"
    }
  ],
  "bytecode": "0x608060405260006004556000600555600160075534801561001f57600080fd5b5030600160006101000a81548173ffffffffffffffffffffffffffffffffffffffff021916908373ffffffffffffffffffffffffffffffffffffffff160217905550610258600281905550600060038190555060006040518060400160405280600073ffffffffffffffffffffffffffffffffffffffff16815260200160008152509050600a81908060018154018082558091505060019003906000526020600020906002020160009091909190915060008201518160000160006101000a81548173ffffffffffffffffffffffffffffffffffffffff021916908373ffffffffffffffffffffffffffffffffffffffff16021790555060208201518160010155505050610fd7806101326000396000f3fe6080604052600436106100e15760003560e01c8063b65ce8d51161007f578063e9bbb04011610059578063e9bbb0401461029f578063f5ec2eed146102dc578063f6b4dfb414610307578063facb4f61146103325761011d565b8063b65ce8d514610220578063beb4696614610249578063d21e3f61146102745761011d565b80632a11ced0116100bb5780632a11ced01461016157806339bb02381461019f57806347fb0bed146101ca5780639d1b464a146101f55761011d565b80630a4bcbb11461012257806312065fe01461012c57806314468bf6146101575761011d565b3661011d577f0f3ef8bc414cf2a5097f8cf34b5aaf397684f18f72ef7909239bf3081cf90797604051610113906109dd565b60405180910390a1005b600080fd5b61012a61035d565b005b34801561013857600080fd5b50610141610674565b60405161014e9190610a16565b60405180910390f35b61015f61067c565b005b34801561016d57600080fd5b5061018860048036038101906101839190610a62565b6107d4565b604051610196929190610ad0565b60405180910390f35b3480156101ab57600080fd5b506101b4610828565b6040516101c19190610a16565b60405180910390f35b3480156101d657600080fd5b506101df61082e565b6040516101ec9190610af9565b60405180910390f35b34801561020157600080fd5b5061020a610836565b6040516102179190610a16565b60405180910390f35b34801561022c57600080fd5b5061024760048036038101906102429190610b40565b61083c565b005b34801561025557600080fd5b5061025e6108a2565b60405161026b9190610a16565b60405180910390f35b34801561028057600080fd5b506102896108a8565b6040516102969190610a16565b60405180910390f35b3480156102ab57600080fd5b506102c660048036038101906102c19190610b40565b6108ae565b6040516102d39190610a16565b60405180910390f35b3480156102e857600080fd5b506102f16108c6565b6040516102fe9190610bec565b60405180910390f35b34801561031357600080fd5b5061031c610954565b6040516103299190610af9565b60405180910390f35b34801561033e57600080fd5b5061034761097a565b6040516103549190610a16565b60405180910390f35b6000670de0b6b3a7640000346103739190610c6c565b90507f0a2c783aa65ba3eedcea15bde05c3e0041e7cc377d17c5a6dc603adfce5e8400816040516103a49190610a16565b60405180910390a160075481146103ba57600080fd5b60003073ffffffffffffffffffffffffffffffffffffffff166108fc6007549081150290604051600060405180830381858888f19350505050905080610435576040517f08c379a000000000000000000000000000000000000000000000000000000000815260040161042c90610d0f565b60405180910390fd5b7fb83141d06b456f990d9f9acc2507ff1475ecff2869b88a9fbfb059ed7d8bb632816040516104649190610d4a565b60405180910390a16000339050600060025411156104ad576002600081548092919061048f90610d65565b9190505550600360008154809291906104a790610d8e565b91905055505b6000600960008373ffffffffffffffffffffffffffffffffffffffff1673ffffffffffffffffffffffffffffffffffffffff16815260200190815260200160002054036105f257600060405180604001604052808373ffffffffffffffffffffffffffffffffffffffff16815260200160018152509050600a80549050600960008473ffffffffffffffffffffffffffffffffffffffff1673ffffffffffffffffffffffffffffffffffffffff16815260200190815260200160002081905550600a81908060018154018082558091505060019003906000526020600020906002020160009091909190915060008201518160000160006101000a81548173ffffffffffffffffffffffffffffffffffffffff021916908373ffffffffffffffffffffffffffffffffffffffff1602179055506020820151816001015550505061066f565b6001600a600960008473ffffffffffffffffffffffffffffffffffffffff1673ffffffffffffffffffffffffffffffffffffffff168152602001908152602001600020548154811061064757610646610dd6565b5b906000526020600020906002020160010160008282546106679190610e05565b925050819055505b505050565b600047905090565b600033905060008173ffffffffffffffffffffffffffffffffffffffff166108fc670de0b6b3a76400006007546106b39190610e39565b9081150290604051600060405180830381858888f1935050505090508061070f576040517f08c379a000000000000000000000000000000000000000000000000000000000815260040161070690610eed565b60405180910390fd5b6000600960008473ffffffffffffffffffffffffffffffffffffffff1673ffffffffffffffffffffffffffffffffffffffff1681526020019081526020016000205490506000811415801561078957506000600a828154811061077557610774610dd6565b5b906000526020600020906002020160010154115b61079257600080fd5b6001600a82815481106107a8576107a7610dd6565b5b906000526020600020906002020160010160008282546107c89190610f0d565b92505081905550505050565b600a81815481106107e457600080fd5b90600052602060002090600202016000915090508060000160009054906101000a900473ffffffffffffffffffffffffffffffffffffffff16908060010154905082565b60035481565b600033905090565b60075481565b6008819080600181540180825580915050600190039060005260206000200160009091909190916101000a81548173ffffffffffffffffffffffffffffffffffffffff021916908373ffffffffffffffffffffffffffffffffffffffff16021790555050565b60055481565b60045481565b60096020528060005260406000206000915090505481565b600680546108d390610f70565b80601f01602080910402602001604051908101604052809291908181526020018280546108ff90610f70565b801561094c5780601f106109215761010080835404028352916020019161094c565b820191906000526020600020905b81548152906001019060200180831161092f57829003601f168201915b505050505081565b600160009054906101000a900473ffffffffffffffffffffffffffffffffffffffff1681565b60025481565b600082825260208201905092915050565b7f52656365697665642074686520616d6f756e7400000000000000000000000000600082015250565b60006109c7601383610980565b91506109d282610991565b602082019050919050565b600060208201905081810360008301526109f6816109ba565b9050919050565b6000819050919050565b610a10816109fd565b82525050565b6000602082019050610a2b6000830184610a07565b92915050565b600080fd5b610a3f816109fd565b8114610a4a57600080fd5b50565b600081359050610a5c81610a36565b92915050565b600060208284031215610a7857610a77610a31565b5b6000610a8684828501610a4d565b91505092915050565b600073ffffffffffffffffffffffffffffffffffffffff82169050919050565b6000610aba82610a8f565b9050919050565b610aca81610aaf565b82525050565b6000604082019050610ae56000830185610ac1565b610af26020830184610a07565b9392505050565b6000602082019050610b0e6000830184610ac1565b92915050565b610b1d81610aaf565b8114610b2857600080fd5b50565b600081359050610b3a81610b14565b92915050565b600060208284031215610b5657610b55610a31565b5b6000610b6484828501610b2b565b91505092915050565b600081519050919050565b60005b83811015610b96578082015181840152602081019050610b7b565b60008484015250505050565b6000601f19601f8301169050919050565b6000610bbe82610b6d565b610bc88185610980565b9350610bd8818560208601610b78565b610be181610ba2565b840191505092915050565b60006020820190508181036000830152610c068184610bb3565b905092915050565b7f4e487b7100000000000000000000000000000000000000000000000000000000600052601260045260246000fd5b7f4e487b7100000000000000000000000000000000000000000000000000000000600052601160045260246000fd5b6000610c77826109fd565b9150610c82836109fd565b925082610c9257610c91610c0e565b5b828204905092915050565b7f4e6f742061626c6520746f2072656365697665207061796d656e74206574686560008201527f7273000000000000000000000000000000000000000000000000000000000000602082015250565b6000610cf9602283610980565b9150610d0482610c9d565b604082019050919050565b60006020820190508181036000830152610d2881610cec565b9050919050565b60008115159050919050565b610d4481610d2f565b82525050565b6000602082019050610d5f6000830184610d3b565b92915050565b6000610d70826109fd565b915060008203610d8357610d82610c3d565b5b600182039050919050565b6000610d99826109fd565b91507fffffffffffffffffffffffffffffffffffffffffffffffffffffffffffffffff8203610dcb57610dca610c3d565b5b600182019050919050565b7f4e487b7100000000000000000000000000000000000000000000000000000000600052603260045260246000fd5b6000610e10826109fd565b9150610e1b836109fd565b9250828201905080821115610e3357610e32610c3d565b5b92915050565b6000610e44826109fd565b9150610e4f836109fd565b9250828202610e5d816109fd565b91508282048414831517610e7457610e73610c3d565b5b5092915050565b7f576173206e6f742061626c6520746f2073656e6420746865206574686572732c60008201527f2072657665727465640000000000000000000000000000000000000000000000602082015250565b6000610ed7602983610980565b9150610ee282610e7b565b604082019050919050565b60006020820190508181036000830152610f0681610eca565b9050919050565b6000610f18826109fd565b9150610f23836109fd565b9250828203905081811115610f3b57610f3a610c3d565b5b92915050565b7f4e487b7100000000000000000000000000000000000000000000000000000000600052602260045260246000fd5b60006002820490506001821680610f8857607f821691505b602082108103610f9b57610f9a610f41565b5b5091905056fea26469706673582212209131f49abc631e938d221db9fed86371a6367b95b7f3b88ae103e4222e854b6864736f6c63430008130033",
  "immutableReferences": {},
  "source": "// SPDX-License-Identifier: GPL-3.0\r\n\r\npragma solidity >=0.8.2 <0.9.0;\r\n\r\n\r\nstruct Holder{\r\n    address trader_address;\r\n    uint amount;\r\n}\r\n\r\ncontract Stock{\r\n    address private owner;\r\n    address public contractAddress;\r\n    uint public unsold_amount;\r\n    uint public amountInPublic;\r\n    uint public sellOrders = 0;\r\n    uint public buyOrders = 0;\r\n    string public companyName;\r\n    uint public currentPrice = 1;\r\n    address[] transactions;\r\n    mapping(address => uint) public holderIndex;\r\n    Holder[] public holders;\r\n\r\n    // constructor(string memory _companyName, uint _amount, uint _currentPrice ){\r\n    //     owner = msg.sender;\r\n    //     companyName = _companyName;\r\n    //     amount = _amount;\r\n    //     currentPrice = _currentPrice;\r\n    // }\r\n    event something(uint val);\r\n    event printBool(bool val);\r\n    event printString(string val);\r\n\r\n\r\n    constructor(){\r\n        contractAddress = address(this);\r\n        unsold_amount = 600;\r\n        amountInPublic = 0;\r\n        Holder memory emptyHolder = Holder({\r\n            trader_address: 0x0000000000000000000000000000000000000000,\r\n            amount: 0\r\n        });\r\n        holders.push(emptyHolder);\r\n    }\r\n\r\n    receive() payable external {\r\n        emit printString(\"Received the amount\");\r\n    }\r\n\r\n\r\n    // function pay(address _recepient) public payable {\r\n    //     address payable conntractAddress = payable(_recepient);\r\n    //     conntractAddress.transfer(1);\r\n        \r\n    // }\r\n\r\n    function getBalance() public view returns(uint){\r\n        return address(this).balance;\r\n    }\r\n\r\n    // function getValue() payable public returns(uint) {\r\n    //     return(msg.value);\r\n    // }\r\n\r\n\r\n    function buyOrder() external payable  {\r\n        uint valueSent = msg.value/1000000000000000000;\r\n        emit something(valueSent);\r\n        require(valueSent == currentPrice);\r\n        bool sent = payable(address(this)).send(currentPrice);\r\n        require(sent, \"Not able to receive payment ethers\");\r\n        emit printBool(sent);\r\n        address _address = msg.sender;\r\n        \r\n        if(unsold_amount > 0){\r\n            unsold_amount--;\r\n            amountInPublic++;\r\n        }\r\n\r\n        if(holderIndex[_address] == 0){\r\n            Holder memory updatedHolder = Holder({\r\n                trader_address: _address,\r\n                amount: 1\r\n            });\r\n            holderIndex[_address] = holders.length;\r\n            holders.push(updatedHolder);\r\n        }else{\r\n            holders[holderIndex[_address]].amount += 1;\r\n        }\r\n    }\r\n\r\n    function sellOrder() external payable {\r\n        address payable _address = payable(msg.sender);\r\n        bool sent = _address.send(currentPrice*1 ether);\r\n        require(sent, \"Was not able to send the ethers, reverted\");\r\n        uint index = holderIndex[_address];\r\n        require(index != 0 && holders[index].amount > 0 );\r\n        holders[index].amount -= 1;\r\n    }\r\n\r\n    function checkSender() view public returns (address){\r\n        return msg.sender;\r\n    }\r\n\r\n    function addTransaction(address _address) public {\r\n        transactions.push(_address);\r\n    }\r\n\r\n}",
  "sourcePath": "E:\\Coding\\Blockchain\\StockChain\\contracts\\stock.sol",
  "compiler": {
    "name": "solc",
    "version": "0.8.19+commit.7dd6d404.Emscripten.clang"
  },
  "schemaVersion": "3.4.13",
  "updatedAt": "2023-04-01T18:23:57.980Z",
  "devdoc": {
    "kind": "dev",
    "methods": {},
    "version": 1
  },
  "userdoc": {
    "kind": "user",
    "methods": {},
    "version": 1
  }
}